:020000040800F2
:10000000182E002039020008794F0008E74A00083E
:10001000754F0008152B0008715B000800000000F8
:100020000000000000000000000000004B0200087B
:100030009D2C0008000000004F02000873540008C7
:10004000530200085302000853020008530200083C
:10005000530200085302000853020008530200082C
:10006000530200085302000853020008530200081C
:10007000530200085302000853020008530200080C
:1000800053020008530200085302000853020008FC
:1000900053020008530200085302000853020008EC
:1000A00053020008195700085302000853020008C1
:1000B0004157000853020008530200085302000889
:1000C00053020008530200085302000853020008BC
:1000D00053020008F15A0008015B0008055B0008A4
:1000E000530200085302000853020008530200089C
:1000F000530200085302000853020008530200088C
:10010000530200085302000853020008530200087B
:10011000055A0008530200086557000853020008FA
:10012000530200085302000853020008530200085B
:1001300000F002F800F070F80AA090E8000C824489
:100140008344AAF10107DA4501D100F065F8AFF266
:10015000090EBAE80F0013F0010F18BFFB1A43F0A5
:10016000010318479C140100BC1401000A444FF01D
:10017000000C10F8013B13F0070408BF10F8014B06
:100180001D1108BF10F8015B641E05D010F8016B4B
:10019000641E01F8016BF9D113F0080F1EBF10F8AF
:1001A000014BAD1C0C1B09D16D1E58BF01F801CBD2
:1001B000FAD505E014F8016B01F8016B6D1EF9D555
:1001C0009142D6D37047000000230024002500266A
:1001D000103A28BF78C1FBD8520728BF30C148BFAA
:1001E0000B60704766290BF09187642900F08080CE
:1001F000002070471FB500F0B7FF04000020002169
:100200000BF00EFA401C6060002000210BF0F2F9A8
:10021000E0601FBD10B510BD01F06CFA1146FFF78C
:10022000E9FF06F01DFB01F0C9FC03B4FFF7F2FF84
:1002300003BC01F02FFD0000094880470948004732
:10024000FEE7FEE7FEE7FEE7FEE7FEE7FEE7FEE786
:10025000FEE7FEE704480549054A064B70470000E3
:100260007D5400083101000818240020182E0020B9
:1002700018280020182800200FB41CB5074B06AA28
:100280007B4469460090059800F0A3FC0020694675
:1002900000F0B2FC1CBC5DF814FB00007509000006
:1002A00070B5044685690068C10601D5302600E0B6
:1002B0002026C00707D070BDD4E901213046904701
:1002C000206A401C20626D1EF6D570BD70B50446D4
:1002D00085690078C00707D170BDD4E901212020CD
:1002E0009047206A401C20626D1EF6D570BD00004C
:1002F0002DE9F0410646002410687529314616A5FF
:1003000010D0AFF30080002802DA404213A507E0C6
:1003100031688A0701D512A502E0490704D511A565
:10032000012401E0AFF3008000210A2206F1240736
:1003300009E0B0FBF2FCB0FBF2F302FB1C00303032
:1003400078541846491C0028F3D123462A463046E3
:10035000BDE8F04100F0D0B9000000002D00000021
:100360002B000000200000002DE9F05F89460446C4
:100370004FF0000ADFF824B1FB44C0F820A020466B
:10038000E168884700287DD0252806D0D4E90121DE
:100390009047206A401C2062F1E700255F46204616
:1003A000E16888472028064607DB312E05D2B819B8
:1003B00010F8200C08B10543F1E7A80701D525F096
:1003C0000405C4F81CA00027C4F818A02A2E09D0E0
:1003D000304605F064FC38B304EB8708303EC8F8BB
:1003E000186019E059F8041B204604EB870291615C
:1003F000E1688847012F064618D1E069002820DA15
:1004000025F020051DE0D8F8180000EB800006EB71
:1004100040003038C8F818002046E1688847064692
:1004200005F03DFC0028EED1012F0AD02E2E08D178
:100430002046E16888477F1C0646022F45F02005CC
:10044000C4DBA069002803DA404245F00105A06141
:10045000E80701D025F01005A6B1A6F14100192842
:1004600002D8203645F400654A46314620462560CC
:100470004D46FFF7B7FE60B1012807D0ED1D25F00E
:10048000070000E007E000F1080978E705F104093A
:1004900075E730467AE7206ABDE8F09FDC1101007D
:1004A0000FB400B58DB010A9099000910B904FF0DA
:1004B000FF300A9000200C900648784406900648C9
:1004C00078446A4607900F9909A800F01DFE0DB008
:1004D0005DF814FB6B0C0000830C000040EA010384
:1004E00010B59B070FD1042A0DD310C808C9121FDD
:1004F0009C42F8D020BA19BA884201D9012010BD17
:100500004FF0FF3010BD1AB1D30703D0521C07E0E3
:10051000002010BD10F8013B11F8014B1B1B07D147
:1005200010F8013B11F8014B1B1B01D1921EF1D1B8
:10053000184610BD10B5431C02E010F8011B71B144
:100540008107FAD14FF0013202C88C1A8C4314EAA9
:10055000C211F9D0C01A0A0603D0C01E10BDC01ABD
:1005600010BD0A0401D0801E10BD0902FCD0401E3F
:1005700010BD032A40F2308010F0030C00F015800B
:1005800011F8013BBCF1020F624498BF11F801CB96
:1005900000F8013B38BF11F8013BA2F1040298BFFB
:1005A00000F801CB38BF00F8013B11F0030300F065
:1005B0002580083AC0F0088051F8043B083A51F809
:1005C00004CBA0E80810F5E7121D5CBF51F8043B0E
:1005D00040F8043BAFF30080D20724BF11F8013B81
:1005E00011F801CB48BF11F8012B24BF00F8013BE3
:1005F00000F801CB48BF00F8012B704710B5203A36
:10060000C0F00B80B1E81850203AA0E81850B1E8CB
:100610001850A0E81850BFF4F5AF5FEA027C24BF81
:10062000B1E81850A0E8185044BF18C918C0BDE878
:1006300010405FEA827C24BF51F8043B40F8043B41
:1006400008BF7047D20728BF31F8023B48BF11F8F6
:10065000012B28BF20F8023B48BF00F8012B704750
:100660004FF000020429C0F0128010F0030C00F0DB
:100670001B80CCF1040CBCF1020F18BF00F8012B59
:10068000A8BF20F8022BA1EB0C0100F00DB85FEA27
:10069000C17C24BF00F8012B00F8012B48BF00F8F3
:1006A000012B70474FF0000200B513469446964662
:1006B000203922BFA0E80C50A0E80C50B1F1200175
:1006C000BFF4F7AF090728BFA0E80C5048BF0CC023
:1006D0005DF804EB890028BF40F8042B08BF704781
:1006E00048BF20F8022B11F0804F18BF00F8012BF3
:1006F00070477047704770472DE9F0470D4699469F
:100700009246044600F124080168880604D5E06991
:1007100021F01001216000E00120A84201DD471B0B
:1007200000E00027A1697A1902EB0900081AA0610C
:100730002078C00602D42046FFF7B2FD002608E06C
:10074000D4E901211AF806009047206A401C761C63
:1007500020624E45F4DB2078C0060AD52046FFF71C
:100760009FFD06E0D4E9012130209047206A401C1B
:100770002062381EA7F10107F4DC07E0D4E901216B
:1007800018F805009047206A401C2062281EA5F139
:100790000105F3DC2046FFF799FD2078000602D51D
:1007A0000220BDE8F0870120FBE770472DE9FF4FED
:1007B0000C461E464FF0FF378BB0D2E90001DDF842
:1007C00060800A908A46C1F30A5505B93D4600216A
:1007D00008464FF00000BAF1000F00F4400005DABF
:1007E00000EB80004FF4400101EA50004FEA9059BD
:1007F000B9F1010F00DDB9460A9850EA4A000ED05F
:1008000044F61050A5F2FF3545432F14B8F1000F00
:100810001ED07542291E1EDDC9F100021CE0B8F190
:10082000010F4FF0000001D0302103E0F24305E05A
:100830002154401CB042FBDB3046002200212154F1
:100840000B99C1F80880C1E900200FB0BDE8F08F16
:10085000BD1B6D1CDEE74A4600DA694206A800F0BF
:10086000D3FE06AB93E8070003AB83E807005046CE
:100870000A9901F016FA8DE80700A0F500501F381C
:1008800000900398002D0ADD42F21F014A460844F9
:10089000002303A90390684601F0C2FC09E0A0F51B
:1008A00000504A461F38002303A90390684601F010
:1008B000E1FC8DE807000004000C03D04FF0FF308E
:1008C000410800E01046B8F1000F03D0002200926A
:1008D00015461EE0751E05D400F04EFC3032625500
:1008E0006D1EF9D5B3460122084302D000227F1CB9
:1008F00004E02078302801D100227F1E002A0997C9
:1009000084D01DE0112D07DA00F036FC303262553C
:100910006D1C50EA0102F5D1084302D00098C8B11D
:100920000EE00021681E05E0235C625C63542254E3
:10093000401E491C8142F7DBAB46A81B401E0990B4
:10094000002004F80B000B98099AC0F80880C0E951
:10095000002B7AE711264FF0000857E72DE9F04FFA
:1009600088460446D21D22F0070191B0D1E900016A
:10097000CDE90A0105F0FEF802460B98C00F01D040
:100980002D2007E02068810701D52B2002E02021DF
:1009900001EAC000032A099001D0072A05DB0346BB
:1009A0004146204600F036FC0BE12078800601D558
:1009B000E06900E00620B8F1650F814606D0B8F185
:1009C000660F18D0B8F1670F70D131E00020B9F18F
:1009D000110F009001DB112301E009F101030AAAC4
:1009E00001A90CA8FFF7E2FEDDE90C70002609F171
:1009F0000105834647E001204B4600904FF0004739
:100A00000AAA01A90CA8FFF7D1FEDDE90DB00C99E7
:100A10005D46002610B909F101000D18B9EB05007B
:100A200003D4C0F1FF3609F10105A5EB09002BE065
:100A3000B9F1010F01DA4FF001090020B9F1110FEE
:100A40000090484601DD112300E003460AAA01A9EF
:100A50000CA8FFF7ABFEDDE90C704D46002683467F
:100A6000207800070AD4AB4500DA5D4601A8012DC5
:100A700004DD411911F8011C302907D04F4502DA75
:100A800017F1040F04DA012082460FE06D1EEEE735
:100A9000002F02DCED1B3E4403E0781CA84200DD81
:100AA0007D1CB81B00F1010A4FF0004720780007B9
:100AB00003D4AA4501DB4FF0FF3A0021B7F1004F04
:100AC0000DF143088DF8431024D002202B23002F72
:100AD00001DA7F422D230A21021EA0F1010000DC71
:100AE0005FB197FBF1FC97FBF1F201FB1C7C174611
:100AF0000CF1300C08F801CDEEE7A8F1010003700D
:100B00002188090501D5452100E06521A0F10108F2
:100B100000F8011C09980FA9A1EB0807FF1D00B1FF
:100B20000120411901EBEA70A1693844081A401EFE
:100B3000A0612078C00602D42046FFF7B1FB0998D7
:100B400028B1D4E901219047206A401C2062207816
:100B5000C00622D52046FFF7A3FB1EE0002E04DBD3
:100B6000B34502DD01A8805D00E03020D4E9012119
:100B70009047206A401C2062761CAAF101005FEABF
:100B8000000A0AD100F0F0FAC0680168405CD4E9BC
:100B900001219047206A401C2062281EA5F1010512
:100BA000DCDC07E0D4E9012118F8010B9047206A4A
:100BB000401C2062381EA7F10107F3DC2046FFF736
:100BC00085FB032011B041E601694A1C02610878E7
:100BD000704700B58FB0CDE901310021059105497D
:100BE0007944CDE9031011466846FFF7BDFB0FB00D
:100BF00000BD0000E5FFFFFF0A6802F8010B0A6074
:100C0000704700002DE9FF4F06468BB00878FF289B
:100C100006D0491C2D2805D000244FF0000908E01B
:100C200000200CE00124F8E709EB8903491C00EBE4
:100C300043090878FF28F7D114B1C9F100008146B3
:100C4000107800252C46AA4629462D2801D02B28AD
:100C500004D1521C2D2813D0002082468B461078D8
:100C6000FF280FD04FF0000C0A21521CA5FB017881
:100C700004FB018105FB0C11C5194BEB0104EEE7E8
:100C80000120EAE7002108464FF00000BAF1000F0A
:100C900002D000EB80004008C0F38157012F01DD36
:100CA0004FF0FF370E9955EA040009EB01080BD00D
:100CB0004FF0020918F5FA7F16DA4FEACA70002FD2
:100CC000706008DD012007E04FEACA70C6E900B095
:100CD0000FB0BDE8F08F0020306000F049FAC0F896
:100CE00000901821084616E0B8F5FA7F18DD002FAD
:100CF00002DAF748784401E0F6487844D0E9001079
:100D0000C6E9001040EACA70706000F031FAC0F81D
:100D10000090142108460FB0BDE8F04F0BF0F3B976
:100D2000002108464FF00000B8F10001099002DAF6
:100D3000C7F1000200E03A4601DAC8F1000106A856
:100D400000F062FC06AB93E8070003AB83E8070002
:100D500044F23E005BEA04010090584604D144F29C
:100D60001E012C465D460091210C0904014306D169
:100D70000099240444EA15442D041039009104F02C
:100D80007F41014306D10099240244EA15642D02F3
:100D90000839009104F07041014306D10099240103
:100DA00044EA15742D01091F009104F040410143EC
:100DB00006D10099A40044EA9574AD00891E009103
:100DC00004F00041084304D100986D196441401EAD
:100DD00000904FF001033A466846B8F1000FCDE9A4
:100DE000014503A902DD01F05AFA01E001F02DFAF4
:100DF000BAF1000F04460D4601D084F000440021F2
:100E000008464FF00000099940F2FF77484010F083
:100E10000C0F07D124F00040284303D0C4F30A503C
:100E2000B84212D100F0A4F9C0F80090C4F30A50FF
:100E3000B8420AD1A8487844D0E90010C6E90010A9
:100E400004F000410843706042E7C6E900543FE700
:100E50002DE9FF4F1F464FF0000A4FF0FF3845467F
:100E600091B0D7E90146CDF83CA000F07DF9C0680B
:100E70000168405C1090B96912986D1C8847396A06
:100E8000814688470028F6D1B9F1FF3F0AD0002EED
:100E900024F4D06411DDB9F12B0F08D0B9F12D0F76
:100EA0000BD102E0404615B013E744F48064B96901
:100EB00012986D1C8847761E8146600504A901D5ED
:100EC0002D2000E02B20002E01F1010B0DF1300848
:100ED0008DF810003FDDB9F1690F08D0B9F1490F65
:100EE00005D0B9F16E0F02D0B9F14E0F1CD13B46BF
:100EF00001A8009580E85002DDE912126FF00200AF
:100F00000BF06AF9C11CCED10EE0B96912986D1CC4
:100F1000884781461398761E44F4007405600F9844
:100F2000401C002E0F9016DDB9F1300FEDD0B9F155
:100F3000780F02D0B9F1580F0DD10F9801280AD1BE
:100F40003B46CDE90054DDE91212001F02960BF07A
:100F500041F9C11CA7D1109989453ED144F08004C4
:100F600006E01399681CAAF1010A44F400740860B1
:100F7000B9696D1C1298761E884730288146F0D0DA
:100F80002BE01099894505D1200603D4761E44F044
:100F9000800418E0484604F082FE08B3761E0DF186
:100FA00023018B4544F4007408D2A9F130000BF8FA
:100FB000010B200607D5AAF1010003E0200602D4A8
:100FC0000AF101008246A00502D51399681C086049
:100FD000B96912986D1C88478146002ED1DC53E018
:100FE000002E51DDB9F1650F02D0B9F1450F4BD19B
:100FF000A00549D5B9696D1C1298761E24F4407479
:101000008847002E81460CDD2B2804D0B9F12D0F26
:1010100007D144F48074B96912986D1C8847761E14
:101020008146E00501D52D2100E02B2108F8011BA8
:10103000CDF8008021E0761E0DF13901884544F499
:1010400000740CD2A9F1300010F0FF0088F8000005
:1010500002D10099884509D908F1010806E0E005A8
:1010600001D51E4801E042F20F708246B96912981C
:101070006D1C8847814613980560002E04DD4846A4
:1010800004F00DFE0028D6D1F96912988847FF2098
:1010900053468BF8000088F8000000200A900B905F
:1010A00004AA0CA90AA8FFF7ADFDA00502D46FF0B1
:1010B0000100F8E614F0240F12D0E0071CD13868C4
:1010C000DDE90A12031D3B600068C0E9001213E06D
:1010D0003009010022090100E6070100F1D8FFFFF5
:1010E0000AA9684604F06AFDE00705D13868009A4D
:1010F000011D3960006802602846D4E60268114488
:101100001378016018467047D160054979445161F0
:1011100004497944116200211161114600F0BAB806
:10112000EDFFFFFFED000000426842B1016811F8D9
:10113000013B23B1521EC0E900121846704701213D
:10114000C160881E704742685AB1C368016843B9DC
:1011500083688B4205D0491E521CC0E90012002052
:1011600070474FF0FF30704700487047D823002089
:1011700000487047B823002030B5B0F10A024FEAAA
:10118000900E71F100034EEA817EB0EB0E0061EB30
:1011900091014FEA101E4EEA017E10EB0E0041EB6A
:1011A00011114FEA102E4EEA016E10EB0E0041EBCA
:1011B00011214FEA104E4EEA014E10EB0E0041EBAA
:1011C0001141401841F100014FEAD00040EA41705E
:1011D0004FEAD10110EB80054FEA810444EA907494
:1011E00044EB01046D1944EB0404521BA3414FF07E
:1011F000000348BF0A3200D530BD401C41F1000158
:1012000030BD10B5044600F09BFA0068005D00F0A8
:10121000010010BD2DE9F0411F4604460326016878
:10122000072A01F4006004DB08B116A505E016A545
:1012300003E008B115A500E015A521F0100020601D
:10124000A069C01EA0610FB1401EA0612046FFF73B
:1012500027F84FB1D4E9012138469047206A401C55
:101260002062C01C206206E0206AFAE7D4E901216E
:1012700015F8010B9047761EF8D22046FFF726F8A6
:10128000BDE8F0814E414E006E616E00494E460051
:10129000696E66002DE9F34F4FF0000A0C46564682
:1012A0008DB001200C9001F10C000B9062690B983D
:1012B00001219047051E2DD0252D2CD0216A88476D
:1012C000C0B162690B9801219047216A88470028C4
:1012D000F7D16269411E0B98904700E0761CA16926
:1012E0000D988847216A88470028F7D1E1690D9851
:1012F0008847DBE7A1690D988847A842074601D1D6
:10130000761CD3E7E1690D9888477F1C02D1BAF1BA
:10131000000F6FD06CE162690B9800273D4639469B
:1013200090472A2804D162690B9801219047012532
:10133000DFF8D08262690B9801219047A0F130015B
:101340000A290AD24745E5DC07EB870100EB410794
:10135000303FDFD445F01005ECE7E90601D46FF02B
:1013600000476C280AD04C2814D0682815D06A2869
:101370000DD074281CD07A281AD01DE062690B9811
:10138000012190476C2802D045F0040514E045F097
:1013900002050DE045F020050AE062690B98012185
:1013A0009047682802D045F0080505E045F400653F
:1013B00062690B9801219047C4E9015765283DD027
:1013C00019DC58287AD00CDC452837D004DC2528D5
:1013D00026D041289ED131E046282FD0472899D1E8
:1013E0002CE05B2877D0612828D063287CD0642843
:1013F00023D15AE0F7E06F2848D008DC66281DD0DA
:1014000067281BD0692821D06E2816D127E07028C4
:1014100045D0732868D0752847D078280DD14DE085
:10142000A1690D988847252805463FF469AFE16911
:101430000D9888476D1C3FF46AAFD9E00D9923469B
:101440006A466FF001000AF0C3FEC6E045F04000B6
:1014500023464FF000026060A80736D43EE0E8075C
:101460007FF447AF2068011D21600068290501D580
:1014700006701BE7290701D5068017E7A90703D5E2
:10148000F117C0E9006111E706600FE745F0400081
:1014900023464FF008026060A80716D41EE040F60D
:1014A0000E0125EA0100606016E045F04000234689
:1014B0004FF00A026060A80707D40FE045F0400033
:1014C0006060A80708D5234610220D996FF001002F
:1014D000AFF3008081E007E0102223460D996FF002
:1014E0000100AFF3008078E04FF0000963284F4619
:1014F000C8464B46CB4602D05B2807D039E020795E
:10150000C00601D40120A060012732E06269D4F84E
:101510000CB00B98012190475E2807D14FF00109CC
:1015200049466269D4F80CB00B989047216939B9E3
:1015300000210A4603AB43F82120491C0829FADBA5
:10154000D8B3216949B308F1010862690B980121F8
:1015500090475D28F4D1B9F1000F09D0002003A90C
:1015600051F82020D24341F82020401C0828F7DB06
:1015700003AB2069002820794FEA40701ED05B46FB
:101580002246CDF80080CDE901970D9900286FF033
:10159000010020DAAFF300801FE0C11703AA00EBBF
:1015A000D1614B1121F01F0102EB8302411A136834
:1015B0000120884003431360C7E719E00D992246D4
:1015C00000286FF00100009702DAAFF3008004E01A
:1015D000AFF3008001E0AFF3008000280ADA401C7E
:1015E00006D10C9820B14FF0FF300FB0BDE8F08F5E
:1015F0005046FAE7E90701D10AF1010A0644002042
:101600000C9053E6CCCCCC0C2DE9F0478146164625
:101610008AB0354878440DC88DE80D0032487844CA
:10162000801C03AC0DC884E80D0041F69B300844D3
:10163000372190FBF1F290FBF1F5A5F1800501FB5C
:1016400012041B3C02D56442012000E00020DFF8B8
:1016500098A080460027FA44AAF1BE0A0EE0E007EF
:101660000AD03246684607EB470101230AEB8101A5
:1016700000F000FE8DE8070064107F1C002CEED106
:10168000194F7F44AE3F19E0E80715D007EB04106F
:101690000DF1180A90E80E008AE80E00C068F042CA
:1016A00001D1981908903246012306A903A800F039
:1016B000E1FD03AB83E807006D10641C002DE3D14E
:1016C0004FF0010332466946B8F1000F03A802D07B
:1016D00000F0A6FD01E000F0CDFDC9E90001C9F868
:1016E00008200AB0BDE8F087D0FF0000004870472E
:1016F000B82300207546FFF7F9FFAE46050069469E
:10170000534620F00700854618B020B5FEF7A2FD2D
:10171000BDE820404FF000064FF000074FF00008F2
:101720004FF0000B21F00701AC46ACE8C009ACE873
:10173000C009ACE8C009ACE8C0098D46704700009C
:1017400010B5FFF711FD001D10BD00BFD59E0000B4
:1017500010B5FFF70DFD006810BD10B50446FFF78A
:1017600007FD046010BD00002DE9FF4F1F464FF03C
:101770003C0987B04FF00042DDE9141001F1010887
:10178000DDF858A002EA40500390002005908346FF
:10179000054604460490B969461E08988847AAF190
:1017A000010A0290BAF1000F3BDD02982E2815D0F5
:1017B000102100F060FA00282EDB4FF0010B059994
:1017C000014317D0B9F1000F0BDB4A46C11700F0F7
:1017D0003FFA05430C43A9F1040905E001200490F8
:1017E0000BE008B145F0010501200590049820B9EF
:1017F000361D02E0049800B1361FB969089808F157
:1018000001088847BBF1000FAAF1010A0290C9D074
:101810000999C1F80080C5E70298702808D05028BF
:1018200006D0F96908988847BBF1000F14D04FE043
:10183000002002900120BBF1000F049009D0B9698B
:10184000089808F101088847AAF10109B9F1000FC9
:1018500007DCF969089888476FF001000BB0BDE814
:10186000F08F2B2804D02D280CD14FF0FF3004909E
:10187000B969089808F101088847A9F10109B9F187
:10188000000FE6DD411CE4D00A2100F0F4F9002845
:10189000DFDB029908F1010801EB810100EB410057
:1018A0000290B969089888470A2100F0E4F9099A7A
:1018B000A9F10109B9F1000FC2F8008001DD00288B
:1018C000E7DAF969089888470499029800FB0166ED
:1018D00055EA040004D004F04041090002D006E0BB
:1018E000039898E0A40044EA9574AD00B61E04F095
:1018F0000041080002D16D196441761E159810F060
:10190000240F03D04FF00B095C4803E04FF0280987
:101910006FF07D008246564507DAAAEB060189443E
:10192000B9F1410F01DD4FF0410901200021A9F17A
:10193000010200F08DF9024628400B462140084381
:1019400001D0012100E00021501E029143F1FF313E
:1019500028402140084301D0012000E000200299E6
:10196000834651EA0B014FD0002108464FF000009A
:10197000039900F4400039B100EB80004FF44001BE
:1019800000EBD07001EA60008015012802DD4FF005
:10199000FF3000E013D0401C36D0029860B3BBF19A
:1019A000000F0CD14A460120002100F051F92840D7
:1019B0002140084301D0012000E00020E0B10120D7
:1019C0004A46002100F044F9034640190A466141A5
:1019D0002D1A8C4111D3B9F1400F09DD159810F083
:1019E000240F02D0AAF1340603E0AAF1170600E0A2
:1019F000761C00254FF0004406E05B1E42F1FF32EA
:101A000020EA030521EA0204CAF10100B04206DA25
:101A10001B49039808430190002000900EE0039AB0
:101A2000C4F3D321E80A0A43164940EA44500A4362
:101A30003146CDE90002684604F026F9159810F009
:101A4000240F0BD01598C00715D13868DDE90012B6
:101A5000031D3B600068C0E900120CE002A8694663
:101A600004F0ACF81598C00705D13868029A011D3A
:101A70003960006802604046F0E6000002FCFFFFAB
:101A80000000F07F0000F03F2DE9FF4F92461D4619
:101A900085B04FF00041DDE9124BDDE914727F1E85
:101AA00001EA4B50414940F0FF4940EA010800215A
:101AB00022F020004928049102D04E2828D04CE082
:101AC0003BA0012607C88DE80700A9690698641C99
:101AD00088477F1E014606D41DF8060018B121F084
:101AE000200181420BD0E96906988847032E34D043
:101AF000082E32D06FF0010009B0BDE8F08F761CDF
:101B0000032E01D0082EE0D1601CCAF80000DCE7EB
:101B1000A9690698641C88477F1E2AD420F02000FB
:101B2000412826D1A9690698641C88477F1E20D4C5
:101B300020F020004E281CD1A9690698641C884713
:101B40007F1E48F4002849F48009CAF8004001D4F7
:101B5000282806D0E969069888475FEACB7012D03A
:101B600022E0A9690698641C88477F1E01D40028DA
:101B700003DAE96906988847BCE72928F1D1641C93
:101B8000CAF80040E9E71BF0240F07D02868049941
:101B9000031D2B600068C0E9001805E02868021DDD
:101BA0002A600068C0F800902046A5E70000F07F9A
:101BB000494E46494E4954590000000010B50446AC
:101BC000AFF300802046BDE81040FEF72EBB0000BA
:101BD0004FF0013C50F8042B51F8043B9A4221D1BC
:101BE000A2EB0C03934313EACC1317D150F8042B48
:101BF00051F8043B9A4215D1A2EB0C03934313EA2C
:101C0000CC130BD150F8042B51F8043B9A4209D164
:101C1000A2EB0C03934313EACC13DBD04FF000008C
:101C2000704700BFD01A01BAB1FA81F101F0180172
:101C300022FA01F0CB40C1F12001DBB2C0B2C01AE0
:101C40002CFA01F3D11A914311EAC311E6D170477E
:101C5000B2F120030AD5C2F1200301FA02F120FA01
:101C600003F300FA02F041EA0301704700FA03F1BE
:101C70004FF0000070473A2800D2303820F02002A0
:101C8000412A01D3A2F13700884201D34FF0FF303F
:101C90007047000001491820ABBEFEE72600020095
:101CA00070475FEA400C08BF91F0000F4FEA8C23A9
:101CB0004FEAC12243EA51514FEA1C5018BF00F5C8
:101CC000F0404FEA300018BF41F000415FEA6C5C21
:101CD00000F02980BCF1FF3F08BF40F08040704712
:101CE000130C06BF12044FF0100C4FF0000C130E33
:101CF00004BF12020CF1080C130F04BF12010CF107
:101D0000040C930F04BF92000CF1020CD30F04BF1C
:101D100052000CF1010C11464FF00002A0F11F001F
:101D2000A0EB0C00704711F0004F08BF704731F076
:101D300000413FF4D5AF0B0C06BF09044FF0100C67
:101D40004FF0000C0B0E04BF09020CF1080C0B0F36
:101D500004BF09010CF1040C8B0F04BF89000CF1C6
:101D6000020CCB0F04BF49000CF1010CCCF1200395
:101D7000A0EB0C0022FA03F302FA0CF241EA030191
:101D800000F10100704720F07F4C80EA030023F04F
:101D90007F47ACEB070303F57C5300F0004003F1F1
:101DA000FF032DE980494FEA154B09B44FEA14436C
:101DB00025EA0B4E24EA03480FF2042606EB13270C
:101DC00049083E785FEA320203FB0667C7F5000761
:101DD00007FB06F64FEA54374FEAD64606F10206ED
:101DE00007FB066CCCF1005C4FEA1C472CEA074C61
:101DF00007FB06F40CFB06F504EB15464FEA9616B6
:101E000034BF00204FF000404FEAD13706FB07FCFB
:101E10004FEA1C4C0CFB0BF7D21B03FB0CF761EBDE
:101E200007010CFB0EF7B0EB074072EB17420CFBFF
:101E300008F734BFA2EB0742B2EB074261EB174150
:101E40004FEA0C444FEA910706FB07FC4FEA1C4C93
:101E50000CFB0BF7B0EBC74072EB573203FB0CF7F0
:101E600034BFA2EBC742B2EBC74261EB57310CFB68
:101E70000EF7B0EBC70072EB57720CFB08F734BFDC
:101E8000A2EBC702B2EBC70261EB5771039F4FEAA7
:101E9000816141EA921104EBCC044FEAD1374FEA59
:101EA000826206FB07FC42EA90124FEA80604FEA2A
:101EB0001C4C0CFB0BF7D21B03FB0CF761EB07016F
:101EC0000CFB0EF7B0EB074072EB17420CFB08F768
:101ED00034BFA2EB0742B2EB074261EB17414FEA76
:101EE0008C554FEA910704EB9C2406FB07FC4FEA54
:101EF0001C4C0CFB0BF7B0EBC74072EB573203FBEB
:101F00000CF734BFA2EBC742B2EBC74261EB5731CB
:101F10000CFB0EF7B0EBC70072EB57720CFB08F727
:101F200034BFA2EBC702B2EBC70261EB577115EBEE
:101F30004C254FEA816141EA92114FEA82624FEAF1
:101F4000D13742EA901206FB07FC44F100044FEA45
:101F500080604FEA1C4C0CFB0BF7D21B03FB0CF709
:101F600061EB07010CFB0EF7B0EB074072EB174279
:101F70000CFB08F734BFA2EB0742B2EB074261EB60
:101F8000174115EB1C154FEA813141EA92414FEAA6
:101F9000823242EA90424FEA80304FEA0C7644F1B6
:101FA000000448EA03434EEA0B484FF0000EB2EB40
:101FB000080C71EB030724BF624639464EEB0E0E48
:101FC0004FF0000B0018524149414BEB0B0BB2EBA9
:101FD000080C71EB03077BF1000B24BF6246394606
:101FE0004EEB0E0E4FF0000B0018524149414BEBE7
:101FF0000B0BB2EB080C71EB03077BF1000B24BF5A
:10200000624639464EEB0E0E51EA020718BF46F003
:10201000010616EB0E7655F1000254F1000103D5CE
:10202000BDE88901BDE80088BDE88901BDE8004838
:10203000B619524141EB0101A3F1010370478080C1
:102040007F7E7D7C7B7A7978777676757473727112
:1020500071706F6E6E6D6C6C6B6A6A6968686766CA
:1020600066656464636362616160605F5F5E5E5D5C
:102070005D5C5C5B5B5A5A595958585757565655D0
:1020800055555454535352525251515050504F4F32
:102090004F4E4E4D4D4D4C4C4C4B4B4B4A4A4A4982
:1020A00049494848484747474746464645454544C5
:1020B000444444434343434242424241414100007D
:1020C00046EA0646A3F570534FEA164646EA4256DC
:1020D0004FEAD22242EA415210B54FEAD121A3F190
:1020E000010300F02FF820F0004000F1020C00F096
:1020F000004701EB00501146BCF5006F40EA0700B5
:1021000000D210BDBAF1000F0AD01CB503B44FF0D5
:1021100004004FF004014FF000000FBCBDE8104078
:102120004FF00001BBF1010FB9BF04484FF0FF3180
:102130000348002140EA070010BD00BFFFFFEF7F0A
:102140000000F07F002B9C4630D477002BD01CB5CC
:102150004FEA370703B44FF010004FF01001BAF107
:10216000000F06D0BCF1000FDCBF40F0080040F0CB
:1021700008014FF000000FBCBDE810400BF1010B4F
:10218000BBF1010F08BF5FEA170722BF12F101027E
:1021900011F101014FF0004143F1000300F0004054
:1021A00043EA00007047F9D35708D0E746EA0646ED
:1021B00013F1400F4FEA16461FDD13F1200FDFBF6A
:1021C00016430A46002120335B42BED0C3F12007EC
:1021D00046EA064602FA07F74FEA164646EA0706B7
:1021E000C3F1200722FA03F201FA07F721FA03F1FB
:1021F0004FF0000342EA0702A7E746EA020646EA72
:1022000006464FEA164646EA0106BCBF46EA0646BF
:10221000360C4FF000034FF000024FF0000194E73E
:102220002DE9804C9A46934670B491E8380007C86F
:1022300031EA400C48BF34EA430C03D5FFF7A3FD55
:10224000FFF780FFF0BCBDE8008C2DE9804C9A467A
:10225000934670B491E8380007C831EA400C48BF93
:1022600034EA430C03D5FFF78EFDFFF729FFF0BCDE
:10227000BDE8008C2DE9804C9A46934670B491E8F5
:10228000380007C810F0804F08BF13F0804F03D10B
:1022900000F01AF8FFF756FFF0BCBDE8008C2DE9FE
:1022A000804C9A46934670B491E8380007C810F005
:1022B000804F08BF13F0804F03D100F005F8FFF7FF
:1022C000FFFEF0BCBDE8008C20F07F4780EA0300F1
:1022D00023F07F4C07EB0C03A3F57C5300F0004088
:1022E000A3F1FE0392F0000F00F0B38095F0000F11
:1022F00000F077802DE901494FEA11404FEA14467A
:1023000021EA004800FB06FC24EA064708FB06F623
:1023100007FB08F800FB07F718EB06484CEB164CD8
:102320004FEA124B18EB07484FEA15464CEB1740A3
:1023300022EA0B4E0BFB06FC25EA06470EFB06F6CF
:1023400007FB0EFE0BFB07F71EEB064E4CEB164C85
:102350004FF000061EEB074E4CEB174B18EB0B082B
:1023600040F1000018EB0E0B58EB000840F10000A4
:102370008F1A4FF000013CBFC943661B14BFB5EB79
:10238000040C00213CBFC943F61B4FEA17444EEA38
:102390008E0E27EA04454FEA1C4704FB07622CEA2D
:1023A000074C05FB07F70CFB05F604FB0CFC16EBD2
:1023B000074642EB174216EB0C4642EB1C421BEB66
:1023C000060658EB0202414146EA9E0601D5BDE8E9
:1023D0000189B619524141EB0101A3F10103BDE8A6
:1023E00001894FEA14454FEA114724EA054621EADC
:1023F000074C05FB07F406FB07F70CFB06F105FB92
:102400000CFC11EB074144EB17444FEA124711EB68
:102410000C4144EB1C4422EA074C05FB07F206FB87
:1024200007F70CFB06F605FB0CFC16EB074642EB28
:10243000174216EB0C4642EB1C456A1854F100019A
:1024400048BF7047B619524141EB0101A3F10103A6
:10245000704795F0000F37D04FEA11424FEA14470A
:1024600021EA024624EA074C02FB07F106FB07F7C4
:102470000CFB06F402FB0CFC14EB074441EB174188
:102480004FEA154714EB0C4441EB1C4125EA074C7D
:1024900002FB07F506FB07F70CFB06F602FB0CFC3C
:1024A00016EB074645EB174516EB0C4645EB1C4271
:1024B000121951F1000148BF7047B619524141EB62
:1024C0000101A3F1010370474FEA14454FEA114798
:1024D00024EA054621EA074C05FB07F106FB07F74E
:1024E0000CFB06F24FF0000605FB0CFC12EB07425A
:1024F00041EB174112EB0C4251EB1C4148BF7047B6
:10250000921841EB0101A3F1010370472DE9F0415D
:102510000025002401F0D2FE0746384609F038FCB9
:102520008046084909F01EFB0646074909F078FC79
:1025300005462146284601F0E7FE04462046BDE850
:10254000F081000000F07F453333534010B540F276
:10255000046008F077FA40F2096008F073FA02208C
:1025600008F0BAF91A4803F0E5FB002003F056FC26
:1025700000220221164803F0C8FC00224FF48071AB
:10258000134803F0C2FC0021114803F0C7FB0122ED
:1025900011460F4803F09FFB07230B2200210C4834
:1025A00003F04AFC4FF460220121094803F016FCB5
:1025B00001221146064803F0F2FB054803F0E6FB52
:1025C000012003F0D1FE024803F070FB10BD0000B3
:1025D00000240140002804DD4FF40041034A11614A
:1025E00003E04FF40041014A51617047001001407F
:1025F00010B501F04FFFFFF7A9FF10BD10B540F275
:10260000036008F01FFA4FF44063032214210348CB
:1026100003F0DEFF01F052F810BD0000000C014095
:1026200010B540F2026008F00DFA40F2036008F0C5
:1026300009FA40F2046008F005FA40F2056008F07B
:1026400001FA4FF4005303221021344803F0C0FF75
:10265000042303221021314803F0BAFF4FF48043D2
:10266000032210212D4803F0B3FF08230322102179
:102670002A4803F0ADFF4FF40043032210212748FE
:1026800003F0A6FF4FF4007303221021234803F048
:102690009FFF012303220421204803F099FF4FF4F8
:1026A0008073032204211E4803F092FF4FF400635D
:1026B000032204211A4803F08BFF02230322042182
:1026C000174803F085FF1748006800F0040008B1C0
:1026D000012000E00020012803D1642003F044FE23
:1026E00010E004E0601CC4B20A2003F03DFE0D4877
:1026F000006800F0040008B1012000E0002008B9E3
:10270000FA2CEFDB4FF40050044908610420086103
:10271000000308610820086110BD0000001001409E
:10272000000801400814014010B5FFF779FFFFF7DA
:1027300065FFFFF75DFF00F00FF800F035F800F0DF
:1027400089F800F0A7F800F0ADF8322002F05AFE48
:1027500002F060FA10BD000010B540F2036008F00E
:1027600071F940F2056008F06DF90E494B680322DB
:102770000868042103F02CFF0A49CB68032288680B
:10278000042103F025FF07494B690322086904214E
:1027900003F01EFF0349CB6903228869042103F07B
:1027A00017FF10BD1C00002000B587B040F202707A
:1027B00008F048F940F2036008F044F94FF4007360
:1027C00003221821214803F003FF214808F0F2FBFF
:1027D0003520ADF800000020ADF80200ADF804008F
:1027E000092002900020ADF80C008DF80E0069461B
:1027F000174808F075FC0020ADF814000120ADF872
:1028000010000020ADF81600ADF81200ADF8180069
:10281000ADF81A0004AA03210D4808F065FA042255
:1028200003210B4808F083FB60220321084808F0CD
:1028300051FB00220321064808F08CFB044808F0F5
:102840004DFA034808F024FC07B000BD000C01401D
:102850000008004008B50020009040F2036008F036
:10286000F1F8C02303221421094803F0B1FE02F05D
:1028700095FC01200090012269460E2002F0BEFC6A
:102880002C200090012269460F2002F0B7FC08BD01
:10289000000C014010B502F05BFE02F0ABFE02F04E
:1028A00009FF10BD10B540F20E6008F0CBF840F201
:1028B000026008F0C7F840F2117008F0C3F840F267
:1028C000046008F0BFF840F2137008F0BBF808F09D
:1028D000F1FC40F20E6008F0B5F84FF400730322EB
:1028E0001821474803F074FE4FF48063032204214B
:1028F000434803F06DFE434808F060FD4FF4E131BA
:10290000404808F009FD00213E4808F006FE00217D
:102910003C4808F022FE00213A4808F00EFE002153
:10292000384808F0B1FD0021364808F0A3FD082121
:10293000344808F00AFE0421324808F0F6FD314818
:1029400008F084FD40F205312E4808F0B4FD002265
:102950001146252007F054FF4FF480530322102125
:10296000294803F035FE4FF48063032218212648DE
:1029700003F02EFE4FF4006303220421224803F0EB
:1029800027FE0121214803F081FE40F2127008F079
:1029900059F81F4808F012FD4FF416511C4808F072
:1029A000BBFC00211A4808F0B8FD0021184808F0C7
:1029B000D4FD4FF40051164808F0BFFD0021144823
:1029C00008F062FD0021124808F054FD082110486B
:1029D00008F0BBFD04210E4808F0A7FD0C4808F0E4
:1029E00035FD40F205310A4808F065FD022200215C
:1029F000272007F005FF4FF480500349486110BDC0
:102A0000000801400038014000100140100014008F
:102A10000048004070B504460025092C00DD09245B
:102A20005CB902F0D9F8002805DD234800780028B9
:102A300001DD01253DE000253BE020480078A04273
:102A400004D01E48047000201D4908701C480078FE
:102A500020B101280ED0022828D119E01948005DC4
:102A6000194908701948005D194908700120144976
:102A7000087000BF1448007830B101251248007872
:102A8000401E1149087002E002200D4908700FE055
:102A90000F48007830B100250D480078401E0C49E1
:102AA000087002E000200649087001E0002500BF20
:102AB00000BF284670BD00004200002037040020FF
:102AC0003604002022C20008380400202CC200086E
:102AD0003904002070B50246002317E0012011E000
:102AE00052F82060451E52F82550AE4208D2451ECD
:102AF00052F8254052F8206042F8256042F8204004
:102B0000451CE8B28842EBDB5D1CEBB24D1E9D42DA
:102B1000E4DC70BD00BFFEE7014601F00F000A11C2
:102B200002EB820200EB4202D0B2704701460A2259
:102B300091FBF2F2D0B20207100E0A2291FBF2F3DF
:102B400002FB13120244D0B270470000194880689B
:102B500000F0010008B9002070471748006800F431
:102B6000807008B1012000E0002000280ADD124832
:102B7000006800F4006008B1012000E0002008B9FE
:102B80000120E9E70C48006800F4807008B10120DA
:102B900000E0002058B90848006800F4006008B15F
:102BA000012000E00020002801DD0220D4E7002001
:102BB000D2E700000010014008080140002804DDB1
:102BC0004FF40071034A116103E04FF40071014AB0
:102BD00051617047001001400248806800F0010018
:102BE000704700000010014070B5054601212846DD
:102BF00003F0AAFA09480078782801DB00240AE0EB
:102C00006421074803F09CFC0649086008460068F8
:102C100003F084FB0446204670BD00004C040020F5
:102C2000540F00205404002010B5FFF7D5FF30B931
:102C30000020FFF7C3FF00200F4908701AE0FFF7DC
:102C400065FC632806DD0020FFF7B8FF02200A4973
:102C500008700FE0FFF77AFF012805D1FFF7AEFFFC
:102C600001200549087005E00020FFF7A7FF0220BA
:102C70000149087010BD000035040020F0B591B086
:102C800006460F4600250024224601A9024808F006
:102C9000D3FA11B0F0BD00005C04002070470000C2
:102CA00070B5B4B005464FF07E562948407E0028E6
:102CB0002DD0002408E026488068005D00F07F00E9
:102CC00001A90855601C84B22148C08AA042F2DCE8
:102CD0002048214A127800EBC201052201A8FDF725
:102CE000FDFB80B933AA1DA10DF10700FDF7D8FB4C
:102CF0001C49339808601C480078401C1A49087029
:102D000001201A49087000201149C88248760DB97F
:102D100034B070BD1548007850B90F480078401C99
:102D20000D490870084600780A2801DB0020087069
:102D30000848094A127800EBC2010822044808F04A
:102D40007BFA0B480078401C0949087000BFDFE798
:102D5000780800208E000020DE000020524420254C
:102D600066202000600000208D000020DF00002091
:102D70008C00002030B585B004460D46142168460D
:102D8000FDF790FC22460BA16846FDF775FA00237B
:102D90006A461821322001F076FA2A4605A16846D3
:102DA000FDF76AFA00236A465021322001F06BFADF
:102DB00005B030BD256400002DE9F04707460C46FC
:102DC00015461E46DDF82080B8F1640F01DD4FF096
:102DD000640805FB08F0642190FBF1F000F0FF09A6
:102DE00033464A462146384601F0C0F833462A4663
:102DF0002146384601F086F9A0190830C1B20023F7
:102E000007A2384601F09FF9A2190832D1B27A1907
:102E1000203AD0B2002303A201F095F9BDE8F08773
:102E20003025000031303025000000002DE9F04150
:102E300006460F46FFF7D0FE0546074800780A21F0
:102E400090FBF1F0C4B22B4622460021D52000F0C1
:102E50002DFDBDE8F0810000540000202DE9FE4367
:102E600006460C4617469846002500200090019023
:102E70000290652314222146304601F043F900BF39
:102E80000AE004F16400401BC1B200231422304662
:102E900001F082F8681CC5B2BD42F2DB3A4608A1D7
:102EA0006846FDF7E9F904F12802D1B206F11E02E5
:102EB000D0B243466A4601F089F9BDE8FE830000BE
:102EC000256400002DE9FF5F04460D46164699462D
:102ED0004FF0000AD346002003900090019002902A
:102EE0003049304609F068F805D22E49A431304601
:102EF00008F038FE0646304608F09AFD07463A4686
:102F00000B4629A16846FDF7B7F96846FDF712FBA5
:102F1000C0F1060000EB400004EB4000C7B2002304
:102F20006A462946384601F051F9B9F1000F09D037
:102F3000B9F1010F11D0B9F1020F19D0B9F1030F96
:102F40002CD120E005F11802D1B204F11802D0B260
:102F5000002317A201F03AF921E005F11802D1B2DD
:102F600004F11802D0B2002313A201F02FF916E0E9
:102F700005F11802D1B204F11802D0B2002310A258
:102F800001F024F90BE005F11802D1B204F11802A6
:102F9000D0B200230BA201F019F900E000BF00BF7E
:102FA000BDE8FF9F5CFF794425332E3266000000A8
:102FB0007553762F680000006D53762F680000006F
:102FC000755376006D5376002DE9FF5F04460D467C
:102FD00091469A460027BB460026B0460020019045
:102FE000029003904B49484608F0E6FF07D24FF0A5
:102FF00001084849A431484608F0B4FD81464FF025
:103000007E51484608F00CFF009008F0A1FE87B200
:103010004149484608F004FF009008F099FE6421F9
:10302000B0FBF1F201FB120BBAF1000F28D0BAF19C
:10303000010F03D0BAF1020F33D110E0B8F1000F45
:1030400001D136A300E037A31A4605F13C03D9B2FB
:1030500004F14603D8B2002301F0B8F822E0B8F139
:10306000000F01D131A300E032A31A4605F13C0361
:10307000D9B204F14603D8B2002301F0A7F811E059
:10308000B8F1000F01D12DA300E02DA31A4605F1E0
:103090003C03D9B204F14603D8B2002301F096F8FC
:1030A00000E000BF00BF632F01DD002604E0092F10
:1030B00001DD012600E002263A4623A101A8FDF722
:1030C000DBF801A98A190C2101FB0641C8B20023D3
:1030D000294601F0D8F85A461CA101A8FDF7CCF802
:1030E00004F154010C2202FB1611C8B2002301AAFC
:1030F000294601F0C8F805F11002D1B204F14802E6
:103100000C2303FB1622D0B200232E2200F03EFD3A
:10311000BDE8FF9F5CFF79440000C8427553762FDD
:10312000680000006D53762F680000007547792F06
:10313000680000006D47792F68000000637073001D
:103140004B63707300000000253364002530326447
:10315000000000002DE9F04104460F4615461E46CA
:103160004FF000080EB9012100E000210B462A783B
:10317000E0B2394600F078FE07F11002D1B204F156
:103180001802D0B200232E2200F000FD012E01D142
:10319000012100E000210B466A7804F12401C8B245
:1031A000394600F061FE022E01D1012100E000212C
:1031B0000B46AA7804F13C01C8B2394600F054FE2F
:1031C000032E01D1012100E000210B46EA7804F131
:1031D0005401C8B2394600F047FE042E01D1012146
:1031E00000E000210B462A7904F16C01C8B239468F
:1031F00000F03AFE052E01D1012100E000210B462E
:103200006A7904F18401C8B2394600F02DFE062E19
:1032100001D1012100E000210B46AA7904F19C01B3
:10322000C8B2394600F020FE072E01D1012100E08E
:1032300000210B46EA7904F1B401C8B2394600F026
:1032400013FEBDE8F0812DE9F04104460F46154616
:103250001E464FF000080EB9012100E000210B4688
:103260002A78E0B2394600F0FFFD012E01D101219C
:1032700000E000210B466A7804F11801C8B2394613
:1032800000F0F2FD022E01D1012100E000210B46E9
:10329000AA7804F13001C8B2394600F0E5FD07F123
:1032A0001002D1B204F14802D0B200232E2200F065
:1032B0006DFC032E01D1012100E000210B46EA78CC
:1032C00004F15401C8B2394600F0CEFD042E01D1FC
:1032D000012100E000210B462A7904F16C01C8B2FB
:1032E000394600F0C1FDBDE8F0812DE9F04104460A
:1032F0000F4615461E464FF000080EB9012100E0AA
:1033000000210B462A7804F13001C8B2394600F09A
:10331000ABFD07F11002D1B204F14802D0B2002394
:103320002E2200F033FC012E01D1012100E000210A
:103330000B466A7804F15401C8B2394600F094FD96
:10334000022E01D1012100E000210B46AA7804F1F0
:103350006C01C8B2394600F087FDBDE8F08100007D
:103360002DE9F04104460F4616461D464FF0000871
:103370000DB9012100E000210B463278E0B2394658
:1033800000F072FD012D01D1012100E000210B466A
:10339000727804F11801C8B2394600F065FD022DBB
:1033A00001D1012100E000210B46B27804F1300187
:1033B000C8B2394600F058FD07F11002D1B204F14D
:1033C0004802D0B200232E2200F0E0FB032D01D1F1
:1033D000012100E000210B46F27804F15401C8B24B
:1033E000394600F041FD042D01D1012100E000210A
:1033F0000B46327904F16C01C8B2394600F034FD55
:10340000707930B1012814D0022822D0032840D18D
:103410002FE0052D01D1012200E00022134607F123
:103420003C02D1B204F11A02D0B21CA200F011FF8A
:1034300030E0052D01D1012200E00022134607F102
:103440003C02D1B204F11A02D0B216A200F001FF80
:1034500020E0052D01D1012200E00022134607F1F2
:103460003C02D1B204F12402D0B210A200F0F1FE6D
:1034700010E0052D01D1012200E00022134607F1E2
:103480003C02D1B204F12402D0B208A200F0E1FE65
:1034900000E000BF00BFBDE8F08100007553762F4B
:1034A000680000006D53762F6800000075537600A9
:1034B00000B587B000210846FFF7B8FC0020049053
:1034C000059006900290039002A800F0B7FF9DF8C7
:1034D000080000909DF809309DF80A2005A104A875
:1034E000FCF7CAFE002304AA1946184600F02BFE7A
:1034F00007B000BD253032643A253032643A2530B9
:103500003264000070B506460D4614460CB9012120
:1035100000E000210B4606F10C01C8B20FA22946BB
:1035200000F054FE012C01D1012000E000200346F0
:1035300005F12000C1B20AA2304600F047FE022C7D
:1035400001D1012000E00020034605F14000C1B296
:1035500005A2304600F03AFE70BD000063707300B3
:103560007553762F680000007547792F68000000BA
:1035700010B54FF400600B49086000F015F84FF4E7
:1035800080600849091F086000F00EF84FF4806061
:103590000449086000F008F84FF400600149091F71
:1035A000086010BD140C014010B50A2002F0E8FEBE
:1035B00010BD000010B54FF4006009490860FFF726
:1035C000F3FF4FF4806006490860FFF7EDFF4FF40A
:1035D00080600349091D0860FFF7E6FF10BD000089
:1035E000100C014070B50024002518E06006040EA0
:1035F0004FF480600C490860FFF7D6FF0A4808388E
:10360000006800F4006008B1601CC4B24FF4806030
:103610000549091D0860FFF7C7FF681CC5B2082DE2
:10362000E4DB204670BD0000100C014070B504467C
:10363000002524E004F0800020B14FF4006011491F
:10364000086004E04FF400600E49091D0860FFF7B0
:10365000ABFF4FF480600B490860FFF7A5FF4FF404
:1036600080600849091D0860072D02D14000091F2C
:1036700008606006040EFFF797FF681CC5B2082DAE
:10368000D8DB70BD100C014010B54FF400600A4942
:10369000086040100860FFF787FF4FF4006006499C
:1036A000091D0860FFF780FF4FF480600249091D83
:1036B0000860FFF779FF10BD100C014010B54FF402
:1036C0000060074908604010091F0860FFF76CFFA1
:1036D0004FF400600249091F0860FFF765FF10BD45
:1036E000140C014010B54FF400600E490860FFF75C
:1036F0005BFF4FF480600B490860FFF755FF0948F6
:103700000838006800F4006008B1012400E00024DB
:103710004FF480600349091D0860FFF745FF20460C
:1037200010BD0000100C014070B55448006808F04E
:103730002FFB06464FF07E5108F014FA054650481C
:103740004169284608F038FB24D200204D498860A2
:10375000C8604B4A5169506808F02EFC15D24948A0
:103760000069401C4749086108460069052806D9D8
:10377000002008612946434803F067F855E04048B7
:103780004168404803F054F84FE029463D4803F0B3
:103790004FF84AE000203B490861394948683A49F6
:1037A00008F03EFB0646294608F006FB17D200202B
:1037B0003449C86008468068401C886008468068B4
:1037C000052806D90020886029462E4803F03DF8D8
:1037D0002BE02B4841682B4803F02AF825E02849C4
:1037E00048682A4908F01CFB0646294608F0E4FB15
:1037F00017D20020234988600846C068401CC86072
:103800000846C068052806D90020C86029461D481A
:1038100003F01BF809E01A4841681A4803F008F859
:1038200003E02946174803F003F8164802F0AEFEFD
:10383000134948600A46D168506808F0F1FA044616
:103840000F480169204608F0B7FB05D20C48016912
:10385000204608F0E3FB04460948007E012806D113
:103860000B49204608F0DCFA0549886004E004486A
:10387000007E08B10248846070BD00005000002046
:10388000200F00203C0F00206666A63F3333333FF5
:10389000E17A943F10B5044801F0A4F94FF4965131
:1038A0000148FCF7DDFE10BDF81000202DE9FF5F98
:1038B0000646894693464FF0020A1A2748464FEAC1
:1038C000E97109EB5171C1F3C708F019F02801DB68
:1038D000BDE8FF9FBBF10A0F01DD4FF00A0B039813
:1038E000002848D0002443E000251AE0701908EBB6
:1038F0000401C1EB011100EB01102C49085C00210F
:1039000007FB041129442A4A515C0843711908EB4A
:103910000402C2EB021201EB0211244A5054681C4B
:10392000C5B2BD42E2DB00251EE0701D284408EB55
:103930000401C1EB011100EB01101C49085C4FEAC6
:103940000A11102202FB041129441A4A515C08434F
:10395000711D294408EB0402C2EB021201EB0211B3
:10396000124A5054681CC5B2102DDEDB601CC4B274
:103970005445B9DBACE7002414E00AFB07F202FB74
:103980000BF207FB04220A4BD11808EB0402C2EB2E
:10399000021206EB0212054BD0183A46FCF7E9FD7D
:1039A000601CC4B25445E8DB00BF91E7F81000206A
:1039B00094FC000810FF00082DE9F04704460D466E
:1039C0009C4602270823A8464FEAE57905EB59797A
:1039D000C9F3C7060A2A03DA02F1300808F0FF0229
:1039E000002064E0002157E0BCF1000F27D104EB78
:1039F000010806EB0009C9EB091908EB0918DFF803
:103A0000B89019F80890A2F1200807FB03FA08FB08
:103A10000AF803FB00888844DFF8A0A01AF80880A1
:103A200049EA080904EB010806EB000ACAEB0A1A86
:103A300008EB0A18DFF880A00AF8089028E004EBE9
:103A4000010806EB0009C9EB091908EB0918DFF8B2
:103A5000689019F80890A2F1200807FB03FA08FB08
:103A60000AF803FB00888844DFF850A01AF80880A1
:103A700069EA080909F0FF0804EB010906EB000AEE
:103A8000CAEB0A1A09EB0A19DFF82CA00AF8098018
:103A900001F1010808F0FF01994204DA04EB010882
:103AA000B8F1EF0FA0DB00F1010808F0FF00B84209
:103AB00098DBBDE8F0870000F81000205CC2000829
:103AC0002DE9FF4F064688469B464FF0020A102715
:103AD00040464FEAE87108EB5171C1F3C709002570
:103AE0004BE0002442E0BBF1000F1ED1029800F031
:103AF000F9FC0AFB07F1484307FB05002044214974
:103B0000085C311909EB0502C2EB021201EB02114C
:103B10001D4A515C0843311909EB0502C2EB021240
:103B200001EB0211184A50541EE0029800F0DAFC32
:103B30000AFB07F1484307FB050020441149085CD4
:103B4000311909EB0502C2EB021201EB02110E4A18
:103B5000515C61EA0000311909EB0502C2EB021267
:103B600001EB0211084A5054601CC4B2BC4202DA94
:103B70003019EF28B7DB681CC5B25545B1DBBDE88D
:103B8000FF8F000050FF0008F81000202DE9F047DB
:103B900004460D469C4603270C23A8464FEAE579C8
:103BA00005EB5979C9F3C7060A2A03DA02F130088E
:103BB00008F0FF02002064E0002157E0BCF1000F94
:103BC00027D104EB010806EB0009C9EB091908EB42
:103BD0000918DFF8B89019F80890A2F1200807FB3F
:103BE00003FA08FB0AF803FB00888844DFF8A0A06A
:103BF0001AF8088049EA080904EB010806EB000AF4
:103C0000CAEB0A1A08EB0A18DFF880A00AF8089035
:103C100028E004EB010806EB0009C9EB091908EBE1
:103C20000918DFF8689019F80890A2F1200807FB3E
:103C300003FA08FB0AF803FB00888844DFF850A069
:103C40001AF8088069EA080909F0FF0804EB01097D
:103C500006EB000ACAEB0A1A09EB0A19DFF82CA0D6
:103C60000AF8098001F1010808F0FF01994204DA1D
:103C700004EB0108B8F1EF0FA0DB00F1010808F038
:103C8000FF00B84298DBBDE8F0870000F810002084
:103C90004CC800082DE9FF4F064688469B464FF06A
:103CA000030A182740464FEAE87108EB5171C1F347
:103CB000C70900254BE0002442E0BBF1000F1ED1F4
:103CC000029800F0C3FD0AFB07F1484307FB05001B
:103CD00020442149085C311909EB0502C2EB0212AC
:103CE00001EB02111D4A515C0843311909EB050231
:103CF000C2EB021201EB0211184A50541EE0029866
:103D000000F0A4FD0AFB07F1484307FB050020442F
:103D10001149085C311909EB0502C2EB021201EBF3
:103D200002110E4A515C61EA0000311909EB0502EB
:103D3000C2EB021201EB0211084A5054601CC4B2DB
:103D4000BC4202DA3019EF28B7DB681CC5B2554512
:103D5000B1DBBDE8FF8F000090070108F8100020DC
:103D60002DE9F04704460D469C4604271023A8463B
:103D70004FEAE57905EB5979C9F3C7060A2A03DA50
:103D800002F1300808F0FF02002064E0002157E053
:103D9000BCF1000F27D104EB010806EB0009C9EBC9
:103DA000091908EB0918DFF8B89019F80890A2F182
:103DB000200807FB03FA08FB0AF803FB0088884485
:103DC000DFF8A0A01AF8088049EA080904EB010806
:103DD00006EB000ACAEB0A1A08EB0A18DFF880A003
:103DE0000AF8089028E004EB010806EB0009C9EB8B
:103DF000091908EB0918DFF8689019F80890A2F182
:103E0000200807FB03FA08FB0AF803FB0088884434
:103E1000DFF850A01AF8088069EA080909F0FF08DD
:103E200004EB010906EB000ACAEB0A1A09EB0A19AE
:103E3000DFF82CA00AF8098001F1010808F0FF0161
:103E4000994204DA04EB0108B8F1EF0FA0DB00F1AE
:103E5000010808F0FF00B84298DBBDE8F0870000D9
:103E6000F8100020A8D500082DE9F04704460D46BB
:103E70009C4606271823A8464FEAE57905EB5979B1
:103E8000C9F3C706202A00D10B22202A03DDA2F1A4
:103E9000300808F0FF02002060E0002153E0BCF190
:103EA000000F25D104EB010806EB0009C9EB091945
:103EB00008EB0918DFF8AC9019F8089007FB03F835
:103EC00008FB02F803FB00888844DFF89CA01AF87E
:103ED000088049EA080904EB010806EB000ACAEB6E
:103EE0000A1A08EB0A18DFF87CA00AF8089026E006
:103EF00004EB010806EB0009C9EB091908EB0918E6
:103F0000DFF8609019F8089007FB03F808FB02F847
:103F100003FB00888844DFF850A01AF8088069EA9B
:103F2000080909F0FF0804EB010906EB000ACAEBD7
:103F30000A1A09EB0A19DFF82CA00AF8098001F126
:103F4000010808F0FF01994204DA04EB0108B8F116
:103F5000EF0FA4DB00F1010808F0FF00B8429CDB82
:103F6000BDE8F087F810002068ED00082DE9F04169
:103F700007460D4690461E46002408E02819C1B2A7
:103F800000234246384600F007F8601CC4B2B44231
:103F9000F4DBBDE8F08100002DE9F04704461F4640
:103FA0000D464FEAE17801EB5878C8F3C7034FEAB2
:103FB000E17801EB58784FEAE808A1EBC80808F06F
:103FC000FF068D184FEAE57805EB58784FEAE808C8
:103FD000A5EBC80808F0FF0CFFB900201AE025186F
:103FE000C3EB031805EB0815DFF8148118F80580FA
:103FF0000125B54048EA050808F0FF0504EB000874
:10400000C3EB031908EB0918DFF8F49009F808501E
:10401000451CE8B29042E2DB6FE0304617E0C3EBAC
:10402000031504EB0515DFF8D88018F80580012585
:10403000854048EA050808F0FF05C3EB031804EBC8
:104040000818DFF8BC9009F80850451CE8B20828A9
:1040500001DA9042E3DB002017E01D186D1CC5EB70
:10406000051504EB0515DFF8988018F8055045F0A4
:10407000FF081D186D1CC5EB051504EB0515DFF8D1
:10408000809009F80580451CE8B2A2F1080808EB09
:1040900006054FEAE57805EB58784FEAE8088045D1
:1040A00001DD082AD9DC002025E08D184FEAE578EB
:1040B00005EB58784FEAE808C8EB081804EB081835
:1040C000DFF83C9019F808804FF0010909FA00F96F
:1040D00048EA09088D184FEAE57905EB59794FEA66
:1040E000E909C9EB091904EB0919DFF814A00AF86A
:1040F0000980451CE8B26045D7DBBDE8F0870000C9
:10410000F8100020F0B505460E4617461C46002361
:104110003A4631462846FFF73FFF01232246314603
:104120002846FFF739FF3019C1B200233A46284626
:10413000FFF732FF611CCAB2E919C8B20123314648
:10414000FFF72AFFF0BD2DE9F04305460E46144661
:104150001F464FF002094FF0080809E014F8012B40
:104160003B4631462846FFF727FC05EB0800C5B261
:1041700020780028F2D1BDE8F0832DE9F043054610
:104180000F46144698464FF00209102619E0207891
:1041900080280DDA2278434639462846FFF70CFC82
:1041A000641C304606EBD07105EB6101CDB208E02E
:1041B0004346224639462846FFF782FCA41CA8192C
:1041C000C5B220780028E2D1BDE8F0832DE9F043A4
:1041D00005460E4614461F464FF003094FF00C08E3
:1041E00009E014F8012B3B4631462846FFF7CEFC88
:1041F00005EB0800C5B220780028F2D1BDE8F083B5
:104200002DE9F04305460F46144698464FF0030942
:10421000182619E0207880280DDA2278434639469E
:104220002846FFF7B3FC641C304606EBD07105EB63
:104230006101CDB208E04346224639462846FFF7E1
:1042400029FDA41CA819C5B220780028E2D1BDE838
:10425000F0832DE9F04305460E4614461F464FF005
:1042600004094FF0100809E014F8012B3B463146D1
:104270002846FFF775FD05EB0800C5B22078002839
:10428000F2D1BDE8F0832DE9F04305460E46144611
:104290001F464FF006094FF0180809E014F8012BEB
:1042A0003B4631462846FFF7DFFD05EB0800C5B267
:1042B00020780028F2D1BDE8F083000010B501217C
:1042C000064801F013FE00BF0221044801F09EFDE4
:1042D0000028F9D0014801F005FE10BD002401407E
:1042E00001480078704700003504002010B50446EE
:1042F0000449204607F060FE01D2012010BD0020D5
:10430000FCE700005CFF79442DE9F04F8BB00746D5
:104310000D4600200A908046814682461822424976
:1043200004A8FCF76BF941A2D2E900109268CDE92C
:10433000020201910B264049384607F071FD044600
:1043400007F006FD80B20A90BDF81000BDF82810F5
:10435000884204DD9DF804000BB0BDE8F08F701EAC
:1043600004A931F81000BDF82810884203DA701E45
:1043700001A9085CF0E7002450E004A830F814001C
:10438000BDF82810884247DC04A9601C31F81000F1
:10439000BDF8281088423FDB04A9601C31F81000EA
:1043A00031F81410401A1FFA80F804A830F81400ED
:1043B000BDF82810081A1FFA80F9404607F0E8FCFB
:1043C0008346484607F0E4FC5946009007F0CAFBD4
:1043D000824665B94FF07D51504607F0EDFD03D29E
:1043E00001A9601C085CB7E701A8005DB4E74FF0C5
:1043F0007A51504607F0E0FC02D201A8005DABE71D
:104400004FF07D51504607F0D7FD03D201A9601C43
:10441000085CA1E728469FE7601CC4B2701EA0425A
:10442000ABDC002098E700000CC20008000A141E54
:1044300028323C46505A640000007A441CB50446B9
:1044400007226946002000F013FE9DF80000FEF7E9
:1044500063FB20709DF80100FEF75EFB60709DF825
:104460000200FEF759FBA0709DF80400FEF754FB14
:10447000E0709DF80500FEF74FFB20719DF80600E7
:10448000FEF74AFB60719DF80300FEF745FBA07143
:1044900001201CBD10B540F2046006F0D3FA0223DF
:1044A00001220021014802F093F810BD00100140E4
:1044B0003EB50446002000900190029000BF04E049
:1044C0003E210DF80010411CC8B2A04201DA0A28B2
:1044D000F6DB00236A4640213C20FFF777FEFFF71A
:1044E000D9F93EBD10B50146002248780B7840EA64
:1044F00003224CF2CA20131A824271D07ADC4BF6A6
:10450000E213A2EB03009A426CD03ADC4BF2FD338B
:10451000A2EB03009A427DD01CDC4BF2BF23A2EB3E
:1045200003009A4277D00EDCA2F52640A0F1C3002A
:10453000002871D0A0F6F11000286ED0F4286DD0BC
:10454000FF286CD13EE10F286AD0232869D02A28A1
:10455000F7D15DE140F2CB24031BA04273D007DC0E
:10456000A52871D0E92870D0B0F5D47FE9D137E122
:10457000ED2B6BD0B3F5FE7F69D0B3F5447FE0D16E
:104580002CE140F2FB44031BA04276D01ADCB0F5CC
:10459000397F73D00BDCA0F2C51000286FD014282F
:1045A0006ED031286DD0B0F58D7FCAD1C0E0A0F2B9
:1045B000023000286FD018286ED0A0F2CB1000284F
:1045C000BFD1E2E040F20324181BA3427BD00ADCF7
:1045D000CD2B79D0F82B78D0B3F5FF7FB1D1A3E004
:1045E000ADE007E0F0E01A2870D0DF286FD0E128B6
:1045F000A7D1EBE040F61834181BA34269D04CDC7D
:1046000040F20B64A3EB0400A3427BD029DC40F210
:104610002D4407E002E198E084E0C2E0B3E0CCE0A2
:104620000CE199E0A3EB0400A3426DD010DC212B38
:104630006BD0B3F5897F69D0B3F5047F68D0B3F54B
:10464000826F85D1B5E0C5E0E0E0DDE0A5E0EBE01C
:10465000EE286FD0B0F5E07F6DD0B0F5EC7F85D15E
:1046600099E0B0F50A7F67D00CDCA0F2131078B3A4
:10467000C9286ED0CF2898D17BE07EE056E080E05C
:10468000E0E08CE0B0F57A7F70D0A0F2D340D0B3F8
:104690000B288AD168E093E085E040F2E154031BE7
:1046A000A0426CD01FDC40F2EB24A0EB0403A0423C
:1046B0006FD00FDCD9286DD0A0F2D31038B3B0F58D
:1046C000887F8BD14CE095E086E0A9E04FE034E0B4
:1046D0003DE038E0112B6ED0E22B6DD0A3F2272302
:1046E000002B6AD161E040F21534181BA3426FD051
:1046F0000FDCA3F2F223002B6BD00E2B2AD01B2B46
:104700005BD197E053E029E072E091E08EE029E090
:1047100017E0D22870D0FB286FD0A0F6F840002810
:104720004BD16DE0002010BD0120FCE70220FAE72C
:104730000320F8E770E02AE01DE00420F3E70520FD
:10474000F1E70620EFE70720EDE70820EBE7092077
:10475000E9E733E00A20E6E70B20E4E70C20E2E794
:104760000D20E0E70E20DEE70F20DCE73CE0102024
:10477000D9E71120D7E71220D5E71320D3E714207B
:10478000D1E71520CFE71620CDE71720CBE718207B
:10479000C9E72BE026E01920C5E71A20C3E71B2054
:1047A000C1E71C20BFE71D20BDE71E20BBE71F207F
:1047B000B9E72020B7E735E02CE045E02120B2E75B
:1047C0002220B0E72320AEE72420ACE72520AAE78B
:1047D00014E017E02620A6E72720A4E72820A2E778
:1047E0002920A0E72A209EE72B209CE72C209AE78F
:1047F0002D2098E72E2096E722E01DE02F2092E75B
:10480000302090E731208EE732208CE733208AE792
:10481000342088E7352086E7362084E7372082E792
:10482000382080E739207EE73A207CE73B207AE792
:104830003C2078E73D2076E73E2074E73F2072E792
:10484000402070E741206EE700206CE710B501467C
:10485000002248780B7840EA03224CF2DB03D01A9E
:104860009A427DD062DC4BF2C863A2EB03009A420D
:1048700077D034DC4BF2BF23A2EB03009A4271D015
:1048800019DC4BF2B313A2EB03009A426BD00DDCA0
:10489000A2F52340A0F1BF00002874D0B0F5417FFD
:1048A00072D0A0F6275000286FD102E10B286DD0FE
:1048B0002D28F9D1F9E040F2E314031BA0426ED099
:1048C00006DCA0F20D1000286AD03128ECD1C8E037
:1048D000442B77D0A3F20313002BE5D1B0E040F2D4
:1048E0003154031BA0426ED013DC40F21A34A0EB0B
:1048F0000403A04268D006DCED2877D0A0F2172090
:104900000028D1D1E9E0E32B71D0B3F5FB7FCBD107
:1049100094E0C82B7ED004DC012B6AD0BD2BC3D120
:10492000DDE0CD2B74D0EB2BBED18FE040F6D71459
:10493000031BA04269D034DC40F20A74A0EB0403EC
:10494000A0426FD017DCB0F5047F6CD00CDCE428FB
:1049500062D0E62869D0A0F2EF100028A4D15DE073
:1049600054E08EE087E076E0A0F2013000286FD0BE
:10497000FE280AD17BE0EA2B5CD008DC062B69D04C
:10498000D22B02D154E098E03CE073E083E0B3F531
:10499000837F6ED0A3F20323002B6BD17DE064E014
:1049A00089E040F20354181BA3427CD013DCB3F51A
:1049B0004C7F62D009DC322B68D0A3F20133002B8C
:1049C00058D16EE04FE086E047E0A3F209435BB3C5
:1049D000E72B4FD15DE0B0F5E06F27D00ADCB0F5F2
:1049E000887F54D0B0F5477F7BD168E024E05EE05B
:1049F00010E048E0A0F20E7058B3A0F60D50002869
:104A00006FD10DE0002010BD02E01DE00120FAE7AB
:104A10000220F8E70320F6E70420F4E70520F2E798
:104A20000620F0E71BE054E00CE028E00720EAE76E
:104A30000820E8E70920E6E70A20E4E70B20E2E7A0
:104A40000C20E0E70D20DEE70E20DCE70F20DAE7A0
:104A50003DE024E035E01020D5E71120D3E7122017
:104A6000D1E71320CFE71420CDE71520CBE71620A0
:104A7000C9E72AE035E01720C5E71820C3E7192069
:104A8000C1E71A20BFE71B20BDE70CE01BE01C209C
:104A9000B9E71D20B7E71E20B5E71F20B3E72020A8
:104AA000B1E72120AFE72220ADE72320ABE72420A8
:104AB000A9E72520A7E72620A5E72720A3E72820A8
:104AC000A1E729209FE72A209DE72B209BE72C20A8
:104AD00099E72D2097E72E2095E72F2093E73020A8
:104AE00091E700208FE700BFFEE7000030B58DB0F2
:104AF000302101A8FBF7D6FD0024304800680C21C6
:104B0000B0FBF1F201FB12012D482E4A126840F869
:104B100021202A480068401C28490860002007E03E
:104B2000274951F8201001AA42F82010411CC8B2B0
:104B30000C28F5DB0C2101A8FDF7CCFF05980444F7
:104B4000069804440798044408980444A4081D489F
:104B500000681D4908601D480460204607F018F9E8
:104B600005464FF07E5106F0FDFF194908601548D3
:104B70000068FEF739F8164948600A46D16950685E
:104B800007F04EF9124988604868124906F0EAFFBA
:104B900005460F48C168284606F076FF0C49C860F4
:104BA00088680C4906F0DEFF054609480169284679
:104BB00006F06AFF064908610DB030BD040400200C
:104BC000A00C00204C0000202C0400203004002009
:104BD0000C04002000006145014800787047000087
:104BE0001000002070B5054613230022EF21104667
:104BF00000F02CF95C21002000F04CF9002405E0C5
:104C0000295D012000F046F9601C84B2B4F5965F7E
:104C1000F6DB70BD10B501F081FD01F0AFFD00F0D5
:104C2000FDF83021002000F035F96E21002000F061
:104C300031F93121002000F02DF9D721002000F0BA
:104C400029F99F21012000F025F9E021002000F042
:104C500021F90021012000F01DF9142000F0D2F804
:104C6000E321002000F016F9142000F0CBF8E12138
:104C7000002000F00FF93021002000F00BF9942102
:104C8000002000F007F9AE21002000F003F93220E7
:104C900000F0B8F82021002000F0FCF80B210120E2
:104CA00000F0F8F80C21002000F0F4F88121002039
:104CB00000F0F0F81421012000F0ECF805210120AB
:104CC00000F0E8F83121002000F0E4F83221002063
:104CD00000F0E0F80021012000F0DCF80121084696
:104CE00000F0D8F80221012000F0D4F85121002072
:104CF00000F0D0F8FB21012000F0CCF8302100209A
:104D000000F0C8F8F021002000F0C4F810210120C4
:104D100000F0C0F8CA21002000F0BCF800210120FA
:104D200000F0B8F89F21012000F0B4F80021012024
:104D300000F0B0F83121002000F0ACF8F2210020A2
:104D400000F0A8F81E21012000F0A4F8282101207D
:104D500000F0A0F83221012000F09CF8F0210020A2
:104D600000F098F81621012000F094F81621012097
:104D700000F090F81621012000F08CF81621012097
:104D800000F088F83021002000F084F8BC210020D9
:104D900000F080F80021012000F07CF8A62100201E
:104DA00000F078F83121002000F074F84021002054
:104DB00000F070F8002000F008F8AF21002000F0AB
:104DC00069F8642000F01EF810BD70B505460DB1FD
:104DD000FF2000E00020064613230022EF211046AA
:104DE00000F034F85C21002000F054F8002405E0C5
:104DF0003146012000F04EF8601C84B2B4F5965F95
:104E0000F6DB70BD4FF47A7200FB02F100E000BFE8
:104E10000A1EA1F10101FAD17047000000B520205F
:104E2000094908601420FFF7EDFF202006490860BB
:104E30001420FFF7E7FF20200349091F0860C8205E
:104E4000FFF7E0FF00BD0000140C01402DE9F04128
:104E500004460F4615461E463021002000F01AF881
:104E60001521002000F016F82146012000F012F86C
:104E70003946012000F00EF87521002000F00AF8F4
:104E80002946012000F006F83146012000F002F822
:104E9000BDE8F08170B505460C461DB940200949B2
:104EA000086003E040200749091F086010200549F9
:104EB0000860204605F088FE10200249091F08609E
:104EC00070BD00001408014000F0010119B1082173
:104ED0000E4A516102E008210C4A116100F0020102
:104EE00021B14FF48041094A516103E04FF4804100
:104EF000064A116100F0040119B10421034A51610D
:104F000002E00421014A11617047000000100140D5
:104F100010B50246002116480078401C144B18704A
:104F200012BBFFF7DDF9022802D141F002011DE0BA
:104F3000FFF7D6F901280BD10D480078142390FB18
:104F4000F3F403FB14000A2810DA41F002010DE02B
:104F500007480078142390FBF3F403FB14000A289D
:104F600004DA41F0010101E041F00401084610BDFE
:104F70003A04002000BFFEE77047000010B500288B
:104F800007DA0A07140E054A00F00F031B1FD4545A
:104F900003E00A07130E024A135410BD18ED00E097
:104FA00000E400E04FF40050014948617047000000
:104FB000001001401048006810490968C1EB014128
:104FC00008440F4908604FF08040406A0D49096865
:104FD000C1EB014108440C49086000200749086002
:104FE00008490860054908600649086002490860E8
:104FF0000907486270470000242C01400800002087
:105000004C0000200C0000205000002010B5802033
:105010000949086000F012F840200749091F08609C
:1050200000F00CF840200449086000F007F88020E8
:105030000149091F086010BD140C014010B504207F
:1050400001F09EF910BD000010B5802007490860EE
:10505000FFF7F4FF402005490860FFF7EFFF40200D
:105060000249091D0860FFF7E9FF10BD100C01405F
:1050700070B506460C46154600F078F8642000F03E
:105080004BF800F09DF800B121E03107080E00F068
:1050900043F800F095F800B119E000F067F86520DA
:1050A00000F03AF800F08CF800B110E009E000F0F0
:1050B00011F804F8010B15B1FFF7A8FF01E0FFF7A5
:1050C000C3FF281EA5F10101CDB2F0D100BF00F051
:1050D00065F870BD70B50024002516E06006040E6A
:1050E00040200C490860FFF7A9FF0A48083800680B
:1050F00000F0800008B1601CC4B240200549091DC1
:105100000860FFF79BFF681CC5B2082DE6DB204650
:1051100070BD0000100C014070B50446002520E071
:1051200004F0800018B180200F49086003E080205F
:105130000D49091D0860FFF781FF40200A490860FA
:10514000FFF77CFF40200849091D0860072D02D1A8
:105150008020091F08606006040EFFF76FFF681CBF
:10516000C5B2082DDCDB70BD100C014010B58020ED
:105170000949086040200860FFF760FF8020064969
:10518000091D0860FFF75AFF40200349091D086008
:10519000FFF754FF10BD0000100C014010B5802037
:1051A000064908604020091F0860FFF747FF80207C
:1051B0000249091F0860FFF741FF10BD140C0140B0
:1051C00010B580200C490860FFF738FF40200A49DD
:1051D0000860FFF733FF08480838006800F08000D7
:1051E00008B1012400E0002440200349091D0860A3
:1051F000FFF724FF204610BD100C014070B5054696
:105200000C461646FFF7B2FF6420FFF785FFFFF755
:10521000D7FF00B116E02907080EFFF77DFFFFF763
:10522000CFFF00B10EE007E014F8010BFFF774FFA9
:10523000FFF7C6FF00B105E0301EA6F10101CEB2B6
:10524000F2D100BFFFF7AAFF70BD000000B591B01A
:105250005F480F905F480E9001200D9020225E491C
:1052600005A8FBF7CBF95C482030006804905B4848
:1052700003905B48029000200190009001221146AB
:1052800010A805F00FFC9DF84000A52807D032209B
:1052900001F06AF80122114610A805F003FC9DF800
:1052A0004000A52838D0A52010900122114610A852
:1052B00006F05BF904220A2104A806F056F904223C
:1052C000142103A806F051F90422182102A806F0BF
:1052D0004CF92022282105A806F047F901221E21B9
:1052E0000DA806F042F90122502101A806F03DF96F
:1052F0001C225A213B4806F038F904225A210EA8F4
:1053000006F033F904225E210FA806F02EF90422DC
:105310007821684605F0C6FB322001F025F804220A
:105320000A21314805F0BEFB042214212F4805F064
:10533000B9FB042218212E4805F0B4FB20222821B5
:105340002C4805F0AFFB01221E212B4805F0AAFBDB
:1053500001225021294805F0A5FB04225A212148A9
:105360000C3005F09FFB04225E211E48143005F02E
:1053700099FB04227821224805F094FB002019496A
:10538000486088600861012008760020194908609B
:10539000486088601A480078092802DD0020184912
:1053A000087017484078092802DD00201449487029
:1053B00013488078092802DD0020114988701048C0
:1053C000C078092802DD00200D49C87011B000BD69
:1053D0000000FA43F0A22F3A38C200080000204033
:1053E00000004842200F00204200002064000020FE
:1053F000680000200C0400206C0000205C000020ED
:105400004600002000EB80025100014A1160704705
:10541000400800401CB504462078FDF787FB8DF856
:1054200000006078FDF782FB8DF80100A078FDF7A1
:105430007DFB8DF80200032269460020FFF7DEFEA7
:10544000052000F091FFE078FDF770FB8DF8040077
:105450002079FDF76BFB8DF805006079FDF766FBA1
:105460008DF80600032201A90420FFF7C7FE0120E2
:105470001CBD10B505F02AFC10BD000008B5304871
:10548000006840F001002E49086000BF2C48006809
:1054900000F002000128F9D000BF2948406840F020
:1054A0008000274948600020009002E00098401CDE
:1054B000009000985028F9D32148406840F09000AF
:1054C0001F4948600020009002E00098401C0090B6
:1054D00000985028F9D300BF1948406820F0030015
:1054E0001749486008460068164908401449086092
:1054F0000846406814490840114948600846006859
:10550000104908400E4908600846006820F48020D1
:105510000860084640680D49084009494860084647
:10552000006808490840064908604FF41F00886079
:1055300005F0C8FB00214FF0006005F0C1F908BD7F
:1055400000100240FFFFF6FE0C00FFE8FFFF00F72F
:105550001FB54FF4C06005F075FA40F20B6005F01E
:1055600071FA4FF4805303220421204801F030F8EF
:105570001F4805F01FFD0020ADF80000ADF8020047
:10558000ADF804004FF6FF7002900020ADF80C005B
:105590008DF80E006946164805F0A2FD70211448EA
:1055A00005F00EFE0721124805F032FE00231A46D0
:1055B00019460F4805F071FD80210D4805F01BFECE
:1055C00000210B4805F0F3FC0121094805F004FE19
:1055D000002211461A2005F013F90121044805F0B4
:1055E000F7FD034805F054FD1FBD00000008014011
:1055F000002C01401FB540F2026005F023FA4FF481
:10560000C06005F01FFA4FF4E06005F01BFA0123BB
:1056100003224821264800F0DBFF4FF0804005F0D0
:10562000C9FC684605F0FCFD0020ADF80000ADF8AF
:105630000200ADF804004FF6FF7002900020ADF8B4
:105640000C008DF80E0069464FF0804005F048FDD3
:1056500007214FF0804005F0DBFD70214FF08040C6
:1056600005F0AEFD00231A4619464FF0804005F0C4
:1056700014FD8021C80505F0BEFD00214FF08040DB
:1056800005F095FC0121880705F0A6FD012188079A
:1056900005F09EFD4FF0804005F0FAFC4FF4C0602D
:1056A00005F004F9002211461C2005F0A9F81FBDE1
:1056B000000801401FB540F2047005F0C3F9154819
:1056C00005F078FC6B20ADF800000020ADF802007A
:1056D000ADF8040040F2E73002900020ADF80C0075
:1056E0008DF80E0069460B4805F0FAFC094805F0F4
:1056F000F5FA0121074805F0EFFC0121054805F006
:1057000067FD044805F0C4FC01220021362005F0A5
:1057100077F81FBD0010004010B50121064805F0C4
:105720005EFD40B10121044805F056FD03480068C4
:10573000401C0249086010BD002C014008000020F8
:1057400010B50121880705F04AFD40B10121880705
:1057500005F042FD02480068401C0149086010BD88
:105760000C00002010B50121064805F038FD40B1BD
:105770000121044805F030FD03480068401C02493F
:10578000086010BD001000400400002070B5054600
:10579000002400F03DFC04461CB13C4840783C49E4
:1057A000088045B13A480088002804DD3848008860
:1057B000401E37490880092C4ED2DFE804F04D0521
:1057C0000E172029323B440032483349097800EB58
:1057D00001104078304908703FE02E482E49097882
:1057E00000EB011080782C49087036E029482A49DE
:1057F000097800EB0110C078274908702DE0254892
:105800002549097800EB011000792349087024E04C
:1058100020482149097800EB011040791E490870A1
:105820001BE01C481C49097800EB011080791A49DB
:10583000087012E017481849097800EB0110C07988
:105840001549087009E013481349097800EB011065
:10585000007A1149087000E000BF00BF0E480078D0
:105860000F2803D00A490878FFF7CCFD09480A4AF7
:10587000127800EB0210C16820468847FEF70AF84C
:10588000054800780549087070BD000042000020FE
:10589000E2000020E4000020E0000020E100002001
:1058A00010B500241E480078D8B901201C490870A2
:1058B000FCF72CFE1B490870FCF728FE19494870BC
:1058C000FCF724FE17498870FCF720FE1549C870C4
:1058D000FCF71CFE13490871FCF718FE11494871CA
:1058E0001DE0FCF713FE10490978062291FBF2F344
:1058F00002FB13110B4A50540B480078401C0A4914
:105900000870002004E00749095C0C44411CC8B23F
:105910000628F8DB0620B4FBF0F00449087010BD3F
:10592000420400203B0400204104002054000020D9
:1059300010B504462046FDF7B3F90648407E40B155
:10594000044AD18A9068FDF799F900200149C8827C
:10595000487610BD5C04002010B5FFF72BFBFFF765
:10596000C5F8FDF7E1FE10BD10B50348007800F062
:10597000CDFB00F055FD10BD5C0000202DE9F0418D
:1059800000240025002600271749486817490968A0
:1059900006F0E8F8804606F0DBF9C6B21249C8689E
:1059A0001349096806F0DEF8804606F0D1F9C7B25F
:1059B000BE4201DD304600E038460E490870084618
:1059C0000078FDF727F804462046FCF703FE094857
:1059D0000078FFF79DFA05462846FFF775FAFDF7B0
:1059E00023F9BDE8F08100000C04002064000020D1
:1059F000680000203404002001480068704700005F
:105A00000400002010B5024800F004F810BD0000AA
:105A10007808002070B504463149206805F061FD22
:105A2000E0B1206805F0C0FCC5B2E08AE189884297
:105A300005DAE18AA0684554E08A401CE0822849E2
:105A4000206805F045FD40F20531206805F033FD82
:105A50004FF44171206805F02EFD00BF21492068F8
:105A600005F03FFDC0B1208AA18A88420ADB40F2DE
:105A70000731206805F012FD40F20631206805F07C
:105A80001AFD2CE0238A6268D15C206805F091FC45
:105A9000208A401C208222E01349206805F021FD65
:105AA00068B100202082A08220760F49206805F08E
:105AB0000FFD40F20631206805F0F0FC0FE00B49C5
:105AC000206805F00EFD50B101206076074920687E
:105AD00005F0FEFC4FF44171206805F0DFFC70BD5D
