:020000040800F2
:10000000583100202D02000859330008C12F000884
:10001000553300089D1B00081D3D0008000000002E
:100020000000000000000000000000003F02000887
:10003000A51C00080000000043020008A9360008C3
:10004000470200084702000847020008470200086C
:10005000470200084702000847020008470200085C
:10006000470200084702000847020008470200084C
:10007000470200084702000847020008470200083C
:10008000470200084702000847020008470200082C
:10009000470200084702000847020008470200081C
:1000A00047020008393900084702000847020008E3
:1000B00061390008470200084702000847020008AB
:1000C00047020008470200084702000847020008EC
:1000D00047020008ED3C0008FD3C00080D3D00080B
:1000E00047020008470200084702000847020008CC
:1000F00047020008470200084702000847020008BC
:1001000047020008470200084702000847020008AB
:10011000013C000847020008853900084702000832
:10012000470200084702000847020008470200088B
:1001300000F002F800F06AF80AA090E8000C82448F
:100140008344AAF10107DA4501D100F05FF8AFF26C
:10015000090EBAE80F0013F0010F18BFFB1A43F0A5
:100160000103184724AE000044AE00000A444FF0DB
:10017000000C10F8013B13F0070408BF10F8014B06
:100180001D1108BF10F8015B641E05D010F8016B4B
:10019000641E01F8016BF9D113F0080F1EBF10F8AF
:1001A000014BAD1C0C1B09D16D1E58BF01F801CBD2
:1001B000FAD505E014F8016B01F8016B6D1EF9D555
:1001C0009142D6D37047000000230024002500266A
:1001D000103A28BF78C1FBD8520728BF30C148BFAA
:1001E0000B607047662906F0D885642900F07A8094
:1001F000002070471FB500F0B5FC0400002000216E
:1002000005F0EAFFE0601FBD10B510BD00F0AAFDCB
:100210001146FFF7EFFF04F06FF800F0C8FD03B4DC
:10022000FFF7F2FF03BC00F00BFE00000948804717
:1002300009480047FEE7FEE7FEE7FEE7FEE7FEE7C8
:10024000FEE7FEE7FEE7FEE704480549054A064BE0
:1002500070470000B136000831010008582700201F
:1002600058310020582B0020582B00200FB41CB50B
:10027000074B06AA7B4469460090059800F001FCF4
:100280000020694600F010FC1CBC5DF814FB000067
:100290003108000070B5044685690068C10601D5C3
:1002A000302600E02026C00707D070BDD4E9012128
:1002B00030469047206A401C20626D1EF6D570BD06
:1002C00070B5044685690078C00707D170BDD4E9D0
:1002D000012120209047206A401C20626D1EF6D527
:1002E00070BD00002DE9F041064600241068752914
:1002F000314616A510D0AFF30080002802DA404244
:1003000013A507E031688A0701D512A502E0490765
:1003100004D511A5012401E0AFF3008000210A22D9
:1003200006F1240709E0B0FBF2FCB0FBF2F302FB9C
:100330001C00303078541846491C0028F3D123465D
:100340002A463046BDE8F04100F02DB9000000001B
:100350002D0000002B000000200000002DE9F05FC0
:10036000894604464FF0000ADFF824B1FB44C0F888
:1003700020A02046E168884700287DD0252806D0A7
:10038000D4E901219047206A401C2062F1E7002552
:100390005F462046E16888472028064607DB312E65
:1003A00005D2B81910F8200C08B10543F1E7A807E9
:1003B00001D525F00405C4F81CA00027C4F818A036
:1003C0002A2E09D0304603F0BFFC38B304EB87086F
:1003D000303EC8F8186019E059F8041B204604EBB9
:1003E00087029161E1688847012F064618D1E069CC
:1003F000002820DA25F020051DE0D8F8180000EBD1
:10040000800006EB40003038C8F818002046E1684C
:100410008847064603F098FC0028EED1012F0AD049
:100420002E2E08D12046E16888477F1C0646022F01
:1004300045F02005C4DBA069002803DA404245F0FE
:100440000105A061E80701D025F01005A6B1A6F1CD
:100450004100192802D8203645F400654A46314645
:10046000204625604D46FFF7BDFE60B1012807D04C
:10047000ED1D25F0070000E007E000F1080978E72E
:1004800005F1040975E730467AE7206ABDE8F09F78
:1004900072AB000010B5431C02E010F8011B71B1F3
:1004A0008107FAD14FF0013202C88C1A8C4314EA4A
:1004B000C211F9D0C01A0A0603D0C01E10BDC01A5E
:1004C00010BD0A0401D0801E10BD0902FCD0401EE0
:1004D00010BD032A40F2308010F0030C00F01580AC
:1004E00011F8013BBCF1020F624498BF11F801CB37
:1004F00000F8013B38BF11F8013BA2F1040298BF9C
:1005000000F801CB38BF00F8013B11F0030300F005
:10051000D082083AC0F0088051F8043B083A51F8FC
:1005200004CBA0E80810F5E7121D5CBF51F8043BAE
:1005300040F8043BAFF30080D20724BF11F8013B21
:1005400011F801CB48BF11F8012B24BF00F8013B83
:1005500000F801CB48BF00F8012B70474FF00002B4
:100560000429C0F0128010F0030C00F0D682CCF108
:10057000040CBCF1020F18BF00F8012BA8BF20F833
:10058000022BA1EB0C0100F0C8BA5FEAC17C24BFCA
:1005900000F8012B00F8012B48BF00F8012B704731
:1005A0007047704770472DE9F0470D4699469246CF
:1005B000044600F124080168880604D5E06921F0AA
:1005C0001001216000E00120A84201DD471B00E08E
:1005D0000027A1697A1902EB0900081AA0612078A6
:1005E000C00602D42046FFF755FE002608E0D4E9F5
:1005F00001211AF806009047206A401C761C2062F0
:100600004E45F4DB2078C0060AD52046FFF742FEAF
:1006100006E0D4E9012130209047206A401C206286
:10062000381EA7F10107F4DC07E0D4E9012118F82E
:1006300005009047206A401C2062281EA5F1010594
:10064000F3DC2046FFF73CFE2078000602D50220AE
:10065000BDE8F0870120FBE770472DE9FF4F0C460E
:100660001E464FF0FF378BB0D2E90001DDF8608005
:100670000A908A46C1F30A5505B93D46002108464D
:100680004FF00000BAF1000F00F4400005DA00EB73
:1006900080004FF4400101EA50004FEA9059B9F14F
:1006A000010F00DDB9460A9850EA4A000ED044F620
:1006B0001050A5F2FF3545432F14B8F1000F1ED09E
:1006C0007542291E1EDDC9F100021CE0B8F1010FC0
:1006D0004FF0000001D0302103E0F24305E0215447
:1006E000401CB042FBDB30460022002121540B9914
:1006F000C1F80880C1E900200FB0BDE8F08FBD1B34
:100700006D1CDEE74A4600DA694206A800F0B4FA3A
:1007100006AB93E8070003AB83E8070050460A994D
:1007200000F095FB8DE80700A0F500501F38009001
:100730000398002D0ADD42F21F014A4608440023B7
:1007400003A90390684600F0FEFD09E0A0F5005003
:100750004A461F38002303A90390684600F008FEAC
:100760008DE807000004000C03D04FF0FF30410873
:1007700000E01046B8F1000F03D0002200921546A9
:100780001EE0751E05D400F0F1F9303262556D1E81
:10079000F9D5B3460122084302D000227F1C04E0B1
:1007A0002078302801D100227F1E002A099784D0AA
:1007B0001DE0112D07DA00F0D9F9303262556D1CB9
:1007C00050EA0102F5D1084302D00098C8B10EE00A
:1007D0000021681E05E0235C625C63542254401EC5
:1007E000491C8142F7DBAB46A81B401E0990002044
:1007F00004F80B000B98099AC0F80880C0E9002B98
:100800007AE711264FF0000857E72DE9F04F8846A8
:100810000446D21D22F0070191B0D1E90001CDE9D3
:100820000A0103F07DFA02460B98C00F01D02D207B
:1008300007E02068810701D52B2002E0202101EA92
:10084000C000032A099001D0072A05DB0346414670
:10085000204600F0D1F90BE12078800601D5E0694F
:1008600000E00620B8F1650F814606D0B8F1660FAA
:1008700018D0B8F1670F70D131E00020B9F1110F35
:10088000009001DB112301E009F101030AAA01A98B
:100890000CA8FFF7E2FEDDE90C70002609F1010566
:1008A000834647E001204B4600904FF000470AAADC
:1008B00001A90CA8FFF7D1FEDDE90DB00C995D464A
:1008C000002610B909F101000D18B9EB050003D499
:1008D000C0F1FF3609F10105A5EB09002BE0B9F1E4
:1008E000010F01DA4FF001090020B9F1110F00905A
:1008F000484601DD112300E003460AAA01A90CA81D
:10090000FFF7ABFEDDE90C704D46002683462078EC
:1009100000070AD4AB4500DA5D4601A8012D04DDCD
:10092000411911F8011C302907D04F4502DA17F19F
:10093000040F04DA012082460FE06D1EEEE7002F5F
:1009400002DCED1B3E4403E0781CA84200DD7D1C68
:10095000B81B00F1010A4FF000472078000703D4CC
:10096000AA4501DB4FF0FF3A0021B7F1004F0DF12E
:1009700043088DF8431024D002202B23002F01DAE6
:100980007F422D230A21021EA0F1010000DC5FB18D
:1009900097FBF1FC97FBF1F201FB1C7C17460CF175
:1009A000300C08F801CDEEE7A8F1010003702188B2
:1009B000090501D5452100E06521A0F1010800F8F5
:1009C000011C09980FA9A1EB0807FF1D00B1012028
:1009D000411901EBEA70A1693844081A401EA06170
:1009E0002078C00602D42046FFF754FC099828B1AD
:1009F000D4E901219047206A401C20622078C0067B
:100A000022D52046FFF746FC1EE0002E04DBB3454E
:100A100002DD01A8805D00E03020D4E9012190478B
:100A2000206A401C2062761CAAF101005FEA000ADD
:100A30000AD100F097F8C0680168405CD4E9012150
:100A40009047206A401C2062281EA5F10105DCDCCD
:100A500007E0D4E9012118F8010B9047206A401CF7
:100A60002062381EA7F10107F3DC2046FFF728FCBF
:100A7000032011B041E6000001694A1C02610878B8
:100A8000704700B58FB0CDE90131002105910549CE
:100A90007944CDE9031011466846FFF75FFC0FB0BB
:100AA00000BD0000E5FFFFFF0A6802F8010B0A60C5
:100AB000704710B5203AC0F00B80B1E81850203ACA
:100AC000A0E81850B1E81850A0E81850BFF4F5AFEE
:100AD0005FEA027C24BFB1E81850A0E8185044BF78
:100AE00018C918C0BDE810405FEA827C24BF51F8E5
:100AF000043B40F8043B08BF7047D20728BF31F8D9
:100B0000023B48BF11F8012B28BF20F8023B48BF29
:100B100000F8012B70474FF0000200B513469446D1
:100B20009646203922BFA0E80C50A0E80C50B1F145
:100B30002001BFF4F7AF090728BFA0E80C5048BF59
:100B40000CC05DF804EB890028BF40F8042B08BFF7
:100B5000704748BF20F8022B11F0804F18BF00F8F3
:100B6000012B7047004870471427002030B5B0F1C2
:100B70000A024FEA900E71F100034EEA817EB0EB5B
:100B80000E0061EB91014FEA101E4EEA017E10EB60
:100B90000E0041EB11114FEA102E4EEA016E10EBE0
:100BA0000E0041EB11214FEA104E4EEA014E10EBC0
:100BB0000E0041EB1141401841F100014FEAD00015
:100BC00040EA41704FEAD10110EB80054FEA810401
:100BD00044EA907444EB01046D1944EB0404521B85
:100BE000A3414FF0000348BF0A3200D530BD401C7E
:100BF00041F1000130BD00002DE9F0411F460446DF
:100C000003260168072A01F4006004DB08B116A579
:100C100005E016A503E008B115A500E015A521F033
:100C200010002060A069C01EA0610FB1401EA0612D
:100C30002046FFF72FFB4FB1D4E9012138469047FA
:100C4000206A401C2062C01C206206E0206AFAE78D
:100C5000D4E9012115F8010B9047761EF8D2204601
:100C6000FFF72EFBBDE8F0814E414E006E616E0035
:100C7000494E4600696E66002DE9F04781461646EA
:100C80008AB0354878440DC88DE80D003248784464
:100C9000801C03AC0DC884E80D0041F69B3008446D
:100CA000372190FBF1F290FBF1F5A5F1800501FBF6
:100CB00012041B3C02D56442012000E00020DFF852
:100CC00098A080460027FA44AAF1BE0A0EE0E00789
:100CD0000AD03246684607EB470101230AEB81013F
:100CE00000F046FB8DE8070064107F1C002CEED15D
:100CF000194F7F44AE3F19E0E80715D007EB041009
:100D00000DF1180A90E80E008AE80E00C068F04263
:100D100001D1981908903246012306A903A800F0D2
:100D200027FB03AB83E807006D10641C002DE3D1A3
:100D30004FF0010332466946B8F1000F03A802D014
:100D400000F001FB01E000F013FBC9E90001C9F864
:100D500008200AB0BDE8F087E8A20000004870470C
:100D6000F42600207546FFF7F9FFAE4605006946F8
:100D7000534620F00700854618B020B5FFF764FA07
:100D8000BDE820404FF000064FF000074FF000088C
:100D90004FF0000B21F00701AC46ACE8C009ACE80D
:100DA000C009ACE8C009ACE8C0098D46704710B571
:100DB0000446AFF300802046BDE81040FFF72FBA8D
:100DC0004FF0013C50F8042B51F8043B9A4221D1DA
:100DD000A2EB0C03934313EACC1317D150F8042B66
:100DE00051F8043B9A4215D1A2EB0C03934313EA4A
:100DF000CC130BD150F8042B51F8043B9A4209D183
:100E0000A2EB0C03934313EACC13DBD04FF00000AA
:100E1000704700BFD01A01BAB1FA81F101F0180190
:100E200022FA01F0CB40C1F12001DBB2C0B2C01AFE
:100E30002CFA01F3D11A914311EAC311E6D170479C
:100E400001491820ABBEFEE72600020070475FEAAA
:100E5000400C08BF91F0000F4FEA8C234FEAC122EB
:100E600043EA51514FEA1C5018BF00F5F0404FEAD9
:100E7000300018BF41F000415FEA6C5C00F029804F
:100E8000BCF1FF3F08BF40F080407047130C06BF25
:100E900012044FF0100C4FF0000C130E04BF12029E
:100EA0000CF1080C130F04BF12010CF1040C930F8A
:100EB00004BF92000CF1020CD30F04BF52000CF1DE
:100EC000010C11464FF00002A0F11F00A0EB0C0036
:100ED000704711F0004F08BF704731F000413FF4F8
:100EE000D5AF0B0C06BF09044FF0100C4FF0000CEF
:100EF0000B0E04BF09020CF1080C0B0F04BF090113
:100F00000CF1040C8B0F04BF89000CF1020CCB0F09
:100F100004BF49000CF1010CCCF12003A0EB0C0044
:100F200022FA03F302FA0CF241EA030100F1010094
:100F3000704720F07F4C80EA030023F07F47ACEB42
:100F4000070303F57C5300F0004003F1FF032DE994
:100F500080494FEA154B09B44FEA144325EA0B4E7A
:100F600024EA03480FF2042606EB132749083E78CB
:100F70005FEA320203FB0667C7F5000707FB06F6C8
:100F80004FEA54374FEAD64606F1020607FB066CD5
:100F9000CCF1005C4FEA1C472CEA074C07FB06F437
:100FA0000CFB06F504EB15464FEA961634BF0020FD
:100FB0004FF000404FEAD13706FB07FC4FEA1C4CCC
:100FC0000CFB0BF7D21B03FB0CF761EB07010CFBCF
:100FD0000EF7B0EB074072EB17420CFB08F734BF7B
:100FE000A2EB0742B2EB074261EB17414FEA0C4418
:100FF0004FEA910706FB07FC4FEA1C4C0CFB0BF772
:10100000B0EBC74072EB573203FB0CF734BFA2EBD7
:10101000C742B2EBC74261EB57310CFB0EF7B0EBA6
:10102000C70072EB57720CFB08F734BFA2EBC70284
:10103000B2EBC70261EB5771039F4FEA816141EA4E
:10104000921104EBCC044FEAD1374FEA826206FBDF
:1010500007FC42EA90124FEA80604FEA1C4C0CFBFE
:101060000BF7D21B03FB0CF761EB07010CFB0EF730
:10107000B0EB074072EB17420CFB08F734BFA2EB52
:101080000742B2EB074261EB17414FEA8C554FEA3A
:10109000910704EB9C2406FB07FC4FEA1C4C0CFB5D
:1010A0000BF7B0EBC74072EB573203FB0CF734BFC2
:1010B000A2EBC742B2EBC74261EB57310CFB0EF714
:1010C000B0EBC70072EB57720CFB08F734BFA2EB12
:1010D000C702B2EBC70261EB577115EB4C254FEA23
:1010E000816141EA92114FEA82624FEAD13742EAC6
:1010F000901206FB07FC44F100044FEA80604FEABF
:101100001C4C0CFB0BF7D21B03FB0CF761EB07012C
:101110000CFB0EF7B0EB074072EB17420CFB08F725
:1011200034BFA2EB0742B2EB074261EB174115EB6C
:101130001C154FEA813141EA92414FEA823242EA7C
:1011400090424FEA80304FEA0C7644F1000448EABE
:1011500003434EEA0B484FF0000EB2EB080C71EB64
:10116000030724BF624639464EEB0E0E4FF0000BCC
:101170000018524149414BEB0B0BB2EB080C71EBE1
:1011800003077BF1000B24BF624639464EEB0E0E7F
:101190004FF0000B0018524149414BEB0B0BB2EBE7
:1011A000080C71EB03077BF1000B24BF6246394644
:1011B0004EEB0E0E51EA020718BF46F0010616EB81
:1011C0000E7655F1000254F1000103D5BDE8890106
:1011D000BDE80088BDE88901BDE80048B619524164
:1011E00041EB0101A3F10103704780807F7E7D7C8C
:1011F0007B7A7978777676757473727171706F6EA9
:101200006E6D6C6C6B6A6A69686867666665646453
:10121000636362616160605F5F5E5E5D5D5C5C5BDD
:101220005B5A5A595958585757565655555554544C
:10123000535352525251515050504F4F4F4E4E4DAA
:101240004D4D4C4C4C4B4B4B4A4A4A4949494848F6
:101250004847474747464646454545444444444336
:1012600043434342424242414141002B9C4630D4D9
:1012700077002BD01CB54FEA370703B44FF01000AE
:101280004FF01001BAF1000F06D0BCF1000FDCBF27
:1012900040F0080040F008014FF000000FBCBDE82E
:1012A00010400BF1010BBBF1010F08BF5FEA1707FC
:1012B00022BF12F1010211F101014FF0004143F18F
:1012C000000300F0004043EA00007047F9D35708DC
:1012D000D0E746EA064613F1400F4FEA16461FDDF7
:1012E00013F1200FDFBF16430A46002120335B4273
:1012F000BED0C3F1200746EA064602FA07F74FEAD6
:10130000164646EA0706C3F1200722FA03F201FA5D
:1013100007F721FA03F14FF0000342EA0702A7E7BB
:1013200046EA020646EA06464FEA164646EA01063D
:10133000BCBF46EA0646360C4FF000034FF00002F1
:101340004FF0000194E72DE9804C9A46934670B423
:1013500091E8380007C831EA400C48BF34EA430C32
:1013600003D5FFF7E6FDFFF780FFF0BCBDE8008C7A
:101370002DE9804C9A46934670B491E8380007C82E
:1013800010F0804F08BF13F0804F03D100F005F834
:10139000FFF76BFFF0BCBDE8008C20F07F4780EAD0
:1013A000030023F07F4C07EB0C03A3F57C5300F004
:1013B0000040A3F1FE0392F0000F00F0B38095F01F
:1013C000000F00F077802DE901494FEA11404FEA04
:1013D000144621EA004800FB06FC24EA064708FB05
:1013E00006F607FB08F800FB07F718EB06484CEB7E
:1013F000164C4FEA124B18EB07484FEA15464CEBD8
:10140000174022EA0B4E0BFB06FC25EA06470EFBB3
:1014100006F607FB0EFE0BFB07F71EEB064E4CEB2A
:10142000164C4FF000061EEB074E4CEB174B18EB1B
:101430000B0840F1000018EB0E0B58EB000840F1D0
:1014400000008F1A4FF000013CBFC943661B14BF58
:10145000B5EB040C00213CBFC943F61B4FEA17440F
:101460004EEA8E0E27EA04454FEA1C4704FB07624A
:101470002CEA074C05FB07F70CFB05F604FB0CFCFC
:1014800016EB074642EB174216EB0C4642EB1C42AA
:101490001BEB060658EB0202414146EA9E0601D5C7
:1014A000BDE80189B619524141EB0101A3F10103E5
:1014B000BDE801894FEA14454FEA114724EA054681
:1014C00021EA074C05FB07F406FB07F70CFB06F1C6
:1014D00005FB0CFC11EB074144EB17444FEA1247A4
:1014E00011EB0C4144EB1C4422EA074C05FB07F2CC
:1014F00006FB07F70CFB06F605FB0CFC16EB074694
:1015000042EB174216EB0C4642EB1C456A1854F1AD
:10151000000148BF7047B619524141EB0101A3F1E8
:101520000103704795F0000F37D04FEA11424FEAA0
:10153000144721EA024624EA074C02FB07F106FBA6
:1015400007F70CFB06F402FB0CFC14EB074441EB21
:1015500017414FEA154714EB0C4441EB1C4125EAB7
:10156000074C02FB07F506FB07F70CFB06F602FB30
:101570000CFC16EB074645EB174516EB0C4645EB06
:101580001C42121951F1000148BF7047B61952416F
:1015900041EB0101A3F1010370474FEA14454FEA03
:1015A000114724EA054621EA074C05FB07F106FB33
:1015B00007F70CFB06F24FF0000605FB0CFC12EBE4
:1015C000074241EB174112EB0C4251EB1C4148BF63
:1015D0007047921841EB0101A3F10103704700002D
:1015E0002DE9F84F4FF0000BDA4601F023FB009095
:1015F000009805F08DFA0546114905F0A7F9044653
:10160000104905F0CDFA8346584605F067F9804643
:101610004FF066320C4B05F077F806460B4A0C4B40
:1016200004F098FE044604F0EDFF00F0FF0ABAF162
:10163000640F01DD4FF0640A5046BDE8F88F0000EA
:1016400000F07F45333353406666F63F6866666652
:101650006666E63F10B540F2046004F00FF840F211
:10166000096004F00BF8022003F052FF1A4802F060
:10167000B5FB002002F026FC00220221164802F0F1
:1016800098FC00224FF48071134802F092FC002174
:10169000114802F098FB012211460F4802F070FB3E
:1016A00007230B2200210C4802F01AFC4FF46022A1
:1016B0000121094802F0E6FB01221146064802F02A
:1016C000C2FB054802F0B6FB012002F00DFD024806
:1016D00002F041FB10BD000000240140002804DDA1
:1016E0004FF40041034A116103E04FF40041014A05
:1016F000516170470010014010B501F0EDFAFFF79D
:10170000A9FF10BD10B540F2036003F0B7FF4FF41E
:10171000406303221421034802F040FD00F012FF51
:1017200010BD0000000C014010B540F2026003F053
:10173000A5FF40F2036003F0A1FF40F2046003F054
:101740009DFF40F2056003F099FF4FF40053032220
:101750001021344802F022FD0423032210213148D5
:1017600002F01CFD4FF48043032210212D4802F0AB
:1017700015FD0823032210212A4802F00FFD4FF423
:10178000004303221021274802F008FD4FF40073A4
:1017900003221021234802F001FD0123032204212A
:1017A000204802F0FBFC4FF48073032204211E4802
:1017B00002F0F4FC4FF40063032204211A4802F003
:1017C000EDFC022303220421174802F0E7FC17482E
:1017D000006800F0040008B1012000E000200128AA
:1017E00003D1642002F080FC10E004E0601CC4B26D
:1017F0000A2002F079FC0D48006800F0040008B1EE
:10180000012000E0002008B9962CEFDB4FF40050D7
:101810000449086104200861000308610820086188
:1018200010BD0000001001400008014008140140F4
:1018300010B5FFF779FFFFF765FFFFF75DFF00F0D9
:101840000FF800F035F800F08BF800F0A9F800F080
:10185000AFF8322001F020FF01F0CCFB10BD0000FA
:1018600010B540F2036003F009FF40F2056003F099
:1018700005FF0E494B6803220868042102F08EFC24
:101880000A49CB6803228868042102F087FC0749D3
:101890004B6903220869042102F080FC0349CB69EB
:1018A00003228869042102F079FC10BD1800002091
:1018B00000B587B040F2027003F0E0FE40F2036032
:1018C00003F0DCFE4FF4007303221821224802F0DB
:1018D00065FC224804F08AF93520ADF800000020AC
:1018E000ADF80200ADF8040040F2E73002900020AD
:1018F000ADF80C008DF80E006946184804F00CFA9B
:101900000020ADF814000120ADF810000020ADF863
:101910001600ADF81200ADF81800ADF81A0004AAD0
:1019200003210E4803F0FCFF40F2F31203210B48A1
:1019300004F019F960220321084804F0E7F80022B6
:101940000321064804F022F9044803F0E3FF0348AA
:1019500004F0BAF907B000BD000C014000080040D7
:1019600008B50020009040F2036003F087FEC0231A
:1019700003221421094802F011FC01F0D3FD0120DB
:101980000090012269460E2001F0FCFD2C20009001
:10199000012269460F2001F0F5FD08BD000C014051
:1019A00010B501F0EFFE01F03FFF01F093FF10BD15
:1019B00010B540F2026003F061FE40F2117003F0D6
:1019C0005DFE40F2046003F059FE40F2137003F034
:1019D00055FE04F041FA40F20E6003F04FFE4FF462
:1019E000007303221821434802F0D8FB4FF48063B0
:1019F000032204213F4802F0D1FB3F4804F0E0FA03
:101A00004FF4E1313C4804F089FA00213A4804F0EF
:101A100077FB0021384804F093FB0021364804F09E
:101A20007FFB0021344804F022FB0021324804F0FF
:101A300014FB0821304804F07BFB04212E4804F0FD
:101A400067FB2D4804F004FB40F205312A4804F0FE
:101A500025FB00221146252003F0EEFC4FF48053B5
:101A600003221021254802F099FB4FF480630322E2
:101A70001821224802F092FB4FF400630322042154
:101A80001E4802F08BFB1E4804F09AFA4FF41651E0
:101A90001B4804F043FA0021194804F031FB0021EF
:101AA000174804F04DFB0021154804F039FB0021D4
:101AB000134804F0DCFA0021114804F0CEFA0821A2
:101AC0000F4804F035FB04210D4804F021FB0C48BD
:101AD00004F0BEFA40F20531094804F0DFFA0322AF
:101AE0000021342003F0A8FC4FF4805003494861E2
:101AF00010BD000000080140003801400010014006
:101B0000004C0040014600201E4A12788A4204D050
:101B10001C4A117000221C4B1A701B4A127822B109
:101B2000012A0ED0022A28D119E0184A525C184B1B
:101B30001A70184A525C184B1A700122124B1A7014
:101B400000BF134A127832B10120114A1278521E96
:101B50000F4B1A7002E002220B4B1A700FE00E4A74
:101B6000127832B100200C4A1278521E0A4B1A70B9
:101B700002E00022044B1A7001E0002000BF00BF09
:101B800070470000E7010020E60100209E6D00087C
:101B9000E8010020A86D0008E901002000BFFEE771
:101BA000014601F00F000A1102EB820200EB420233
:101BB000D0B270471948806800F0010008B90020D1
:101BC00070471748006800F4807008B1012000E0F9
:101BD000002000280ADD1248006800F4006008B107
:101BE000012000E0002008B90120E9E70C48006866
:101BF00000F4807008B1012000E0002058B90848C6
:101C0000006800F4006008B1012000E00020002816
:101C100001DD0220D4E70020D2E7000000100140DF
:101C200008080140002804DD4FF40071034A1161E7
:101C300003E04FF40071014A516170470010014008
:101C40000248806800F00100704700000010014069
:101C500010B5FFF7F5FF30B90020FFF7E3FF0020D4
:101C60000F4908701AE0FFF7BBFC632806DD00206F
:101C7000FFF7D8FF02200A4908700FE0FFF79AFF2C
:101C8000012805D1FFF7CEFF01200549087005E0C6
:101C90000020FFF7C7FF02200149087010BD0000B7
:101CA000E5010020704770B504460D46FFF7C8FFF8
:101CB000064632462946204600F012FE70BD00005E
:101CC000FEB505460E4600200090019002900B489C
:101CD00000780A2190FBF1F0C4B222460021D52001
:101CE00000F072FC0548027805A16846FEF7BEFACE
:101CF0006A460021B52000F018FFFEBD4800002014
:101D00002533642525000000FEB506460C4617461F
:101D100000250020009001900290652314222146A6
:101D2000304600F0E1FE00BF0AE004F16400401B11
:101D3000C1B200231422304600F020FE681CC5B258
:101D4000BD42F2DB3A4607A16846FEF78FFA04F17E
:101D50002802D1B206F11E02D0B26A4600F0FBFEA4
:101D6000FEBD0000253364002DE9FF5F04460D46EB
:101D7000164699464FF0000AD34600200390009083
:101D8000019002902E49304604F0D6FF05D22C492E
:101D9000A431304604F0DAFD0646304604F09EFDDC
:101DA00007463A460B4627A16846FEF75FFA6846A3
:101DB000FEF770FBC0F1060000EB400004EB4000B2
:101DC000C7B26A462946384600F0C5FEB9F1000F91
:101DD00009D0B9F1010F10D0B9F1020F17D0B9F144
:101DE000030F28D11DE005F11802D1B204F1180249
:101DF000D0B216A200F0AFFE1EE005F11802D1B27B
:101E000004F11802D0B213A200F0A5FE14E005F10F
:101E10001802D1B204F11802D0B210A200F09BFE59
:101E20000AE005F11802D1B204F11802D0B20CA2F6
:101E300000F091FE00E000BF00BFBDE8FF9F000082
:101E40005CFF794425332E32660000007553762FEF
:101E5000680000006D53762F68000000755376000F
:101E60006D5376002DE9FE4F04460D469046994687
:101E70000027BA46002600200090019002904549B4
:101E8000404604F059FF05D24249A431404604F0CF
:101E90005DFD80464FF07E51404604F081FE834652
:101EA00004F016FE87B23C49404604F079FE8346B2
:101EB00004F00EFE6421B0FBF1F201FB120AB9F14D
:101EC000000F09D0B9F1010F10D0B9F1020F17D0EE
:101ED000B9F1030F28D11DE005F13C02D1B204F1A4
:101EE0004602D0B22DA200F036FE1EE005F13C0203
:101EF000D1B204F14602D0B22AA200F02CFE14E0C6
:101F000005F13C02D1B204F15E02D0B227A200F08A
:101F100022FE0AE005F13C02D1B204F15E02D0B229
:101F200023A200F018FE00E000BF00BF632F01DD18
:101F3000002604E0092F01DD012600E002263A46D2
:101F40001CA16846FEF792F90DEB06020C2101FB7D
:101F50000641C8B2294600F02AFE524616A168463C
:101F6000FEF784F904F154010C2202FB1611C8B2E9
:101F70006A46294600F01BFE05F11002D1B204F1B9
:101F800048020C2303FB1622D0B22E2200F0C4FB21
:101F9000BDE8FE8F5CFF79440000C8427553762F80
:101FA000680000006D53762F6800000075537600BE
:101FB0006D53760025336400253032640000000044
:101FC0002DE9F04105460C46164600BF04F10A0211
:101FD000D1B22A1DD0B20023982200F0CFFC221DDE
:101FE000D1B22A1DD0B201230E2200F0C7FC221D5F
:101FF000D1B205F12A02D0B201230E2200F0BEFCBC
:10200000221DD1B205F15002D0B201230E2200F000
:10201000B5FC221DD1B205F17602D0B201230E2209
:1020200000F0ACFC221DD1B205F19C02D0B201231C
:102030000E2200F0A3FC04F10A02D1B205F117024E
:10204000D0B20123042200F099FC04F10A02D1B2BB
:1020500005F13D02D0B20123042200F08FFC04F10F
:102060000A02D1B205F16302D0B20123042200F0CA
:1020700085FC04F10A02D1B205F18902D0B2012334
:10208000042200F07BFC04F11800C1B231A2284602
:1020900000F04BFD04F11802D1B205F11E02D0B2DE
:1020A0002DA200F042FD04F11802D1B205F1400268
:1020B000D0B22AA200F039FD04F11802D1B205F124
:1020C0006A02D0B226A200F030FD04F11802D1B2AB
:1020D00005F18402D0B223A200F027FD42F2107075
:1020E000864200DD06460A2E06DA262070430A21C3
:1020F00090FBF1F0C7B223E0642E09DAA6F10A00E2
:1021000026214843642190FBF1F02630C7B217E046
:10211000B6F57A7F0ADAA6F16400262148434FF427
:102120007A7190FBF1F04C30C7B209E0A6F57A70F5
:102130002621484342F2107190FBF1F07230C7B291
:10214000621DD1B22A1DD0B205233A4600F000FC30
:10215000BDE8F08130000000313000003130300047
:10216000314B000031304B002DE9F04104460D4663
:1021700016461F464FF000083278E0B2294600F0BC
:1021800075FB727804F11801C8B2294600F06EFBA5
:10219000B27804F13001C8B2294600F067FB05F1BE
:1021A0001002D1B204F14802D0B22E2200F0B4FAEB
:1021B000F27804F15401C8B2294600F057FB327995
:1021C00004F16C01C8B2294600F050FB707930B1BF
:1021D000012810D002281AD0032830D123E005F1BD
:1021E0003C02D1B204F11A02D0B242A200F0C9FC02
:1021F0004FF01A0824E005F13C02D1B204F11A02B2
:10220000D0B23EA200F0BDFC4FF01A0818E005F174
:102210003C02D1B204F12402D0B23AA200F0B1FCE7
:102220004FF024080CE005F13C02D1B204F1240285
:10223000D0B234A200F0A5FC4FF0240800E000BFAB
:1022400000BF062F52D2DFE807F0030C17222D380B
:1022500005F13000C1B200231822204600F08EFBA9
:1022600045E005F13002D1B204F11802D0B20023EA
:10227000182200F083FB3AE005F13002D1B204F1FC
:102280003002D0B20023182200F078FB2FE005F1D5
:102290003002D1B204F15402D0B20023182200F06F
:1022A0006DFB24E005F13002D1B204F16C02D0B232
:1022B0000023182200F062FB19E0B8F11A0F0AD1CE
:1022C00005F15C02D1B204EB0802D0B20023502227
:1022D00000F054FB09E005F15C02D1B204EB080206
:1022E000D0B20023302200F049FB00E000BF00BF65
:1022F000BDE8F0817553762F680000006D53762F8E
:10230000680000007553760000B587B000210846CC
:10231000FFF7D6FC0021A420FFF7C5FC00200490A5
:10232000059006900290039002A800F0A9FC9DF889
:10233000080000909DF809309DF80A2005A104A826
:10234000FDF794FF04AA0021084600F0EEFB07B059
:1023500000BD0000253032643A253032643A253021
:102360003264000070B505460C46164626B1012EB3
:102370000BD0022E1DD112E0621ED1B26A1ED0B265
:102380001A233E2200F0B0FB14E004F11F02D1B288
:102390006A1ED0B21A233E2200F0A6FB0AE004F126
:1023A0003F02D1B26A1ED0B21A233E2200F09CFB3B
:1023B00000E000BF00BF05F10C01C8B209A2214630
:1023C00000F0C9FB04F12000C1B207A2284600F0CA
:1023D000C2FB04F14000C1B205A2284600F0BBFBDD
:1023E00070BD0000637073007553762F68000000A5
:1023F0007547792F6800000010B54FF400600B4955
:10240000086000F015F84FF480600849091F086063
:1024100000F00EF84FF480600449086000F008F8FE
:102420004FF400600149091F086010BD140C014001
:1024300010B50A2001F064FE10BD000010B54FF485
:10244000006009490860FFF7F3FF4FF48060064918
:102450000860FFF7EDFF4FF480600349091D086035
:10246000FFF7E6FF10BD0000100C014070B500241E
:10247000002518E06006040E4FF480600C490860E7
:10248000FFF7D6FF0A480838006800F4006008B17A
:10249000601CC4B24FF480600549091D0860FFF755
:1024A000C7FF681CC5B2082DE4DB204670BD0000E4
:1024B000100C014070B50446002524E004F08000B3
:1024C00020B14FF400601149086004E04FF400604F
:1024D0000E49091D0860FFF7ABFF4FF480600B4900
:1024E0000860FFF7A5FF4FF480600849091D0860E8
:1024F000072D02D14000091F08606006040EFFF797
:1025000097FF681CC5B2082DD8DB70BD100C0140C8
:1025100010B54FF400600A49086040100860FFF7EA
:1025200087FF4FF400600649091D0860FFF780FF30
:102530004FF480600249091D0860FFF779FF10BD64
:10254000100C014010B54FF40060074908604010BE
:10255000091F0860FFF76CFF4FF400600249091F74
:102560000860FFF765FF10BD140C014010B54FF473
:1025700000600E490860FFF75BFF4FF480600B4975
:102580000860FFF755FF09480838006800F400604C
:1025900008B1012400E000244FF480600349091DC4
:1025A0000860FFF745FF204610BD0000100C0140F9
:1025B00010B5044800F006FD4FF496510148FDF7B0
:1025C000CDFF10BD341400202DE9F04707460D461D
:1025D00090464FF002091A262846E91705EB51717B
:1025E000C1F3C70AB8F10A0F01DD4FF00A08B819A4
:1025F000F02801DBBDE8F087002414E009FB06F2B7
:1026000002FB08F206FB0422094BD1180AEB040274
:10261000C2EB021207EB0212064BD0183246FDF74E
:1026200058FF601CC4B24C45E8DB00BFE2E7000085
:102630007E9F0008341400202DE9F04780460D46A7
:1026400016464FF0020908272846E91705EB517195
:10265000C1F3C70A08EB0700F02801DBBDE8F087EB
:102660000A2E02DA06F13000C6B2002415E0A6F107
:10267000200209FB07F35A4307FB0422094BD11838
:102680000AEB0402C2EB021208EB0212064BD0184E
:102690003A46FDF71EFF601CC4B24C45E7DB00BFA5
:1026A000DCE70000B26D0008341400202DE9F05F73
:1026B00007460D4690464FF0020910262846E917B6
:1026C00005EB5171C1F3C70AB819F02801DBBDE869
:1026D000F09F002418E0404600F025FB09FB06F1BE
:1026E000484306FB04000A4900EB010B0AEB040116
:1026F000C1EB011107EB0111064A88183246594611
:10270000FDF7E7FE601CC4B24C45E4DB00BFDEE72A
:102710003AA20008341400202DE9F04780460D4607
:1027200016464FF003090C272846E91705EB5171AF
:10273000C1F3C70A08EB0700F02801DBBDE8F0870A
:102740000A2E02DA06F13000C6B2002415E0A6F126
:10275000200209FB07F35A4307FB0422094BD11857
:102760000AEB0402C2EB021208EB0212064BD0186D
:102770003A46FDF7AEFE601CC4B24C45E7DB00BF35
:10278000DCE70000A2730008341400202DE9F05F9C
:1027900007460D4690464FF0030918262846E917CC
:1027A00005EB5171C1F3C70AB819F02801DBBDE888
:1027B000F09F002418E0404600F0F1FA09FB06F112
:1027C000484306FB04000A4900EB010B0AEB040135
:1027D000C1EB011107EB0111064A88183246594630
:1027E000FDF777FE601CC4B24C45E4DB00BFDEE7BA
:1027F0005AA30008341400202DE9F04780460D4606
:1028000016464FF0040910272846E91705EB5171C9
:10281000C1F3C70A08EB0700F02801DBBDE8F08729
:102820000A2E02DA06F13000C6B2002415E0A6F145
:10283000200209FB07F35A4307FB0422094BD11876
:102840000AEB0402C2EB021208EB0212064BD0188C
:102850003A46FDF73EFE601CC4B24C45E7DB00BFC4
:10286000DCE70000FE800008341400202DE9F0476A
:1028700080460E4614464FF0060918273046F117D9
:1028800006EB5171C1F3C70A08EB0700F02801DB22
:10289000BDE8F087202C00D10B24202C02DDA4F110
:1028A0003000C4B2002513E009FB07F2624307FBC6
:1028B0000522094BD1180AEB0502C2EB021208EB04
:1028C0000212064BD0183A46FDF703FE681CC5B24B
:1028D0004D45E9DB00BFDBE7BE980008341400205B
:1028E0002DE9F04707460D4690464FF002091026A5
:1028F0002846E91705EB5171C1F3C70AB8F1010F7A
:1029000001DD4FF00108B819F02801DBBDE8F087C0
:10291000002414E009FB06F202FB08F206FB042285
:10292000094BD1180AEB0402C2EB021207EB0212A8
:10293000064BD0183246FDF7CCFD601CC4B24C45A6
:10294000E8DB00BFE2E70000FAA100083414002031
:102950002DE9F04107460D4690461E46002408E04A
:102960002819C1B200234246384600F007F8601C1F
:10297000C4B2B442F4DBBDE8F08100002DE9F047B9
:1029800004461F460D464FEAE17801EB5878C8F33C
:10299000C7034FEAE17801EB58784FEAE808A1EB6A
:1029A000C80808F0FF068D184FEAE57805EB58785F
:1029B0004FEAE808A5EBC80808F0FF0CFFB90020B3
:1029C0001AE02518C3EB031805EB0815DFF814818E
:1029D00018F805800125B54048EA050808F0FF050C
:1029E00004EB0008C3EB031908EB0918DFF8F490B7
:1029F00009F80850451CE8B29042E2DB6FE030462F
:102A000017E0C3EB031504EB0515DFF8D88018F8C1
:102A100005800125854048EA050808F0FF05C3EB5D
:102A2000031804EB0818DFF8BC9009F80850451C9F
:102A3000E8B2082801DA9042E3DB002017E01D1815
:102A40006D1CC5EB051504EB0515DFF8988018F82B
:102A5000055045F0FF081D186D1CC5EB051504EB6E
:102A60000515DFF8809009F80580451CE8B2A2F151
:102A7000080808EB06054FEAE57805EB58784FEAB9
:102A8000E808804501DD082AD9DC002025E08D1802
:102A90004FEAE57805EB58784FEAE808C8EB0818E4
:102AA00004EB0818DFF83C9019F808804FF0010992
:102AB00009FA00F948EA09088D184FEAE57905EBAB
:102AC00059794FEAE909C9EB091904EB0919DFF84B
:102AD00014A00AF80980451CE8B26045D7DBBDE8C0
:102AE000F087000034140020F0B505460E46174666
:102AF0001C4600233A4631462846FFF73FFF012394
:102B0000224631462846FFF739FF3019C1B200236B
:102B10003A462846FFF732FF611CCAB2E919C8B22B
:102B200001233146FFF72AFFF0BD2DE9F0410546AC
:102B30000E4614464FF00208082707E014F8012B50
:102B400031462846FFF778FDE819C5B220780028FD
:102B5000F4D1BDE8F0812DE9F04105460E4614465A
:102B60004FF003080C2707E014F8012B31462846E4
:102B7000FFF7D2FDE819C5B220780028F4D1BDE8EE
:102B8000F0812DE9F04105460E4614464FF0040849
:102B9000102707E014F8012B31462846FFF72CFEDA
:102BA000E819C5B220780028F4D1BDE8F0812DE9FC
:102BB000F04105460E4614464FF00608182707E078
:102BC00014F8012B31462846FFF750FEE819C5B22C
:102BD00020780028F4D1BDE8F0812DE9F0410546C8
:102BE0000E4614464FF00208102707E022463146F1
:102BF0002846FFF75BFDA41CE819C5B22078002821
:102C0000F4D1BDE8F0812DE9F04105460E461446A9
:102C10004FF00308182707E0224631462846FFF701
:102C2000B5FDA41CE819C5B220780028F4D1BDE890
:102C3000F081000010B50121064801F0ABF900BF9A
:102C40000221044801F036F90028F9D0014801F0CA
:102C50009DF910BD00240140014800787047000034
:102C6000E501002010B504460449204604F064F84C
:102C700001D2012010BD0020FCE700005CFF794478
:102C80001CB5044607226946002000F0B5FB9DF8FC
:102C90000000FEF785FF20709DF80100FEF780FF21
:102CA00060709DF80200FEF77BFFA0709DF80400A5
:102CB000FEF776FFE0709DF80500FEF771FF2071CA
:102CC0009DF80600FEF76CFF60719DF80300FEF7AB
:102CD00067FFA07101201CBD10B540F2046002F036
:102CE000CDFC022301220021014801F057FA10BD5A
:102CF000001001403EB50446002000900190029073
:102D000000BF04E03E210DF80010411CC8B2A042F3
:102D100001DA0A28F6DB6A4640213C20FFF71BFF58
:102D2000FFF746FC3EBD10B50146002248780B78FF
:102D300040EA032210464CF2DB04131BA2421CD0D3
:102D40000DDCA0F52640A0F1C300A0B1A0F6FC3038
:102D500008B3A0F60220A0B105281ED10FE0E42B95
:102D600011D0A3F2EF1080B1B0F5047F0FD0A0F620
:102D7000183090B90DE0002010BD0120FCE70220C2
:102D8000FAE70320F8E70420F6E70520F4E7062039
:102D9000F2E70720F0E70820EEE70020ECE710B5A7
:102DA0000146002248780B7840EA03224BF6E443C0
:102DB000D01A9A426FD04CDC4BF2E643A2EB0300F0
:102DC0009A426AD028DC4BF2E013A2EB03009A424D
:102DD0006FD015DC4BF2E603A2EB03009A4269D0F8
:102DE00009DCA2F52340A0F1BF00002874D0B0F5A3
:102DF000417F72D189E0CD2870D0D828F9D1C7E0C1
:102E0000DF286DD0B0F5F67F6BD0A0F21D20002832
:102E100069D0A528EDD1A8E040F2DF54031BA04201
:102E200070D00CDCBF286ED0B0F5F17F6CD0A0F272
:102E3000CF2078B3A0F22D200028DAD18DE0A3F2C4
:102E400013134BB3222B70D0E92B64D0EE2BD0D1CF
:102E50005FE041F2CF04031BA04268D02BDC40F6B8
:102E60000134A0EB0403A04279D017DC40F2DD442A
:102E7000A0EB0403A04268D005DCA0F2F73070B3E9
:102E8000E4282AD149E0A3F209135BB3B3F5047F28
:102E900023D16CE050E05CE050E064E0D22B47D0FE
:102EA000EA2B47D0A3F20323002B73D0CA2B14D1F3
:102EB0004DE077E07AE040F21234181BA34262D072
:102EC00012DC2F2B57D0B3F5847F3BD0A3F2EF1346
:102ED00063B3132B72D163E06CE06FE03BE016E06C
:102EE00047E065E01BE03CE0B0F5037F64D0B0F55F
:102EF000BE6F18D0A0F2FE5040B3A0F60D500028CF
:102F00005CD10EE050E01BE039E0002010BD012054
:102F1000FCE70220FAE70320F8E70420F6E70520A3
:102F2000F4E70620F2E70720F0E72AE02DE035E09D
:102F30000820EBE70920E9E70A20E7E70B20E5E7AF
:102F40000C20E3E70D20E1E709E016E024E00E2085
:102F5000DCE70F20DAE71020D8E71120D6E71220AF
:102F6000D4E71320D2E71420D0E71520CEE71620AF
:102F7000CCE71720CAE71820C8E71920C6E71A20AF
:102F8000C4E71B20C2E71C20C0E71D20BEE701E00C
:102F90001E20BBE71F20B9E72020B7E72120B5E7B7
:102FA0002220B3E72320B1E72420AFE72520ADE7B7
:102FB0002620ABE72720A9E72820A7E70020A5E7E0
:102FC00000BFFEE770B5054613230022EF2110462F
:102FD00000F02CF95C21002000F04CF9002405E001
:102FE000295D012000F046F9601C84B2B4F5965FBB
:102FF000F6DB70BD10B501F02FF901F05DF900F0BE
:10300000FDF83021002000F035F96E21002000F09D
:1030100031F93121002000F02DF9D721002000F0F6
:1030200029F99F21012000F025F9E021002000F07E
:1030300021F90021012000F01DF9142000F0D2F840
:10304000E321002000F016F9142000F0CBF8E12174
:10305000002000F00FF93021002000F00BF994213E
:10306000002000F007F9AE21002000F003F9322023
:1030700000F0B8F82021002000F0FCF80B2101201E
:1030800000F0F8F80C21002000F0F4F88121002075
:1030900000F0F0F81421012000F0ECF805210120E7
:1030A00000F0E8F83121002000F0E4F8322100209F
:1030B00000F0E0F80021012000F0DCF801210846D2
:1030C00000F0D8F80221012000F0D4F851210020AE
:1030D00000F0D0F8FB21012000F0CCF830210020D6
:1030E00000F0C8F8F021002000F0C4F81021012001
:1030F00000F0C0F8CA21002000F0BCF80021012037
:1031000000F0B8F89F21012000F0B4F80021012060
:1031100000F0B0F83121002000F0ACF8F2210020DE
:1031200000F0A8F81E21012000F0A4F828210120B9
:1031300000F0A0F83221012000F09CF8F0210020DE
:1031400000F098F81621012000F094F816210120D3
:1031500000F090F81621012000F08CF816210120D3
:1031600000F088F83021002000F084F8BC21002015
:1031700000F080F80021012000F07CF8A62100205A
:1031800000F078F83121002000F074F84021002090
:1031900000F070F8002000F008F8AF21002000F0E7
:1031A00069F8642000F01EF810BD70B505460DB139
:1031B000FF2000E00020064613230022EF211046E6
:1031C00000F034F85C21002000F054F8002405E001
:1031D0003146012000F04EF8601C84B2B4F5965FD1
:1031E000F6DB70BD4FF47A7200FB02F100E000BF25
:1031F0000A1EA1F10101FAD17047000000B520209C
:10320000094908601420FFF7EDFF202006490860F7
:103210001420FFF7E7FF20200349091F0860C8209A
:10322000FFF7E0FF00BD0000140C01402DE9F04164
:1032300004460F4615461E463021002000F01AF8BD
:103240001521002000F016F82146012000F012F8A8
:103250003946012000F00EF87521002000F00AF830
:103260002946012000F006F83146012000F002F85E
:10327000BDE8F08170B505460C461DB940200949EE
:10328000086003E040200749091F08601020054935
:103290000860204602F0B4FA10200249091F0860B5
:1032A00070BD00001408014000F0010119B10821AF
:1032B0000E4A516102E008210C4A116100F002013E
:1032C00021B14FF48041094A516103E04FF480413C
:1032D000064A116100F0040119B10421034A516149
:1032E00002E00421014A1161704700000010014012
:1032F00010B50246002116480078401C144B187087
:1033000012BBFFF7A9FC022802D141F002011DE027
:10331000FFF7A2FC01280BD10D480078142390FB85
:10332000F3F403FB14000A2810DA41F002010DE067
:1033300007480078142390FBF3F403FB14000A28D9
:1033400004DA41F0010101E041F00401084610BD3A
:10335000EA01002000BFFEE77047000010B500281A
:1033600007DA0A07140E054A00F00F031B1FD45496
:1033700003E00A07130E024A135410BD18ED00E0D3
:1033800000E400E04FF4005001494861704700003C
:103390000010014010B580200949086000F012F8C3
:1033A00040200749091F086000F00CF8402004493C
:1033B000086000F007F880200149091F086010BD6F
:1033C000140C014010B5042000F09AFE10BD00005E
:1033D00010B5802007490860FFF7F4FF4020054939
:1033E0000860FFF7EFFF40200249091D0860FFF762
:1033F000E9FF10BD100C014070B506460C4615469D
:1034000000F078F8642000F04BF800F09DF800B16F
:1034100021E03107080E00F043F800F095F800B104
:1034200019E000F067F8652000F03AF800F08CF839
:1034300000B110E009E000F011F804F8010B15B13B
:10344000FFF7A8FF01E0FFF7C3FF281EA5F1010168
:10345000CDB2F0D100BF00F065F870BD70B50024AA
:10346000002516E06006040E40200C490860FFF7B6
:10347000A9FF0A480838006800F0800008B1601C05
:10348000C4B240200549091D0860FFF79BFF681C76
:10349000C5B2082DE6DB204670BD0000100C0140CF
:1034A00070B50446002520E004F0800018B18020AB
:1034B0000F49086003E080200D49091D0860FFF7EF
:1034C00081FF40200A490860FFF77CFF402008493F
:1034D000091D0860072D02D18020091F08606006C1
:1034E000040EFFF76FFF681CC5B2082DDCDB70BD52
:1034F000100C014010B58020094908604020086088
:10350000FFF760FF80200649091D0860FFF75AFF9A
:1035100040200349091D0860FFF754FF10BD00005B
:10352000100C014010B58020064908604020091F9A
:103530000860FFF747FF80200249091F0860FFF776
:1035400041FF10BD140C014010B580200C490860EB
:10355000FFF738FF40200A490860FFF733FF0848AB
:103560000838006800F0800008B1012400E0002461
:1035700040200349091D0860FFF724FF204610BDC5
:10358000100C014070B505460C461646FFF7B2FF19
:103590006420FFF785FFFFF7D7FF00B116E029078A
:1035A000080EFFF77DFFFFF7CFFF00B10EE007E049
:1035B00014F8010BFFF774FFFFF7C6FF00B105E039
:1035C000301EA6F10101CEB2F2D100BFFFF7AAFF73
:1035D00070BD000000B585B02C4803902C480290C7
:1035E00000200190012000900122102104A802F087
:1035F00075F89DF81000AA2807D0322000F074FD5D
:103600000122102104A802F069F89DF81000AA28F0
:103610001AD0AA2004900422142103A802F098FDD5
:103620000422182102A802F093FD04221C2101A803
:1036300002F08EFD01222021684602F089FD012260
:10364000102104A802F084FD322000F04DFD042278
:103650001421104802F042F8042218210D480838BD
:1036600002F03CF804221C210A48001F02F036F840
:10367000012220210748001D02F030F800200549F2
:1036800014394860886005B000BD00000000FA43AE
:10369000F0A22F3A1414002000EB80025100014ADE
:1036A000116070474008004010B502F02BF910BDC2
:1036B00008B53048006840F001002E49086000BF9E
:1036C0002C48006800F002000128F9D000BF29480A
:1036D000406840F08000274948600020009002E0E8
:1036E0000098401C009000985028F9D32148406869
:1036F00040F090001F4948600020009002E00098D0
:10370000401C009000985028F9D300BF1948406829
:1037100020F0030017494860084600681649084031
:103720001449086008464068144908401149486037
:1037300008460068104908400E49086008460068BD
:1037400020F480200860084640680D490840094977
:1037500048600846006808490840064908604FF478
:103760001F00886002F0CAF800214FF0006001F0ED
:10377000C3FE08BD00100240FFFFF6FE0C00FFE88C
:10378000FFFF00F71FB54FF4C06001F077FF40F274
:103790000B6001F073FF4FF4805303220421204893
:1037A00000F0FCFC1F4802F021FA0020ADF80000F8
:1037B000ADF80200ADF804004FF6FF700290002053
:1037C000ADF80C008DF80E006946164802F0A4FA18
:1037D0007021144802F010FB0721124802F034FB5C
:1037E00000231A4619460F4802F073FA80210D484B
:1037F00002F01DFB00210B4802F0F5F901210948F8
:1038000002F006FB002211461A2001F015FE0121EC
:10381000044802F0F9FA034802F056FA1FBD00000E
:1038200000080140002C01401FB54FF4C06001F0BA
:1038300025FF4FF4E06001F021FF0123032248211E
:10384000234800F0ABFC4FF0804002F0CFF900209D
:10385000ADF80000ADF80200ADF804004FF6FF70BF
:1038600002900020ADF80C008DF80E0069464FF074
:10387000804002F051FA70214FF0804002F0BCFA13
:1038800007214FF0804002F0DFFA00234FF400429E
:103890001946D00302F01DFA8021C80502F0C7FACC
:1038A00000214FF0804002F09EF90121880702F0CC
:1038B000AFFA002211461C2001F0BEFD012188074D
:1038C00002F0A2FA4FF0804002F0FEF91FBD0000A6
:1038D000000801401FB540F2047001F0CFFE15480A
:1038E00002F084F93520ADF800000020ADF80200A8
:1038F000ADF8040040F2E73002900020ADF80C0073
:103900008DF80E0069460B4802F006FA094802F0ED
:1039100001F80121074802F0FBF90121054802F0F6
:1039200073FA044802F0D0F901220221362001F096
:1039300083FD1FBD0010004010B50121064802F0B4
:103940006AFA40B10121044802F062FA03480068B3
:10395000401C0249086010BD002C014008000020F6
:1039600010B50121880702F056FA40B101218807FD
:1039700002F04EFA02480068401C0149086010BD80
:103980000C00002010B50121144802F044FA20B3C5
:103990000121124802F03CFA11480068401C10490D
:1039A00008601048006810490968C1EB01410844EB
:1039B0000E4908604FF08040406A0D490968C1EB2C
:1039C000014108440B490860002007490860084984
:1039D0000860044908600907486210BD00100040F3
:1039E00004000020242C014008000020400000209A
:1039F0000C0000204400002010B5002400F006FB5D
:103A00000446092C4ED2DFE804F04D050E1720299C
:103A1000323B440030483149097800EB01104078CE
:103A20002E4908703FE02C482C49097800EB011022
:103A300080782A49087036E027482849097800EB41
:103A40000110C078254908702DE0234823490978E2
:103A500000EB011000792149087024E01E481F493D
:103A6000097800EB011040791C4908701BE01A48E6
:103A70001A49097800EB011080791849087012E0A2
:103A800015481649097800EB0110C07913490870F0
:103A900009E011481149097800EB0110007A0F493B
:103AA000087000E000BF00BF0C480078122803D067
:103AB0000B480078FFF7F0FD0748084A127800EB42
:103AC0000210C16820468847FEF772FD034800785F
:103AD0000449087010BD00007C0000207800002020
:103AE000590000207900002010B500241E480078FD
:103AF000D8B901201C490870FDF772FD1B490870F8
:103B0000FDF76EFD19494870FDF76AFD1749887089
:103B1000FDF766FD1549C870FDF762FD1349087190
:103B2000FDF75EFD114948711DE0FDF759FD104993
:103B30000978062291FBF2F302FB13110B4A505451
:103B40000B480078401C0A490870002004E007492F
:103B5000095C0C44411CC8B20628F8DB0620B4FB03
:103B6000F0F00449087010BDF2010020EB010020C4
:103B7000F1010020480000202DE9F041002400253B
:103B800000260027174948681749096802F0DEFE39
:103B9000804602F09DFFC6B21249C8681349096801
:103BA00002F0D4FE804602F093FFC7B2BE4201DDB0
:103BB000304600E038460E49087008460078FDF7A8
:103BC000A1FF04462046FDF789FD09480078FFF76C
:103BD0008FFB05462846FFF767FBFEF739F8BDE87F
:103BE000F0810000C401002050000020540000209B
:103BF000E401002001480068704700000400002034
:103C000010B5024800F004F810BD0000480E002076
:103C100070B504463149206802F056FAE0B12068D8
:103C200002F0C4F9C5B2E08AE189884205DAE18A86
:103C3000A0684554E08A401CE0822849206802F0D0
:103C40003AFA40F20531206802F028FA4FF4417147
:103C5000206802F023FA00BF2149206802F034FAFC
:103C6000C0B1208AA18A88420ADB40F2073120686D
:103C700002F007FA40F20631206802F00FFA2CE059
:103C8000238A6268D15C206802F095F9208A401C82
:103C9000208222E01349206802F016FA68B1002061
:103CA0002082A08220760F49206802F004FA40F2B8
:103CB0000631206802F0E5F90FE00B49206802F0B8
:103CC00003FA50B1012060760749206802F0F3F949
:103CD0004FF44171206802F0D4F970BD050305006E
:103CE00007030700060306000403040010B502489A
:103CF000FFF78EFF10BD0000F401002010B5024850
:103D0000FFF786FF10BD00001006002010B5024826
:103D1000FFF77EFF10BD00002C0A002000BFFEE769
:103D2000490050EAC12018BF04204A0D18BF40F0D6
:103D3000010040F2FF72B2EB515F08BF40F0020099
:103D4000012808BF0520704730380A2801D2012019
:103D5000704700207047816841F00801816000BF12
:103D6000816801F008010029FAD1816841F004015D
:103D7000816000BF816801F004010029FAD1704719
:103D800030B5012902D002291AD10CE0C36A23F40C
:103D90007003C362C36A541E4FF4700505EA0454ED
:103DA0002343C3620DE0836B23F440138363836B6F
:103DB000541E4FF4401505EA04542343836300E086
:103DC00000BF00BF30BD21B1826842F40062826052
:103DD00003E0826822F400628260704710B50446F6
:103DE0001348204430B1B0F5806F0CD0B0F5C05FFF
:103DF0001BD111E040F2093001F060FC40F20930C3
:103E000001F04CFC12E040F20A3001F057FC40F2A5
:103E10000A3001F043FC09E040F20F3001F04EFCA3
:103E200040F20F3001F03AFC00E000BF00BF10BDCF
:103E300000DCFEBF816801F0010119B9816841F021
:103E400001018160704772B101F001031BB1836809
:103E500043F48013836001F0020393B1836843F459
:103E6000004383600DE001F001031BB1836823F47C
:103E70008013836001F002031BB1836823F40043C5
:103E800083607047012902D0022910D107E08368BE
:103E900023F46023836083681343836008E08368AE
:103EA00023F4E043836083681343836000E000BF32
:103EB00000BF70470246002013680B4003B1012089
:103EC000704700000549096821F47021034A116018
:103ED0001146096801431160704700000424014045
:103EE000F0B51D4606290CDA436B01EB81071F264E
:103EF000BE40B34301EB810602FA06F63343436347
:103F000022E00C290EDA036B8E1F06EB86071F26B4
:103F1000BE40B3438E1F06EB860602FA06F6334315
:103F2000036311E010290FDAC36AA1F10C0606EB56
:103F300086071F26BE40B343A1F10C0606EB86069A
:103F400002FA06F63343C3620A2A0CDA046902EB6A
:103F500042070726BE40B44302EB420605FA06F6C6
:103F60003443046111E0122A0FDAC468A2F10A0690
:103F700006EB46070726BE40B443A2F10A0606EB4D
:103F8000460605FA06F63443C460F0BD0146C86C27
:103F900080B2704701F001021AB1826842F48002D7
:103FA000826001F002021AB1826842F4001282605B
:103FB0007047AAB101F480731BB1436843F4807366
:103FC000436001F480631BB1436843F48063436042
:103FD00001F00203CBB1836843F00203836014E075
:103FE00001F480731BB1436823F48073436001F4D0
:103FF00080631BB1436823F48063436001F00203D4
:104000001BB1836823F00203836070470B48807AFA
:104010000A4AD27A904201D1002070470748807A3C
:10402000064A115C1046807A401CC0B290720A2881
:1040300001DB002090720846EFE7000064120020C8
:1040400010B5002400BF37E01D4A02EBC4025168DE
:104050001B4A52F8340000F0F7F8A0B9194830F8BC
:104060001400401C174921F81400084630F81400C9
:104070000A281FDB611DC8B200F026F80020114994
:1040800021F8140016E00F4830F8140002280DDB68
:104090000C4830F814000A2804DA611CC8B200F099
:1040A00013F803E0611DC8B200F00EF800200549C6
:1040B00021F81400601CC4B2042CC5DB10BD000044
:1040C00018000020100000200649C97A054A505403
:1040D0001146C97A491CC9B2D1720A2901DB0021F3
:1040E000D17270476412002010B5044603E04FF40B
:1040F000FA7000F005F8201EA4F10104F7D110BDFC
:10410000014604E0002000E0401C1428FCD30A1EF5
:10411000A1F10101F6D1704730B587B005460C46D4
:1041200000200490059006900290039002A8FEF7EC
:10413000A7FD9DF8080000909DF809309DF80A2021
:104140000EA104A8FCF792F804AA21462846FEF71F
:10415000ECFC9DF80B0000909DF80C309DF80D20B4
:104160000AA104A8FCF782F804F11800C1B204AA5D
:104170002846FEF7DAFC07B030BD00002530326477
:104180003A253032643A25303264000025303264FA
:104190002D253032642D253032640000F0B5044600
:1041A00016460025002201F00F0501F0100707B1A7
:1041B000354300201EE0012787401F40C7B1226819
:1041C0004FEA800C0F2707FA0CF7BA43870005FA6D
:1041D00007F73A43282904D1012787401F40676128
:1041E00005E0482903D1012787401F40276122604D
:1041F000471CB8B20828DED3082022E001278740F8
:104200001F40E7B16268A0F108074FEA870C0F274B
:1042100007FA0CF7BA43A0F10807BF0005FA07F741
:104220003A43282904D1012787401F40676105E0F0
:10423000482903D1012787401F4027616260471C3E
:10424000B8B21028DAD3F0BD02469068084008B131
:10425000012070470020FCE710B540F2026001F039
:104260000DFA40F2036001F009FA4FF4C06001F06A
:1042700005FA2023032210210D48FFF78FFF40236A
:10428000032210210B48FFF789FF10230322194650
:104290000848FFF783FF2023032218210548FFF772
:1042A0007DFF8023032218210248FFF777FF10BD0E
:1042B000000C01400008014000B587B040F20C60DE
:1042C00001F0DCF9002001904FF482700090002092
:1042D000029005904FF4007003903020069000206B
:1042E00004906946034801F072FA024801F05CFA52
:1042F00007B000BD0030014000240A2001F02AFA76
:10430000FDF796FAFFF766F900BF07E02046FEF7D3
:10431000F1FC6420FFF7E8FE601CC4B20A2CF5DB58
:1043200044E0FFF767FC22490968401A0A2805D3D0
:10433000FFF760FC1E490860FFF782FEFFF75AFC9A
:104340001C490968401A642805D3FFF753FC194932
:104350000860FFF711FCFFF74DFC17490968401A88
:10436000B0F57A7F0AD3FFF745FC1349086013487C
:104370000068401C11490860FFF7B6FB0F48006851
:104380003C2802D900200D490860FFF735FB0C4896
:104390000078012808D101230A4802780A480178E8
:1043A0000A20FEF7EBFA00E000BF00BFB9E700000B
:1043B00064000020680000206C00002070000020D5
:1043C0005A0000205D0000205C00002010B504466B
:1043D000FDF79AFF1CA218210020FEF7BCFB1BA2D0
:1043E0001821D720FEF7B7FB19A218214820FEF7A5
:1043F0000AFC1AA230214820FEF705FC1AA2482127
:104400000846FEF700FC1BA260214820FEF7FBFBDC
:104410001BA288210020FEF7F6FB1BA28821BF20EB
:10442000FEF7F1FB1AA288216C20FEF794FB002313
:10443000F02212211846FEF7A1FA0023F02286216D
:104440001846FEF79BFA10BD3D3E00003C3D0000C3
:10445000E3D0D6B5C9E8D6C300000000C0DBBCC6B7
:10446000BCC1C1BF00000000CFB5CDB3C9E8D6C301
:1044700000000000B1BEBBFAD0C5CFA20000000012
:10448000C8B7C8CF00000000B7B5BBD80000000017
:104490007B7D000010B50446FDF736FF0023F022B7
:1044A00012211846FEF76AFA0023F02286211846E8
:1044B000FEF764FA13A288210020FEF7A4FB13A2E2
:1044C0008821BF20FEF79FFB12A228210020FEF7C3
:1044D0009AFB12A258210C20FEF795FB01233822EB
:1044E0004F215020FEF74AFA002350224F21184650
:1044F000FEF744FA00230B48202102685E20FDF7F6
:10450000B1FC10BDC8B7C8CF00000000B7B5BBD81C
:1045100000000000BCC1C1BFC2CA0000BCC1C1BF15
:1045200000000000500000202DE9F0410546002465
:10453000062D70D2DFE805F0EF0363709AC492484D
:1045400000789249097888420CD19148007818B9CE
:1045500005208F49087051E08D480078401E8C4935
:1045600008704BE08B480068FEF77CFB8A49487175
:104570000846407901280DD188498648006802F034
:104580000FFB0746864902F0E1F9064602F0A0FA61
:10459000044608E081497F48006802F001FB0646B6
:1045A00002F096FA04460A20B4FBF0F100FB114039
:1045B000794908710A20B4FBF0F4B4FBF0F100FB78
:1045C00011407549C8700A20B4FBF0F4B4FBF0F157
:1045D00000FB1140704988700A20B4FBF0F4B4FB72
:1045E000F0F100FB11406C4948700A20B4FBF0F474
:1045F000B4FBF0F100FB1140674908708CE064489F
:104600000078401C6249087008460078052801DDE2
:104610000020087080E07EE05D480078052810DB0F
:104620005D485B490978405C28B901205A49584ADD
:104630001278885419E000215748554A127881545D
:1046400013E0554852490978405C401C5249504A91
:104650001278885408464E490978405C092804DDE0
:1046600000204D494A4A1278885455E0484800785D
:10467000052810DB484846490978405C28B90121E3
:104680004548434A1278815419E000204249404A83
:104690001278885413E040483D490978405C28B9B5
:1046A00009203D493A4A1278885408E03A48384986
:1046B0000978405C401E3849354A127888542BE00E
:1046C000354840783449097801EB810100EB41001D
:1046D00000EB80003049897801EB400000EB80005E
:1046E0002D49C97801EB400000EB80002A49097987
:1046F00001EB400428484079012802D14FF47A7038
:104700004443204602F004FA0646244902F01EF90A
:104710002049086000E000BF00BFFDF7F5FD002361
:10472000F02212211846FEF729F90023F0228621F3
:104730001846FEF723F91BA288210020FEF763FA32
:104740001AA28821BF20FEF75EFA012338224F21EA
:104750005020FEF713F9002350224F211846FEF790
:104760000DF914A228210020FEF74DFA13A25821BA
:104770000C20FEF748FA06480378074A20215E20FD
:10478000FDF7F2FCBDE8F081790000207800002000
:10479000B201002050000020AC0100200000C842FF
:1047A00000007A44C8B7C8CF00000000B7B5BBD836
:1047B00000000000BCC1C1BFC2CA0000BCC1C1BF73
:1047C0000000000010B50446FDF79EFD0023F02216
:1047D00012211846FEF7D2F80023F022862118464F
:1047E000FEF7CCF813A288210020FEF70CFA13A2E2
:1047F0008821BF20FEF707FA12A228210020FEF729
:1048000002FA12A258210C20FEF7FDF901233E22E4
:1048100012215020FEF7B2F8002350224F211846F3
:10482000FEF7ACF800230B48202102685E20FDF75C
:1048300019FB10BDC8B7C8CF00000000B7B5BBD882
:1048400000000000BCC1C1BFC2CA0000BCC1C1BFE2
:1048500000000000540000202DE9F041054600242E
:10486000062D6ED2DFE805F0FC036E7AA5D19948DB
:1048700000789949097888420CD19848007818B98D
:104880000520964908705BE094480078401E9349E3
:10489000087055E092480068FEF7E4F9801C9149E1
:1048A00048710846407903280DD18F498C4800682B
:1048B00002F076F907468D4902F048F8064602F004
:1048C00007F9044608E088498548006802F068F95D
:1048D000064602F0FDF8044683498548006802F068
:1048E0005FF9064602F0F4F804460A20B4FBF0F142
:1048F00000FB11407B4908710A20B4FBF0F4B4FBC3
:10490000F0F100FB11407749C8700A20B4FBF0F4C5
:10491000B4FBF0F100FB1140724988700A20B4FB2F
:10492000F0F4B4FBF0F100FB11406E4948700A202E
:10493000B4FBF0F4B4FBF0F100FB114069490870DE
:104940008FE08DE065480078401C64490870084697
:104950000078052801DD0020087082E05F480078BB
:10496000052811DB5F485D490978405C022805D1C4
:1049700003205C49594A1278885419E002205949A9
:10498000564A1278885413E0564854490978405CD6
:10499000401C5449514A1278885408464F490978B6
:1049A000405C092804DD00204E494C4A12788854A6
:1049B00057E04A480078052811DB4A4847490978FA
:1049C000405C022805D103204649444A12788854A5
:1049D0001AE002204349414A1278885414E04148C1
:1049E0003E490978405C28B909203E493B4A127883
:1049F000885409E03B4839490978405C401EC1B2FF
:104A00003848364A127881542BE036484078354988
:104A1000097801EB810100EB410000EB8000314996
:104A2000897801EB400000EB80002E49C97801EB4A
:104A3000400000EB80002B49097901EB4004294834
:104A40004079032802D14FF47A704443204602F0A3
:104A50005FF80646244901F079FF2549086000E027
:104A600000BF00BFFDF750FC0023F02212211846C2
:104A7000FDF784FF0023F02286211846FDF77EFF14
:104A80001CA288210020FEF7BEF81CA28821BF20AE
:104A9000FEF7B9F801233E2212215020FDF76EFFE8
:104AA000002350224F211846FDF768FF15A2282148
:104AB0000020FEF7A8F815A258210C20FEF7A3F855
:104AC00006480378074A20215E20FDF74DFBBDE82C
:104AD000F08100007900002078000020B90100205A
:104AE00050000020B30100200000C84200007A44BA
:104AF00054000020C8B7C8CF00000000B7B5BBD82D
:104B000000000000BCC1C1BFC2CA0000BCC1C1BF1F
:104B10000000000010B50446FDF7F6FB1CA2302192
:104B20000020FEF718F81BA23021D720FEF713F85B
:104B300019A218214820FEF766F81AA23021482051
:104B4000FEF761F81AA248210846FEF75CF81BA29E
:104B500060214820FEF757F81BA288210020FEF7AD
:104B600052F81BA28821BF20FEF74DF81AA2882117
:104B70006C20FDF7F0FF0023F02212211846FDF70C
:104B8000FDFE0023F02286211846FDF7F7FE10BD3A
:104B90003D3E00003C3D0000E3D0D6B5C9E8D6C399
:104BA00000000000C0DBBCC6BCC1C1BF00000000EB
:104BB000CFB5CDB3C9E8D6C300000000B1BEBBFA83
:104BC000D0C5CFA200000000C8B7C8CF00000000C9
:104BD000B7B5BBD8000000007B7D000070B505466E
:104BE000FDF792FB0023F02212211846FDF7C6FEC6
:104BF0000023F02286211846FDF7C0FE0BA2882173
:104C00000020FEF700F80BA28821BF20FDF7FBFF74
:104C10000A49C868FEF726F8801CC4B20748234634
:104C20002021C2683220FDF71DF970BDC7E5B3FD34
:104C300000000000B7B5BBD800000000C401002090
:104C400010B50446FDF760FB0023F0221221184640
:104C5000FDF794FE0023F02286211846FDF78EFE14
:104C600024A288210020FDF7CEFF24A28821BF20A6
:104C7000FDF7C9FF012C16D1224800782249097896
:104C8000884205D021A240213C20FDF7BCFF0AE06C
:104C900001202149087000202049087020A24021ED
:104CA0005420FDF7B0FF1C480078E8B11B4800789D
:104CB000401C1A4908701AA240215420FDF7A3FF96
:104CC0001648007805280ADD0020134908701648A8
:104CD0000D49097800EB011080780B49087000201D
:104CE0001249C860C86004E008A240213C20FDF7DA
:104CF0008AFF10BDC8B7C8CF00000000B7B5BBD849
:104D0000000000007900002078000020C8B7C8CF5C
:104D1000C7E5B3FDA3BF0000BB010020BA0100201E
:104D2000D2D1C7E5B3FD00007C000020C401002003
:104D300010B50446FDF7E8FA1CA248210020FDF753
:104D40000AFF1BA24821D720FDF705FF19A2182151
:104D50004820FDF758FF1AA230214820FDF753FFE5
:104D60001AA248210846FDF74EFF1BA260214820E9
:104D7000FDF749FF1BA288210020FDF744FF1BA27D
:104D80008821BF20FDF73FFF1AA288216C20FDF784
:104D9000E2FE0023F02212211846FDF7EFFD00236A
:104DA000F02286211846FDF7E9FD10BD3D3E0000CA
:104DB0003C3D0000E3D0D6B5C9E8D6C300000000F2
:104DC000C0DBBCC6BCC1C1BF00000000CFB5CDB3C5
:104DD000C9E8D6C300000000B1BEBBFAD0C5CFA25F
:104DE00000000000C8B7C8CF00000000B7B5BBD8AE
:104DF000000000007B7D000010B50446FDF784FA3A
:104E00000023F02212211846FDF7B8FD0023F022FE
:104E100086211846FDF7B2FD15A288210020FDF776
:104E2000F2FE15A28821BF20FDF7EDFE14A2882115
:104E30006C20FDF790FE13A228210520FDF7E3FE6C
:104E400012A258210520FDF7DEFE012338224F2152
:104E50005020FDF793FD002350224F211846FDF707
:104E60008DFD0C48027820218220FDF77BFA10BDD1
:104E7000C8B7C8CF00000000B7B5BBD8000000001D
:104E80007B7D0000B5A5CEBB00000000C1C1B6C847
:104E9000000000005800002010B50446012C06D088
:104EA000022C1CD0032C1BD0042C32D125E0374817
:104EB00000783749097888420CD13648007836495D
:104EC000087036483249097800EB01108078304983
:104ED000087003E0304800782E4908701AE019E0A5
:104EE0002C48007818B902202A49087004E02948A3
:104EF0000078401E274908700CE026480078401CC6
:104F00002449087008460078022801DD0020087056
:104F100000E000BF00BFFDF7F7F90023F0221221E7
:104F20001846FDF72BFD0023F02286211846FDF7D9
:104F300025FD1BA288210020FDF765FE1AA288210D
:104F4000BF20FDF760FE1AA288216C20FDF703FE4A
:104F500018A228210520FDF756FE18A25821052089
:104F6000FDF751FE012338224F215020FDF706FDA9
:104F7000002350224F211846FDF700FD0548027816
:104F800020218220FDF7EEF910BD000079000020FD
:104F900078000020BC010020580000207C00002088
:104FA000C8B7C8CF00000000B7B5BBD800000000EC
:104FB0007B7D0000B5A5CEBB00000000C1C1B6C816
:104FC0000000000010B50446FDF79EF90023F02212
:104FD00012211846FDF7D2FC0023F0228621184644
:104FE000FDF7CCFC15A288210020FDF70CFE15A2D0
:104FF0008821BF20FDF707FE14A288216C20FDF751
:10500000AAFD01233E2212215020FDF7B7FC002308
:1050100050224F211846FDF7B1FC0DA22821052092
:10502000FDF7F1FD0CA258210520FDF7ECFD0C4821
:1050300002781C217820FCF767FE10BDC8B7C8CFE6
:1050400000000000B7B5BBD8000000007B7D000069
:10505000B5A5CEBB00000000C1C1B6C8000000006D
:105060005900002010B50446012C06D0022C1CD09B
:10507000032C1BD0042C33D124E039480078394963
:10508000097888420CD13848007838490870384887
:105090003449097800EB011080783249087003E048
:1050A00032480078304908701BE01AE02E4800783A
:1050B0000A302D49087008460078642801DD642014
:1050C00008700EE0284800780A2803DA00202649F4
:1050D000087004E0244800780A382349087000E08A
:1050E00000BF00BFFDF710F90023F022122118467F
:1050F000FDF744FC0023F02286211846FDF73EFC14
:105100001CA288210020FDF77EFD1CA28821BF2063
:10511000FDF779FD1BA288216C20FDF71CFD012302
:105120003E2212215020FDF729FC002350224F215E
:105130001846FDF723FC14A228210520FDF763FD86
:1051400013A258210520FDF75EFD074802781821BB
:105150007820FCF7D9FD04480078FEF79DFA10BDD1
:105160007900002078000020BD01002059000020B7
:105170007C000020C8B7C8CF00000000B7B5BBD87E
:10518000000000007B7D0000B5A5CEBB0000000044
:10519000C1C1B6C80000000010B50446FDF7B4F860
:1051A0001CA260210020FDF7D6FC1BA26021D720A5
:1051B000FDF7D1FC19A218214820FDF724FD1AA201
:1051C00030214820FDF71FFD1AA248210846FDF7AF
:1051D0001AFD1BA260214820FDF715FD1BA28821A6
:1051E0000020FDF710FD1BA28821BF20FDF70BFD5D
:1051F0001AA288216C20FDF7AEFC0023F0221221B8
:105200001846FDF7BBFB0023F02286211846FDF768
:10521000B5FB10BD3D3E00003C3D0000E3D0D6B5DF
:10522000C9E8D6C300000000C0DBBCC6BCC1C1BF1A
:1052300000000000CFB5CDB3C9E8D6C30000000020
:10524000B1BEBBFAD0C5CFA200000000C8B7C8CF1E
:1052500000000000B7B5BBD8000000007B7D000057
:1052600010B50446FDF750F80023F022122118462D
:10527000FDF784FB0023F02286211846FDF77EFB14
:1052800016A288210020FDF7BEFC16A28821BF20AF
:10529000FDF7B9FC15A218210020FDF7B4FC15A2FA
:1052A00030210020FDF7AFFC14A248210020FDF7BB
:1052B000AAFC14A218213120FDF74DFC14A23021C4
:1052C0003120FDF748FC15A248213120FDF743FCB1
:1052D00015A260213E20FDF73EFC10BDC8B7C8CF27
:1052E00000000000B7B5BBD800000000B1E0BAC5AF
:1052F00000000000B0E6B1BE00000000C1BFB3CCAA
:10530000000000003A323032363031303130310076
:105310003A5630312E30312E303100003A302E31B5
:105320007553762F687E000031306D53762F6800FC
:1053300070B505460123A02200211046FDF71EFB93
:1053400000234F224E21A020FDF718FB00234F22FF
:105350006221A020FDF712FB1CA208210420FDF70A
:105360003CFC1DA25021B820FDF737FC0021084667
:10537000FCF7A6FC1921A820FEF7CEFE0021A420F0
:10538000FCF791FC16494868FDF76CFC044614488C
:105390002346182142680020FCF764FD1049C868C4
:1053A000FDF760FC801CC4B20D4823466821C2682A
:1053B000A420FCF7D9FC0A49486801F089FB84B2B3
:1053C000224670210020FCF7FBFD70BDC4DAB2BF9D
:1053D000BCC1C1BFC2CA0000BCC1C1BF0000000047
:1053E000C4010020704770470EB500200090019066
:1053F0000290002416E0002004E03C210DF800108B
:10540000411CC8B2C4F10A018142F6DC6A4640215F
:105410003C20FDF7A0FBFDF7CBF86420FEF764FE0F
:10542000601CC4B20A2CE6DB0020FEF735F9FDF75C
:10543000A9FF00BFFEE700002DE9F04103460D463D
:10544000164600240027A0462448006800F4E060C7
:10545000B0F5A06F15D006DCB0F5407F18D0B0F5E0
:10546000806F19D110E0B0F5C06F06D0B0F5E06FD5
:1054700012D100274FF0040815E001274FF0030870
:1054800011E00227B8460EE003274FF001080AE0BA
:1054900004274FF0000806E04FF4A06000F022F867
:1054A0000227B84600BF00BFC7F1040005FA00F4A8
:1054B000C8F104010F20C8403040044324010848CB
:1054C000C45403F01F01012088405911890001F1E3
:1054D000E021C1F80001BDE8F08100000CED00E022
:1054E00000E400E002490143024A116070470000F5
:1054F0000000FA050CED00E0034A0A400243034BAA
:105500001A60BFF34F8F704780FFFF1F08ED00E068
:105510000F4A51680F4A1140082814D2DFE800F002
:1055200004050607130A130B00BF00BF00BF41EAC2
:10553000803109E000BF20F004004FF0805242EAC1
:105540008032114300E000BF00BF014A5160704744
:1055500000100240FF3FFFEF2DE9F04F8BB00746F0
:10556000002009903EA090E8004CC068CDE905BE3F
:10557000CDF810A007900FF2EC0ADAE9000ACDE9A5
:10558000020A0FF2E00ADAE9000ACDE9000A384817
:105590004068C0F381000A900A9820B1012804D025
:1055A000022829D103E0334928E0324926E0304877
:1055B000406800F48038B8F5803F09D12D4C2C4864
:1055C000406800F40039B9F5003F02D1641000E0F2
:1055D000294C27484068C0F383422548406800F0C2
:1055E000006008B142F010020F2A01D2921C00E0C4
:1055F000521C04FB02F101E01E4900BF00BF1C4821
:105600004068C0F3031504A8465D21FA06F3184864
:105610004068C0F3022502A8465D23FA06FC144840
:105620004068C0F3C2251DF8056023FA06F0089013
:1056300037B1012F06D0022F06D0032F0AD106E082
:10564000099108E0099306E0CDF824C003E008982A
:10565000099000E000BF00BF09980BB0BDE8F08FD3
:105660000000000000000000010203040607080912
:105670000010024000127A0000093D00064A02EBC9
:105680009011096800F01F0301229A401143024B58
:1056900003EB90121160704700100240064A02EBC3
:1056A0009011096800F01F0301229A409143024BB8
:1056B00003EB90121160704700100240064A02EBA3
:1056C0009011096800F01F0301229A401143024B18
:1056D00003EB901211607047001002402DE9F04179
:1056E00007460D461646FCF713FF2912A02202EBCF
:1056F0004101C8B2FCF7DEFEFCF738FF00B125E03F
:10570000E8B2FCF7D7FEFCF731FF00B11EE0FCF772
:10571000FFFEA120FCF7CEFEFCF728FF00B115E04C
:1057200000240CE0FCF7A2FE3855701EA04202D007
:10573000FCF762FE01E0FCF781FE601C84B2B4421B
:10574000F0DBFCF7FFFE0120BDE8F081FCF7FAFE7C
:105750000020F9E770B50546124800684FF47A71E9
:10576000B0FBF1F000FB05F4601EB0F1807F01D3C7
:1057700001200FE0601E4FF0E02148610F214FF043
:10578000FF30FDF7EBFD00204FF0E021886107209E
:105790000861002008B100BFFEE70021481EFDF7A8
:1057A000DDFD70BD00000020016841F04001016096
:1057B00070470146C86880B27047C16070470246B2
:1057C0009068084008B1012070470020FCE70246BD
:1057D0000020106800F441500B6818434B681843D0
:1057E0008B681843CB6818430B6918434B691843FF
:1057F0008B6918431060D36923F40063D361704749
:1058000010B5044600BF02210A48FFF7D8FF002860
:10581000F9D021460748FFF7D0FF00BF0121054816
:10582000FFF7CDFF0028F9D00248FFF7C2FFC0B252
:1058300010BD000000300140002000212C4A1268F9
:1058400042F480322A4B1A6000BF401C284A12687A
:1058500002F4003119B94FF6FF729042F5D1244A93
:10586000126802F400320AB900BFFEE7204A52680B
:105870001F4B5A601A4652685A601A46526842F4E0
:1058800080625A601A46526822F440325A601A46C0
:10589000526842F440325A601A465268154B1A4018
:1058A000134B5A601A465268134B1A43104B5A60F6
:1058B0001A46126842F080721A6000BF0C4A1268E1
:1058C00002F00072002AF9D0094A526822F003025D
:1058D000074B5A601A46526842F002025A6000BFF3
:1058E000034A526802F00C02082AF9D170470000FE
:1058F00000100240FFFFC3F70000280810B5FFF7B3
:105900009BFF10BD02480068401C014908607047B9
:1059100074000020016841F08001016070470000C0
:1059200010B531B101293FD002297DD003297CD1A6
:10593000BFE0036A23F001030362836923F00303DA
:105940008361036A148823430362036A23F002031A
:105950000362036A9488234303626A4B984202D02D
:10596000694B98421FD1036A23F004030362036A60
:10597000548823430362036A23F008030362036A23
:10598000D48823430362436823F4807343604368ED
:10599000148923434360436823F4007343604368DE
:1059A000548923434360ABE0036A23F0100303628E
:1059B000836923F440738361036A148843EA041300
:1059C0000362036A23F020030362036A948843EAB4
:1059D000041303624B4B984202D04B4B984226D1A2
:1059E000036A23F040030362036A548843EA041302
:1059F0000362036A23F080030362036AD48843EAE4
:105A000004130362436823F480634360436814898A
:105A100043EA84034360436823F4006343604368BC
:105A2000548943EA840301E002E068E0436067E0F0
:105A3000036A23F480730362C36923F00303C36121
:105A4000036A148843EA04230362036A23F400739D
:105A50000362036A948843EA04230362294B984251
:105A600002D0294B984223D1036A23F48063036256
:105A7000036A548843EA04230362036A23F400633D
:105A80000362036AD48843EA04230362436823F46D
:105A9000805343604368148943EA041343604368B6
:105AA00023F4005343604368548943EA041343607A
:105AB00026E0036A23F480530362C36923F440732E
:105AC000C361036A148843EA04330362036A23F45C
:105AD00000530362036A948843EA04330362094B68
