:020000040800F2
:10000000E02A002039020008CD4B00087B47000899
:10001000C94B0008F12B00084555000800000000FE
:100020000000000000000000000000004B0200087B
:10003000392D0008000000004F020008B74E0008EC
:10004000530200085302000853020008530200083C
:10005000530200085302000853020008530200082C
:10006000530200085302000853020008530200081C
:10007000530200085302000853020008530200080C
:1000800053020008530200085302000853020008FC
:1000900053020008530200085302000853020008EC
:1000A0005302000849510008530200085302000897
:1000B000715100085302000853020008530200085F
:1000C00053020008530200085302000853020008BC
:1000D00053020008315500084155000843550008F7
:1000E000530200085302000853020008530200089C
:1000F000530200085302000853020008530200088C
:10010000530200085302000853020008530200087B
:100110004554000853020008955100085302000896
:10012000530200085302000853020008530200085B
:1001300000F002F800F070F80AA090E8000C824489
:100140008344AAF10107DA4501D100F065F8AFF266
:10015000090EBAE80F0013F0010F18BFFB1A43F0A5
:1001600001031847D8F10000F8F100000A444FF0ED
:10017000000C10F8013B13F0070408BF10F8014B06
:100180001D1108BF10F8015B641E05D010F8016B4B
:10019000641E01F8016BF9D113F0080F1EBF10F8AF
:1001A000014BAD1C0C1B09D16D1E58BF01F801CBD2
:1001B000FAD505E014F8016B01F8016B6D1EF9D555
:1001C0009142D6D37047000000230024002500266A
:1001D000103A28BF78C1FBD8520728BF30C148BFAA
:1001E0000B60704766290AF0C982642900F080809C
:1001F000002070471FB501F06DF8040000200021B9
:1002000009F01AFE401C60600020002109F0FEFD8C
:10021000E0601FBD10B510BD01F022FB1146FFF7D5
:10022000E9FF05F0A1FD01F07FFD03B4FFF7F2FF48
:1002300003BC01F0D7FD000009488047094800478A
:10024000FEE7FEE7FEE7FEE7FEE7FEE7FEE7FEE786
:10025000FEE7FEE704480549054A064B70470000E3
:10026000C14E000831010008E0200020E02A0020F3
:10027000E0240020E02400200FB41CB5074B06AAA0
:100280007B4469460090059800F023FD00206946F4
:1002900000F032FD1CBC5DF814FB0000750A000084
:1002A00070B5044685690068C10601D5302600E0B6
:1002B0002026C00707D070BDD4E901213046904701
:1002C000206A401C20626D1EF6D570BD70B50446D4
:1002D00085690078C00707D170BDD4E901212020CD
:1002E0009047206A401C20626D1EF6D570BD00004C
:1002F0002DE9F0410646002410687529314616A5FF
:1003000010D0AFF30080002802DA404213A507E0C6
:1003100031688A0701D512A502E0490704D511A565
:10032000012401E0AFF3008000210A2206F1240736
:1003300009E0B0FBF2FCB0FBF2F302FB1C00303032
:1003400078541846491C0028F3D123462A463046E3
:10035000BDE8F04100F04FBA000000002D000000A1
:100360002B000000200000002DE9F05F89460446C4
:100370004FF0000ADFF824B1FB44C0F820A020466B
:10038000E168884700287DD0252806D0D4E90121DE
:100390009047206A401C2062F1E700255F46204616
:1003A000E16888472028064607DB312E05D2B819B8
:1003B00010F8200C08B10543F1E7A80701D525F096
:1003C0000405C4F81CA00027C4F818A02A2E09D0E0
:1003D000304605F04EF938B304EB8708303EC8F8D4
:1003E000186019E059F8041B204604EB870291615C
:1003F000E1688847012F064618D1E069002820DA15
:1004000025F020051DE0D8F8180000EB800006EB71
:1004100040003038C8F818002046E1688847064692
:1004200005F027F90028EED1012F0AD02E2E08D191
:100430002046E16888477F1C0646022F45F02005CC
:10044000C4DBA069002803DA404245F00105A06141
:10045000E80701D025F01005A6B1A6F14100192842
:1004600002D8203645F400654A46314620462560CC
:100470004D46FFF7B7FE60B1012807D0ED1D25F00E
:10048000070000E007E000F1080978E705F104093A
:1004900075E730467AE7206ABDE8F09F1AEF000062
:1004A0000FB400B58DB010A9099000910B904FF0DA
:1004B000FF300A9000200C900648784406900648C9
:1004C00078446A4607900F9909A800F0ABFE0DB07A
:1004D0005DF814FB870D00009F0D00002DE9FF5F04
:1004E0001D464FF0FF3B91464FF000085F46D5E9AF
:1004F0000146A96901987F1C8847296A8246884776
:100500000028F6D1BAF1FF3F0CD0002E24F4C064CD
:1005100019DD600614D5BAF12B0F09D0BAF12D0FF1
:100520000ED103E0584604B0BDE8F09F44F4806467
:10053000A96901987F1C8847761E8246002E02DD3D
:10054000BAF1300F03D0B9F1000F26D032E0A9691B
:10055000761E01987F1C44F400748847002E824662
:1005600005DDBAF1780F06D0BAF1580F03D0B9F112
:10057000000F10D01EE0B9F1000F02D0B9F1100F3A
:1005800018D1A969761E01987F1C24F4007488474D
:100590008246102002E0082000E00A20814609E09F
:1005A000A96908FB0908761E01987F1C44F40074B1
:1005B00088478246002E05DD4946504600F0A1FBE3
:1005C0000028EDDAE96901988847A00502D46FF0A8
:1005D0000100A8E7E00725D1600613D5600502D524
:1005E000C8F1000000E0404629680A1D2A60096839
:1005F000220501D5087015E0220701D5088011E019
:1006000008600FE02868011D29600068210502D5F7
:1006100080F8008006E0210702D5A0F8008001E004
:10062000C0F8008038467EE740EA010310B59B071A
:100630000FD1042A0DD310C808C9121F9C42F8D04C
:1006400020BA19BA884201D9012010BD4FF0FF30FD
:1006500010BD1AB1D30703D0521C07E0002010BD13
:1006600010F8013B11F8014B1B1B07D110F8013B9F
:1006700011F8014B1B1B01D1921EF1D1184610BD80
:1006800010B5431C02E010F8011B71B18107FAD1CB
:100690004FF0013202C88C1A8C4314EAC211F9D00F
:1006A000C01A0A0603D0C01E10BDC01A10BD0A042D
:1006B00001D0801E10BD0902FCD0401E10BD032ACF
:1006C00040F2308010F0030C00F0158011F8013B6F
:1006D000BCF1020F624498BF11F801CB00F8013B56
:1006E00038BF11F8013BA2F1040298BF00F801CB1A
:1006F00038BF00F8013B11F0030300F02580083AF1
:10070000C0F0088051F8043B083A51F804CBA0E847
:100710000810F5E7121D5CBF51F8043B40F8043B9C
:10072000AFF30080D20724BF11F8013B11F801CBD1
:1007300048BF11F8012B24BF00F8013B00F801CBA2
:1007400048BF00F8012B704710B5203AC0F00B806D
:10075000B1E81850203AA0E81850B1E81850A0E8C5
:100760001850BFF4F5AF5FEA027C24BFB1E818501F
:10077000A0E8185044BF18C918C0BDE810405FEA8F
:10078000827C24BF51F8043B40F8043B08BF70470B
:10079000D20728BF31F8023B48BF11F8012B28BF10
:1007A00020F8023B48BF00F8012B70474FF00002D1
:1007B0000429C0F0128010F0030C00F06585CCF124
:1007C000040CBCF1020F18BF00F8012BA8BF20F8E1
:1007D000022BA1EB0C0100F057BD5FEAC17C24BFE6
:1007E00000F8012B00F8012B48BF00F8012B7047DF
:1007F0007047704770472DE9F0470D46994692467D
:10080000044600F124080168880604D5E06921F057
:100810001001216000E00120A84201DD471B00E03B
:100820000027A1697A1902EB0900081AA061207853
:10083000C00602D42046FFF733FD002608E0D4E9C5
:1008400001211AF806009047206A401C761C20629D
:100850004E45F4DB2078C0060AD52046FFF720FD80
:1008600006E0D4E9012130209047206A401C206234
:10087000381EA7F10107F4DC07E0D4E9012118F8DC
:1008800005009047206A401C2062281EA5F1010542
:10089000F3DC2046FFF71AFD2078000602D502207F
:1008A000BDE8F0870120FBE770472DE9FF4F0C46BC
:1008B0001E464FF0FF378BB0D2E90001DDF86080B3
:1008C0000A908A46C1F30A5505B93D4600210846FB
:1008D0004FF00000BAF1000F00F4400005DA00EB21
:1008E00080004FF4400101EA50004FEA9059B9F1FD
:1008F000010F00DDB9460A9850EA4A000ED044F6CE
:100900001050A5F2FF3545432F14B8F1000F1ED04B
:100910007542291E1EDDC9F100021CE0B8F1010F6D
:100920004FF0000001D0302103E0F24305E02154F4
:10093000401CB042FBDB30460022002121540B99C1
:10094000C1F80880C1E900200FB0BDE8F08FBD1BE1
:100950006D1CDEE74A4600DA694206A800F00AFF8D
:1009600006AB93E8070003AB83E8070050460A99FB
:1009700001F03FFA8DE80700A0F500501F38009005
:100980000398002D0ADD42F21F014A460844002365
:1009900003A90390684601F0EBFC09E0A0F50050C4
:1009A0004A461F38002303A90390684601F00AFD58
:1009B0008DE807000004000C03D04FF0FF30410821
:1009C00000E01046B8F1000F03D000220092154657
:1009D0001EE0751E05D400F085FC303262556D1E98
:1009E000F9D5B3460122084302D000227F1C04E05F
:1009F0002078302801D100227F1E002A099784D058
:100A00001DE0112D07DA00F06DFC303262556D1CCF
:100A100050EA0102F5D1084302D00098C8B10EE0B7
:100A20000021681E05E0235C625C63542254401E72
:100A3000491C8142F7DBAB46A81B401E09900020F1
:100A400004F80B000B98099AC0F80880C0E9002B45
:100A50007AE711264FF0000857E72DE9F04F884656
:100A60000446D21D22F0070191B0D1E90001CDE981
:100A70000A0104F069FD02460B98C00F01D02D2039
:100A800007E02068810701D52B2002E0202101EA40
:100A9000C000032A099001D0072A05DB034641461E
:100AA000204600F06DFC0BE12078800601D5E0695E
:100AB00000E00620B8F1650F814606D0B8F1660F58
:100AC00018D0B8F1670F70D131E00020B9F1110FE3
:100AD000009001DB112301E009F101030AAA01A939
:100AE0000CA8FFF7E2FEDDE90C70002609F1010514
:100AF000834647E001204B4600904FF000470AAA8A
:100B000001A90CA8FFF7D1FEDDE90DB00C995D46F7
:100B1000002610B909F101000D18B9EB050003D446
:100B2000C0F1FF3609F10105A5EB09002BE0B9F191
:100B3000010F01DA4FF001090020B9F1110F009007
:100B4000484601DD112300E003460AAA01A90CA8CA
:100B5000FFF7ABFEDDE90C704D460026834620789A
:100B600000070AD4AB4500DA5D4601A8012D04DD7B
:100B7000411911F8011C302907D04F4502DA17F14D
:100B8000040F04DA012082460FE06D1EEEE7002F0D
:100B900002DCED1B3E4403E0781CA84200DD7D1C16
:100BA000B81B00F1010A4FF000472078000703D47A
:100BB000AA4501DB4FF0FF3A0021B7F1004F0DF1DC
:100BC00043088DF8431024D002202B23002F01DA94
:100BD0007F422D230A21021EA0F1010000DC5FB13B
:100BE00097FBF1FC97FBF1F201FB1C7C17460CF123
:100BF000300C08F801CDEEE7A8F101000370218860
:100C0000090501D5452100E06521A0F1010800F8A2
:100C1000011C09980FA9A1EB0807FF1D00B10120D5
:100C2000411901EBEA70A1693844081A401EA0611D
:100C30002078C00602D42046FFF732FB099828B17D
:100C4000D4E901219047206A401C20622078C00628
:100C500022D52046FFF724FB1EE0002E04DBB3451F
:100C600002DD01A8805D00E03020D4E90121904739
:100C7000206A401C2062761CAAF101005FEA000A8B
:100C80000AD100F027FBC0680168405CD4E901216B
:100C90009047206A401C2062281EA5F10105DCDC7B
:100CA00007E0D4E9012118F8010B9047206A401CA5
:100CB0002062381EA7F10107F3DC2046FFF706FB90
:100CC000032011B041E6000001694A1C0261087866
:100CD000704700B58FB0CDE901310021059105497C
:100CE0007944CDE9031011466846FFF73DFB0FB08C
:100CF00000BD0000E5FFFFFF0A6802F8010B0A6073
:100D000070473A2800D2303820F02002412A01D31F
:100D1000A2F13700884201D34FF0FF307047000046
:100D20002DE9FF4F06468BB00878FF2806D0491CF6
:100D30002D2805D000244FF0000908E000200CE029
:100D40000124F8E709EB8903491C00EB4309087803
:100D5000FF28F7D114B1C9F10000814610780025B1
:100D60002C46AA4629462D2801D02B2804D1521CF6
:100D70002D2813D0002082468B461078FF280FD0F4
:100D80004FF0000C0A21521CA5FB017804FB0181E5
:100D900005FB0C11C5194BEB0104EEE70120EAE756
:100DA000002108464FF00000BAF1000F02D000EB1E
:100DB00080004008C0F38157012F01DD4FF0FF375D
:100DC0000E9955EA040009EB01080BD04FF0020917
:100DD00018F5FA7F16DA4FEACA70002F706008DD46
:100DE000012007E04FEACA70C6E900B00FB0BDE8C5
:100DF000F08F0020306000F071FAC0F800901821E8
:100E0000084616E0B8F5FA7F18DD002F02DAF74839
:100E1000784401E0F6487844D0E90010C6E90010B3
:100E200040EACA70706000F059FAC0F800901421CE
:100E300008460FB0BDE8F04F09F09DBC0021084600
:100E40004FF00000B8F10001099002DAC7F100028A
:100E500000E03A4601DAC8F1000106A800F08AFC79
:100E600006AB93E8070003AB83E8070044F23E00BB
:100E70005BEA04010090584604D144F21E012C465E
:100E80005D460091210C0904014306D10099240418
:100E900044EA15442D041039009104F07F410143C8
:100EA00006D10099240244EA15642D020839009104
:100EB00004F07041014306D10099240144EA1574FD
:100EC0002D01091F009104F04041014306D1009912
:100ED000A40044EA9574AD00891E009104F000411D
:100EE000084304D100986D196441401E00904FF0F2
:100EF00001033A466846B8F1000FCDE9014503A960
:100F000002DD01F074FA01E001F047FABAF1000FD6
:100F100004460D4601D084F00044002108464FF0FD
:100F20000000099940F2FF77484010F00C0F07D1FC
:100F300024F00040284303D0C4F30A50B84212D131
:100F400000F0CCF9C0F80090C4F30A50B8420AD1BE
:100F5000A8487844D0E90010C6E9001004F0004128
:100F60000843706042E7C6E900543FE72DE9FF4FB0
:100F70001F464FF0000A4FF0FF38454691B0D7E9C1
:100F80000146CDF83CA000F0A5F9C0680168405CBE
:100F90001090B96912986D1C8847396A8146884754
:100FA0000028F6D1B9F1FF3F0AD0002E24F4D06416
:100FB00011DDB9F12B0F08D0B9F12D0F0BD102E0E3
:100FC000404615B013E744F48064B96912986D1C6B
:100FD0008847761E8146600504A901D52D2000E0D2
:100FE0002B20002E01F1010B0DF130088DF81000BF
:100FF0003FDDB9F1690F08D0B9F1490F05D0B9F15A
:101000006E0F02D0B9F14E0F1CD13B4601A80095DE
:1010100080E85002DDE912126FF0020009F014FCC2
:10102000C11CCED10EE0B96912986D1C884781466B
:101030001398761E44F4007405600F98401C002E2F
:101040000F9016DDB9F1300FEDD0B9F1780F02D065
:10105000B9F1580F0DD10F9801280AD13B46CDE9BF
:101060000054DDE91212001F029609F0EBFBC11CCF
:10107000A7D1109989453ED144F0800406E0139928
:10108000681CAAF1010A44F400740860B9696D1C77
:101090001298761E884730288146F0D02BE01099B0
:1010A000894505D1200603D4761E44F0800418E05B
:1010B000484604F0DEFA08B3761E0DF123018B4595
:1010C00044F4007408D2A9F130000BF8010B20069B
:1010D00007D5AAF1010003E0200602D40AF10100BD
:1010E0008246A00502D51399681C0860B969129858
:1010F0006D1C88478146002ED1DC53E0002E51DD67
:10110000B9F1650F02D0B9F1450F4BD1A00549D512
:10111000B9696D1C1298761E24F440748847002E1D
:1011200081460CDD2B2804D0B9F12D0F07D144F4F2
:101130008074B96912986D1C8847761E8146E00557
:1011400001D52D2100E02B2108F8011BCDF80080EE
:1011500021E0761E0DF13901884544F400740CD26B
:10116000A9F1300010F0FF0088F8000002D10099CA
:10117000884509D908F1010806E0E00501D51E48B7
:1011800001E042F20F708246B96912986D1C8847DF
:10119000814613980560002E04DD484604F069FA84
:1011A0000028D6D1F96912988847FF2053468BF85A
:1011B000000088F8000000200A900B9004AA0CA9F7
:1011C0000AA8FFF7ADFDA00502D46FF00100F8E614
:1011D00014F0240F12D0E0071CD13868DDE90A12A0
:1011E000031D3B600068C0E9001213E050E50000F9
:1011F00042E5000006E40000F1D8FFFF0AA96846B6
:1012000004F0C6F9E00705D13868009A011D39607D
:10121000006802602846D4E6026811441378016031
:1012200018467047D16005497944516104497944B1
:10123000116200211161114600F0E2B8EDFFFFFFDD
:101240003D010000426842B1016811F8013B23B141
:10125000521EC0E90012184670470121C160881E65
:10126000704742685AB1C368016843B983688B42CA
:1012700005D0491E521CC0E90012002070474FF0F3
:10128000FF3070474FF0000200B513469446964673
:10129000203922BFA0E80C50A0E80C50B1F1200189
:1012A000BFF4F7AF090728BFA0E80C5048BF0CC037
:1012B0005DF804EB890028BF40F8042B08BF704795
:1012C00048BF20F8022B11F0804F18BF00F8012B07
:1012D0007047000000487047A02000200048704779
:1012E0008020002030B5B0F10A024FEA900E71F173
:1012F00000034EEA817EB0EB0E0061EB91014FEAF4
:10130000101E4EEA017E10EB0E0041EB11114FEA68
:10131000102E4EEA016E10EB0E0041EB11214FEA48
:10132000104E4EEA014E10EB0E0041EB11414018F9
:1013300041F100014FEAD00040EA41704FEAD1018B
:1013400010EB80054FEA810444EA907444EB0104F9
:101350006D1944EB0404521BA3414FF0000348BF36
:101360000A3200D530BD401C41F1000130BD10B53E
:10137000044600F09BFA0068005D00F0010010BD1B
:101380002DE9F0411F46044603260168072A01F4AF
:10139000006004DB08B116A505E016A503E008B15E
:1013A00015A500E015A521F010002060A069C01E61
:1013B000A0610FB1401EA0612046FEF771FF4FB142
:1013C000D4E9012138469047206A401C2062C01CA5
:1013D000206206E0206AFAE7D4E9012115F8010B42
:1013E0009047761EF8D22046FEF770FFBDE8F081E8
:1013F0004E414E006E616E00494E4600696E6600B9
:101400002DE9F34F4FF0000A0C4656468DB00120EF
:101410000C9001F10C000B9062690B980121904730
:10142000051E2DD0252D2CD0216A8847C0B16269B8
:101430000B9801219047216A88470028F7D16269FB
:10144000411E0B98904700E0761CA1690D988847D3
:10145000216A88470028F7D1E1690D988847DBE7C2
:10146000A1690D988847A842074601D1761CD3E7A9
:10147000E1690D9888477F1C02D1BAF1000F6FD047
:101480006CE162690B9800273D46394690472A284F
:1014900004D162690B98012190470125DFF8D082C1
:1014A00062690B9801219047A0F130010A290AD204
:1014B0004745E5DC07EB870100EB4107303FDFD410
:1014C00045F01005ECE7E90601D46FF000476C2801
:1014D0000AD04C2814D0682815D06A280DD074285A
:1014E0001CD07A281AD01DE062690B980121904720
:1014F0006C2802D045F0040514E045F002050DE02B
:1015000045F020050AE062690B98012190476828A0
:1015100002D045F0080505E045F4006562690B98C6
:1015200001219047C4E9015765283DD019DC5828AE
:101530007AD00CDC452837D004DC252826D0412879
:101540009ED131E046282FD0472899D12CE05B2846
:1015500077D0612828D063287CD0642823D15AE032
:10156000F7E06F2848D008DC66281DD067281BD01C
:10157000692821D06E2816D127E0702845D073281D
:1015800068D0752847D078280DD14DE0A1690D9815
:101590008847252805463FF469AFE1690D988847DB
:1015A0006D1C3FF46AAFD9E00D9923466A466FF08F
:1015B000010009F045F9C6E045F0400023464FF030
:1015C00000026060A80736D43EE0E8077FF447AF2A
:1015D0002068011D21600068290501D506701BE700
:1015E000290701D5068017E7A90703D5F117C0E938
:1015F000006111E706600FE745F0400023464FF019
:1016000008026060A80716D41EE040F60E0125EA25
:101610000100606016E045F0400023464FF00A02EA
:101620006060A80707D40FE045F040006060A8079D
:1016300008D5234610220D996FF00100AFF300800A
:1016400081E007E0102223460D996FF00100FEF7BC
:1016500045FF78E04FF0000963284F46C8464B46E7
:10166000CB4602D05B2807D039E02079C00601D4F0
:101670000120A060012732E06269D4F80CB00B9819
:10168000012190475E2807D14FF001094946626960
:10169000D4F80CB00B989047216939B900210A465B
:1016A00003AB43F82120491C0829FADBD8B3216990
:1016B00049B308F1010862690B98012190475D2840
:1016C000F4D1B9F1000F09D0002003A951F820206E
:1016D000D24341F82020401C0828F7DB03AB2069E7
:1016E000002820794FEA40701ED05B462246CDF894
:1016F0000080CDE901970D9900286FF0010020DAF4
:10170000AFF300801FE0C11703AA00EBD1614B11BA
:1017100021F01F0102EB8302411A13680120884067
:1017200003431360C7E719E00D99224600286FF0C4
:101730000100009702DAAFF3008004E0AFF300800D
:1017400001E0AFF3008000280ADA401C06D10C98B3
:1017500020B14FF0FF300FB0BDE8F08F5046FAE7F0
:10176000E90701D10AF1010A064400200C9053E672
:10177000CCCCCC0C2DE9F047814616468AB03548D2
:1017800078440DC88DE80D0032487844801C03ACC5
:101790000DC884E80D0041F69B300844372190FBCA
:1017A000F1F290FBF1F5A5F1800501FB12041B3C61
:1017B00002D56442012000E00020DFF898A08046B6
:1017C0000027FA44AAF1BE0A0EE0E0070AD032462A
:1017D000684607EB470101230AEB810100F0F2FDA7
:1017E0008DE8070064107F1C002CEED1194F7F4458
:1017F000AE3F19E0E80715D007EB04100DF1180A09
:1018000090E80E008AE80E00C068F04201D19819F5
:1018100008903246012306A903A800F0D3FD03ABCC
:1018200083E807006D10641C002DE3D14FF0010325
:1018300032466946B8F1000F03A802D000F098FDC7
:1018400001E000F0BFFDC9E90001C9F808200AB0B5
:10185000BDE8F087A0DB0000004870478020002032
:101860007546FFF7F9FFAE4605006946534620F07E
:101870000700854618B020B5FEF7ECFCBDE8204017
:101880004FF000064FF000074FF000084FF0000B3C
:1018900021F00701AC46ACE8C009ACE8C009ACE8EF
:1018A000C009ACE8C0098D467047000010B5FFF7CD
:1018B00011FD001D10BD00BF8185000010B5FFF7B0
:1018C0000DFD006810BD10B50446FFF707FD04606C
:1018D00010BD00002DE9FF4F1F464FF03C0987B0B7
:1018E0004FF00042DDE9141001F10108DDF858A0C5
:1018F00002EA4050039000200590834605460446C6
:101900000490B969461E08988847AAF1010A029016
:10191000BAF1000F3BDD02982E2815D01021FFF7F9
:10192000F0F900282EDB4FF0010B0599014317D089
:10193000B9F1000F0BDB4A46C11700F03FFA05432F
:101940000C43A9F1040905E0012004900BE008B163
:1019500045F0010501200590049820B9361D02E0EC
:10196000049800B1361FB969089808F10108884742
:10197000BBF1000FAAF1010A0290C9D00999C1F880
:101980000080C5E70298702808D0502806D0F96971
:1019900008988847BBF1000F14D04FE00020029058
:1019A0000120BBF1000F049009D0B969089808F133
:1019B00001088847AAF10109B9F1000F07DCF969AC
:1019C000089888476FF001000BB0BDE8F08F2B2816
:1019D00004D02D280CD14FF0FF300490B96908983D
:1019E00008F101088847A9F10109B9F1000FE6DD06
:1019F000411CE4D00A21FFF784F90028DFDB0299BB
:101A000008F1010801EB810100EB41000290B96986
:101A1000089888470A21FFF774F9099AA9F1010982
:101A2000B9F1000FC2F8008001DD0028E7DAF9699A
:101A3000089888470499029800FB016655EA04005B
:101A400004D004F04041090002D006E0039898E079
:101A5000A40044EA9574AD00B61E04F000410800ED
:101A600002D16D196441761E159810F0240F03D031
:101A70004FF00B095C4803E04FF028096FF07D0040
:101A80008246564507DAAAEB06018944B9F1410FAF
:101A900001DD4FF0410901200021A9F1010200F010
:101AA0008DF9024628400B462140084301D0012110
:101AB00000E00021501E029143F1FF3128402140F7
:101AC000084301D0012000E000200299834651EA3A
:101AD0000B014FD0002108464FF00000039900F49D
:101AE000400039B100EB80004FF4400100EBD070B2
:101AF00001EA60008015012802DD4FF0FF3000E0B0
:101B000013D0401C36D0029860B3BBF1000F0CD14B
:101B10004A460120002100F051F9284021400843A5
:101B200001D0012000E00020E0B101204A46002160
:101B300000F044F9034640190A4661412D1A8C41D0
:101B400011D3B9F1400F09DD159810F0240F02D020
:101B5000AAF1340603E0AAF1170600E0761C00257E
:101B60004FF0004406E05B1E42F1FF3220EA03051D
:101B700021EA0204CAF10100B04206DA1B490398C7
:101B800008430190002000900EE0039AC4F3D32193
:101B9000E80A0A43164940EA44500A433146CDE96F
:101BA0000002684603F05AFD159810F0240F0BD080
:101BB0001598C00715D13868DDE90012031D3B6098
:101BC0000068C0E900120CE002A8694603F0E0FCDE
:101BD0001598C00705D13868029A011D3960006860
:101BE00002604046F0E6000002FCFFFF0000F07FCC
:101BF0000000F03F2DE9FF4F92461D4685B04FF0A3
:101C00000041DDE9124BDDE914727F1E01EA4B5001
:101C1000414940F0FF4940EA0108002122F020003C
:101C20004928049102D04E2828D04CE03BA0012640
:101C300007C88DE80700A9690698641C88477F1EBD
:101C4000014606D41DF8060018B121F0200181429A
:101C50000BD0E96906988847032E34D0082E32D07D
:101C60006FF0010009B0BDE8F08F761C032E01D0A3
:101C7000082EE0D1601CCAF80000DCE7A9690698CC
:101C8000641C88477F1E2AD420F02000412826D1DA
:101C9000A9690698641C88477F1E20D420F0200084
:101CA0004E281CD1A9690698641C88477F1E48F4F9
:101CB000002849F48009CAF8004001D4282806D039
:101CC000E969069888475FEACB7012D022E0A969DB
:101CD0000698641C88477F1E01D4002803DAE9694E
:101CE00006988847BCE72928F1D1641CCAF800404F
:101CF000E9E71BF0240F07D028680499031D2B6027
:101D00000068C0E9001805E02868021D2A60006824
:101D1000C0F800902046A5E70000F07F494E4649F4
:101D20004E4954590000000010B50446AFF300803E
:101D30002046BDE81040FEF778BA00004FF0013CA5
:101D400050F8042B51F8043B9A4221D1A2EB0C032A
:101D5000934313EACC1317D150F8042B51F8043BEA
:101D60009A4215D1A2EB0C03934313EACC130BD187
:101D700050F8042B51F8043B9A4209D1A2EB0C0312
:101D8000934313EACC13DBD04FF00000704700BF41
:101D9000D01A01BAB1FA81F101F0180122FA01F06A
:101DA000CB40C1F12001DBB2C0B2C01A2CFA01F362
:101DB000D11A914311EAC311E6D17047B2F1200361
:101DC0000AD5C2F1200301FA02F120FA03F300FA66
:101DD00002F041EA0301704700FA03F14FF00000FE
:101DE0007047000001491820ABBEFEE72600020044
:101DF00070475FEA400C08BF91F0000F4FEA8C2358
:101E00004FEAC12243EA51514FEA1C5018BF00F576
:101E1000F0404FEA300018BF41F000415FEA6C5CCF
:101E200000F02980BCF1FF3F08BF40F080407047C0
:101E3000130C06BF12044FF0100C4FF0000C130EE1
:101E400004BF12020CF1080C130F04BF12010CF1B5
:101E5000040C930F04BF92000CF1020CD30F04BFCB
:101E600052000CF1010C11464FF00002A0F11F00CE
:101E7000A0EB0C00704711F0004F08BF704731F025
:101E800000413FF4D5AF0B0C06BF09044FF0100C16
:101E90004FF0000C0B0E04BF09020CF1080C0B0FE5
:101EA00004BF09010CF1040C8B0F04BF89000CF175
:101EB000020CCB0F04BF49000CF1010CCCF1200344
:101EC000A0EB0C0022FA03F302FA0CF241EA030140
:101ED00000F10100704720F07F4C80EA030023F0FE
:101EE0007F47ACEB070303F57C5300F0004003F1A0
:101EF000FF032DE980494FEA154B09B44FEA14431B
:101F000025EA0B4E24EA03480FF2042606EB1327BA
:101F100049083E785FEA320203FB0667C7F500070F
:101F200007FB06F64FEA54374FEAD64606F102069B
:101F300007FB066CCCF1005C4FEA1C472CEA074C0F
:101F400007FB06F40CFB06F504EB15464FEA961664
:101F500034BF00204FF000404FEAD13706FB07FCAA
:101F60004FEA1C4C0CFB0BF7D21B03FB0CF761EB8D
:101F700007010CFB0EF7B0EB074072EB17420CFBAE
:101F800008F734BFA2EB0742B2EB074261EB1741FF
:101F90004FEA0C444FEA910706FB07FC4FEA1C4C42
:101FA0000CFB0BF7B0EBC74072EB573203FB0CF79F
:101FB00034BFA2EBC742B2EBC74261EB57310CFB17
:101FC0000EF7B0EBC70072EB57720CFB08F734BF8B
:101FD000A2EBC702B2EBC70261EB5771039F4FEA56
:101FE000816141EA921104EBCC044FEAD1374FEA08
:101FF000826206FB07FC42EA90124FEA80604FEAD9
:102000001C4C0CFB0BF7D21B03FB0CF761EB07011D
:102010000CFB0EF7B0EB074072EB17420CFB08F716
:1020200034BFA2EB0742B2EB074261EB17414FEA24
:102030008C554FEA910704EB9C2406FB07FC4FEA02
:102040001C4C0CFB0BF7B0EBC74072EB573203FB99
:102050000CF734BFA2EBC742B2EBC74261EB57317A
:102060000CFB0EF7B0EBC70072EB57720CFB08F7D6
:1020700034BFA2EBC702B2EBC70261EB577115EB9D
:102080004C254FEA816141EA92114FEA82624FEAA0
:10209000D13742EA901206FB07FC44F100044FEAF4
:1020A00080604FEA1C4C0CFB0BF7D21B03FB0CF7B8
:1020B00061EB07010CFB0EF7B0EB074072EB174228
:1020C0000CFB08F734BFA2EB0742B2EB074261EB0F
:1020D000174115EB1C154FEA813141EA92414FEA55
:1020E000823242EA90424FEA80304FEA0C7644F165
:1020F000000448EA03434EEA0B484FF0000EB2EBEF
:10210000080C71EB030724BF624639464EEB0E0EF6
:102110004FF0000B0018524149414BEB0B0BB2EB57
:10212000080C71EB03077BF1000B24BF62463946B4
:102130004EEB0E0E4FF0000B0018524149414BEB95
:102140000B0BB2EB080C71EB03077BF1000B24BF08
:10215000624639464EEB0E0E51EA020718BF46F0B2
:10216000010616EB0E7655F1000254F1000103D57D
:10217000BDE88901BDE80088BDE88901BDE80048E7
:10218000B619524141EB0101A3F101037047808070
:102190007F7E7D7C7B7A79787776767574737271C1
:1021A00071706F6E6E6D6C6C6B6A6A696868676679
:1021B00066656464636362616160605F5F5E5E5D0B
:1021C0005D5C5C5B5B5A5A5959585857575656557F
:1021D00055555454535352525251515050504F4FE1
:1021E0004F4E4E4D4D4D4C4C4C4B4B4B4A4A4A4931
:1021F0004949484848474747474646464545454474
:10220000444444434343434242424241414100002B
:1022100046EA0646A3F570534FEA164646EA42568A
:102220004FEAD22242EA415210B54FEAD121A3F13E
:10223000010300F02FF820F0004000F1020C00F044
:10224000004701EB00501146BCF5006F40EA070063
:1022500000D210BDBAF1000F0AD01CB503B44FF084
:1022600004004FF004014FF000000FBCBDE8104027
:102270004FF00001BBF1010FB9BF04484FF0FF312F
:102280000348002140EA070010BD00BFFFFFEF7FB9
:102290000000F07F002B9C4630D477002BD01CB57B
:1022A0004FEA370703B44FF010004FF01001BAF1B6
:1022B000000F06D0BCF1000FDCBF40F0080040F07A
:1022C00008014FF000000FBCBDE810400BF1010BFE
:1022D000BBF1010F08BF5FEA170722BF12F101022D
:1022E00011F101014FF0004143F1000300F0004003
:1022F00043EA00007047F9D35708D0E746EA06469C
:1023000013F1400F4FEA16461FDD13F1200FDFBF18
:1023100016430A46002120335B42BED0C3F120079A
:1023200046EA064602FA07F74FEA164646EA070665
:10233000C3F1200722FA03F201FA07F721FA03F1A9
:102340004FF0000342EA0702A7E746EA020646EA20
:1023500006464FEA164646EA0106BCBF46EA06466E
:10236000360C4FF000034FF000024FF0000194E7ED
:102370002DE9804C9A46934670B491E8380007C81E
:1023800031EA400C48BF34EA430C03D5FFF7A3FD04
:10239000FFF780FFF0BCBDE8008C2DE9804C9A4629
:1023A000934670B491E8380007C831EA400C48BF42
:1023B00034EA430C03D5FFF78EFDFFF729FFF0BC8D
:1023C000BDE8008C2DE9804C9A46934670B491E8A4
:1023D000380007C810F0804F08BF13F0804F03D1BA
:1023E00000F01AF8FFF756FFF0BCBDE8008C2DE9AD
:1023F000804C9A46934670B491E8380007C810F0B4
:10240000804F08BF13F0804F03D100F005F8FFF7AD
:10241000FFFEF0BCBDE8008C20F07F4780EA03009F
:1024200023F07F4C07EB0C03A3F57C5300F0004036
:10243000A3F1FE0392F0000F00F0B38095F0000FBF
:1024400000F077802DE901494FEA11404FEA144628
:1024500021EA004800FB06FC24EA064708FB06F6D2
:1024600007FB08F800FB07F718EB06484CEB164C87
:102470004FEA124B18EB07484FEA15464CEB174052
:1024800022EA0B4E0BFB06FC25EA06470EFB06F67E
:1024900007FB0EFE0BFB07F71EEB064E4CEB164C34
:1024A0004FF000061EEB074E4CEB174B18EB0B08DA
:1024B00040F1000018EB0E0B58EB000840F1000053
:1024C0008F1A4FF000013CBFC943661B14BFB5EB28
:1024D000040C00213CBFC943F61B4FEA17444EEAE7
:1024E0008E0E27EA04454FEA1C4704FB07622CEADC
:1024F000074C05FB07F70CFB05F604FB0CFC16EB81
:10250000074642EB174216EB0C4642EB1C421BEB14
:10251000060658EB0202414146EA9E0601D5BDE897
:102520000189B619524141EB0101A3F10103BDE854
:1025300001894FEA14454FEA114724EA054621EA8A
:10254000074C05FB07F406FB07F70CFB06F105FB40
:102550000CFC11EB074144EB17444FEA124711EB17
:102560000C4144EB1C4422EA074C05FB07F206FB36
:1025700007F70CFB06F605FB0CFC16EB074642EBD7
:10258000174216EB0C4642EB1C456A1854F1000149
:1025900048BF7047B619524141EB0101A3F1010355
:1025A000704795F0000F37D04FEA11424FEA1447B9
:1025B00021EA024624EA074C02FB07F106FB07F773
:1025C0000CFB06F402FB0CFC14EB074441EB174137
:1025D0004FEA154714EB0C4441EB1C4125EA074C2C
:1025E00002FB07F506FB07F70CFB06F602FB0CFCEB
:1025F00016EB074645EB174516EB0C4645EB1C4220
:10260000121951F1000148BF7047B619524141EB10
:102610000101A3F1010370474FEA14454FEA114746
:1026200024EA054621EA074C05FB07F106FB07F7FC
:102630000CFB06F24FF0000605FB0CFC12EB074208
:1026400041EB174112EB0C4251EB1C4148BF704764
:10265000921841EB0101A3F1010370472DE9F0410C
:102660000025002401F08AFC0746384607F0BEFE2C
:102670008046084907F0D8FD0646074907F0FEFEE8
:1026800005462146284601F09FFC04462046BDE849
:10269000F081000000F07F453333534010B540F225
:1026A000046006F08FFE40F2096006F08BFE022007
:1026B00006F0D2FD1A4803F027F8002003F098F83E
:1026C00000220221164803F00AF900224FF480711B
:1026D000134803F004F90021114803F009F801221E
:1026E00011460F4802F0E1FF07230B2200210C489E
:1026F00003F08CF84FF460220121094803F058F8E8
:1027000001221146064803F034F8054803F028F882
:10271000012003F07FF9024802F0B2FF10BD000073
:1027200000240140002804DD4FF40041034A1161F8
:1027300003E04FF40041014A51617047001001402D
:1027400010B501F007FDFFF7A9FF10BD10B540F26D
:10275000036006F037FE4FF4406303221421034860
:1027600003F002FA00F028FE10BD0000000C01404A
:1027700010B540F2026006F025FE40F2036006F05C
:1027800021FE40F2046006F01DFE40F2056006F0F6
:1027900019FE4FF4005303221021344803F0E4F9EA
:1027A000042303221021314803F0DEF94FF4804363
:1027B000032210212D4803F0D7F90823032210210A
:1027C0002A4803F0D1F94FF400430322102127488F
:1027D00003F0CAF94FF4007303221021234803F0D9
:1027E000C3F9012303220421204803F0BDF94FF46B
:1027F0008073032204211E4803F0B6F94FF40063EE
:10280000032204211A4803F0AFF902230322042112
:10281000174803F0A9F91748006800F0040008B150
:10282000012000E00020012803D1642003F0F2F829
:1028300010E004E0601CC4B20A2003F0EBF80D487D
:10284000006800F0040008B1012000E0002008B991
:10285000962CEFDB4FF40050044908610420086116
:10286000000308610820086110BD0000001001404D
:10287000000801400814014010B5FFF779FFFFF789
:1028800065FFFFF75DFF00F00FF800F035F800F08E
:102890008BF800F0A9F800F0AFF8322002F0D4FA7B
:1028A00001F0E2FF10BD000010B540F2036006F039
:1028B00089FD40F2056006F085FD0E494B68032254
:1028C0000868042103F050F90A49CB68032288689C
:1028D000042103F049F907494B69032208690421DF
:1028E00003F042F90349CB6903228869042103F00C
:1028F0003BF910BD1800002000B587B040F202700F
:1029000006F060FD40F2036006F05CFD4FF40073DA
:1029100003221821224803F027F9224806F0CEFFAF
:102920003520ADF800000020ADF80200ADF804003D
:1029300040F2E73002900020ADF80C008DF80E0058
:102940006946184807F050F80020ADF8140001203F
:10295000ADF810000020ADF81600ADF81200ADF88B
:102960001800ADF81A0004AA03210E4806F040FE34
:1029700040F2F31203210B4806F05DFF60220321B1
:10298000084806F02BFF00220321064806F066FFE8
:10299000044806F027FE034806F0FEFF07B000BD1E
:1029A000000C01400008004008B50020009040F2F3
:1029B000036006F007FDC02303221421094803F039
:1029C000D3F802F0E9F901200090012269460E20B7
:1029D00002F012FA2C200090012269460F2002F02A
:1029E0000BFA08BD000C014010B502F0D3FA02F05A
:1029F00023FB02F077FB10BD10B540F20E6006F02D
:102A0000E1FC40F2026006F0DDFC40F2117006F0DD
:102A1000D9FC40F2046006F0D5FC40F2137006F0D9
:102A2000D1FC07F0A7F840F20E6006F0CBFC4FF4A3
:102A3000007303221821444803F096F84FF4806392
:102A400003220421404803F08FF8404807F016F9AC
:102A50004FF4E1313D4807F0BFF800213B4807F053
:102A6000ADF90021394807F0C9F90021374807F0CE
:102A7000B5F90021354807F058F90021334807F02F
:102A80004AF90821314807F0B1F904212F4807F02D
:102A90009DF92E4807F03AF940F205312B4807F02E
:102AA0005BF900221146252006F06AFB4FF48053A3
:102AB00003221021264803F057F84FF480630322C5
:102AC0001821234803F050F84FF400630322042137
:102AD0001F4803F049F81F4807F0D0F84FF416518B
:102AE0001C4807F079F84FF480611A4807F066F93E
:102AF0000021184807F082F94FF40051154807F0FB
:102B00006DF90021134807F010F90021114807F072
:102B100002F908210F4807F069F904210D4807F070
:102B200055F90C4807F0F2F840F20531094807F072
:102B300013F903220021342006F022FB4FF48050C9
:102B40000349486110BD0000000801400038014001
:102B500000100140004C0040014600201E4A12783F
:102B60008A4204D01C4A117000221C4B1A701B4A66
:102B7000127822B1012A0ED0022A28D119E0184A6F
:102B8000525C184B1A70184A525C184B1A7001228A
:102B9000124B1A7000BF134A127832B10120114A49
:102BA0001278521E0F4B1A7002E002220B4B1A7061
:102BB0000FE00E4A127832B100200C4A1278521EF1
:102BC0000A4B1A7002E00022044B1A7001E0002048
:102BD00000BF00BF70470000AB030020AA03002025
:102BE00092A80008AC0300209CA80008AD030020B8
:102BF00000BFFEE7014601F00F000A1102EB82025E
:102C000000EB4202D0B2704701460A2291FBF2F279
:102C1000D0B20207100E0A2291FBF2F302FB13124C
:102C20000244D0B2704700001948806800F00100EB
:102C300008B9002070471748006800F4807008B198
:102C4000012000E0002000280ADD1248006800F49E
:102C5000006008B1012000E0002008B90120E9E788
:102C60000C48006800F4807008B1012000E00020EA
:102C700058B90848006800F4006008B1012000E07D
:102C80000020002801DD0220D4E70020D2E7000068
:102C90000010014008080140002804DD4FF40071D5
:102CA000034A116103E04FF40071014A516170471A
:102CB000001001400248806800F0010070470000E9
:102CC0000010014010B5FFF7F5FF30B90020FFF705
:102CD000E3FF00200F4908701AE0FFF7BFFC6328EC
:102CE00006DD0020FFF7D8FF02200A4908700FE038
:102CF000FFF79AFF012805D1FFF7CEFF0120054914
:102D0000087005E00020FFF7C7FF022001490870A6
:102D100010BD0000A9030020F0B591B006460F4693
:102D200000250024224601A9024806F0FDFE11B04C
:102D3000F0BD0000B80300207047000070B5B6B0C9
:102D400005464FF07E562B48407E002834D00024A4
:102D500008E028488068005D00F07F0002A908555F
:102D6000601C84B22348C08AA042F2DC2248234A75
:102D7000127800EBC201052202A8FDF755FCB8B994
:102D80001F480078022808D101A835AB34AA1DA13C
:102D90000090C01DFDF784FB05E034AA1CA10DF1D5
:102DA0000B00FDF77DFB1C480078401C1A49087099
:102DB00000201049C88248760DB936B070BD0F4862
:102DC0000078401C0D490870084600780A2801DB8D
:102DD000002008700848094A127800EBC201082256
:102DE000044806F0A1FE0D480078401C0B4908700D
:102DF00000BFE2E7D407002086000020D6000020B4
:102E000058000020524420256620256420256600B5
:102E100052442025662020008500002084000020E8
:102E20002DE9F04707460C4615461E46DDF8208082
:102E3000B8F1640F01DD4FF0640805FB08F0642170
:102E400090FBF1F000F0FF0933464A462146384630
:102E500000F0ECFE33462A462146384600F0B2FF29
:102E6000A0190830C1B2002307A2384600F0CBFFFA
:102E7000A2190832D1B27A19203AD0B2002303A2A3
:102E800000F0C1FFBDE8F08730250000313030256B
:102E9000000000002DE9F04106460F46FFF70AFF4B
:102EA0000546074800780A2190FBF1F0C4B22B4692
:102EB00022460021D52000F059FBBDE8F08100003A
:102EC000500000202DE9FE4306460C461746984662
:102ED00000250020009001900290652314222146D5
:102EE000304600F06FFF00BF0AE004F16400401BB1
:102EF000C1B200231422304600F0AEFE681CC5B2F9
:102F0000BD42F2DB3A4608A16846FDF7B5F904F187
:102F10002802D1B206F11E02D0B243466A4600F042
:102F2000B5FFBDE8FE830000256400002DE9FF5FCA
:102F300004460D46164699464FF0000AD346002037
:102F400003900090019002903049304607F062FBF8
:102F500005D22E49A431304607F066F906463046C0
:102F600007F0C8F807463A460B4629A16846FDF720
:102F700083F96846FDF784FBC0F1060000EB4000D2
:102F800004EB4000C7B200236A462946384600F0E9
:102F90007DFFB9F1000F09D0B9F1010F11D0B9F1DE
:102FA000020F19D0B9F1030F2CD120E005F118025E
:102FB000D1B204F11802D0B2002317A200F066FFCC
:102FC00021E005F11802D1B204F11802D0B20023B9
:102FD00013A200F05BFF16E005F11802D1B204F174
:102FE0001802D0B2002310A200F050FF0BE005F150
:102FF0001802D1B204F11802D0B200230BA200F0E3
:1030000045FF00E000BF00BFBDE8FF9F5CFF7944C3
:1030100025332E32660000007553762F68000000BD
:103020006D53762F68000000755376006D5376005F
:103030002DE9FE4F04460D46904699460027BA46B4
:10304000002600200090019002904949404607F078
:10305000E1FA05D24649A431404607F0E5F880463A
:103060004FF07E51404607F009FA834607F09EF97B
:1030700087B24049404607F001FA834607F096F9C7
:103080006421B0FBF1F201FB120AB9F1000F09D083
:10309000B9F1010F11D0B9F1020F19D0B9F1030F35
:1030A0002CD120E005F13C02D1B204F14602D0B2AD
:1030B000002331A200F0EAFE21E005F13C02D1B28A
:1030C00004F14602D0B200232DA200F0DFFE16E08C
:1030D00005F13C02D1B204F15E02D0B200232AA273
:1030E00000F0D4FE0BE005F13C02D1B204F15E0227
:1030F000D0B2002325A200F0C9FE00E000BF00BF4F
:10310000632F01DD002604E0092F01DD012600E028
:1031100002263A461EA16846FDF7AEF80DEB060200
:103120000C2101FB0641C8B20023294600F00BFF29
:10313000524618A16846FDF79FF804F154010C228D
:1031400002FB1611C8B200236A46294600F0FBFEB6
:1031500005F11002D1B204F148020C2303FB162240
:10316000D0B200232E2200F071FBBDE8FE8F0000DC
:103170005CFF79440000C8427553762F6800000058
:103180006D53762F68000000755376006D537600FE
:103190002533640025303264000000002DE9F04141
:1031A00004460F4616461D464FF000080DB9012192
:1031B00000E000210B463278E0B2394600F0B4FC62
:1031C000012D01D1012100E000210B46727804F1AC
:1031D0001801C8B2394600F0A7FC022D01D1012127
:1031E00000E000210B46B27804F13001C8B2394644
:1031F00000F09AFC07F11002D1B204F14802D0B2FB
:1032000000232E2200F022FB032D01D1012100E03A
:1032100000210B46F27804F15401C8B2394600F09F
:1032200083FC042D01D1012100E000210B463279FD
:1032300004F16C01C8B2394600F076FC707930B107
:10324000012814D0022822D0032840D12FE0052DD8
:1032500001D1012200E00022134607F13C02D1B265
:1032600004F11A02D0B21CA200F053FE30E0052D8A
:1032700001D1012200E00022134607F13C02D1B245
:1032800004F11A02D0B216A200F043FE20E0052D90
:1032900001D1012200E00022134607F13C02D1B225
:1032A00004F12402D0B210A200F033FE10E0052D8C
:1032B00001D1012200E00022134607F13C02D1B205
:1032C00004F12402D0B208A200F023FE00E000BF07
:1032D00000BFBDE8F08100007553762F6800000044
:1032E0006D53762F680000007553760000B587B0E7
:1032F00000210846FFF7CEFD0020049005900690BF
:103300000290039002A800F0F9FE9DF808000090DA
:103310009DF809309DF80A2005A104A8FCF7ACFF30
:10332000002304AA1946184600F06DFD07B000BD41
:10333000253032643A253032643A25303264000058
:1033400070B506460D4614460CB9012100E0002177
:103350000B4606F10C01C8B20FA2294600F096FDFB
:10336000012C01D1012000E00020034605F12000DE
:10337000C1B20AA2304600F089FD022C01D1012021
:1033800000E00020034605F14000C1B205A230462E
:1033900000F07CFD70BD0000637073007553762FE4
:1033A000680000007547792F6800000010B50A20FA
:1033B00002F03CFB10BD000010B54FF4006007495F
:1033C00008604010091F0860FFF7F0FF4FF400602D
:1033D0000249091F0860FFF7E9FF10BD140C014006
:1033E00070B55648006807F001F806464FF07E5168
:1033F00006F01AFF054652484169284607F00AF8C8
:1034000024D200204F498860C8604D4A51695068F5
:1034100007F000F915D24B480069401C4949086182
:1034200008460069052806D9002008612946454854
:1034300002F08FFC55E042484168424802F07CFCB3
:103440004FE029463F4802F077FC4AE000203D4922
:1034500008613B4948683C4907F010F80646294690
:1034600006F0D8FF17D200203649C86008468068A9
:10347000401C886008468068052806D900208860BE
:103480002946304802F065FC2BE02D4841682D4864
:1034900002F052FC25E02A4948682C4906F0EEFF6C
:1034A0000646294607F0B6F817D20020254988605D
:1034B0000846C068401CC8600846C068052806D990
:1034C0000020C86029461F4802F043FC09E01C4860
:1034D00041681C4802F030FC03E02946194802F01C
:1034E0002BFC184802F01EFB154948600846007E78
:1034F00018B90846406888601EE0114AD1685068D3
:1035000006F0BCFF04460E480169204607F082F829
:1035100005D20B480169204607F0B8F80446084870
:10352000007E012806D10A49204606F0A7FF04497B
:10353000886001E00248846070BD00004C000020FB
:103540008C0D0020A80D00206666A63F3333333F64
:10355000E17A943F10B5044801F06EF94FF49651AA
:103560000148FDF723F910BDC00D00202DE9FF5FD4
:103570000646894693464FF0020A1A2748464FEA04
:10358000E97109EB5171C1F3C708F019F02801DBAB
:10359000BDE8FF9FBBF10A0F01DD4FF00A0B039856
:1035A000002848D0002443E000251AE0701908EBF9
:1035B0000401C1EB011100EB01102C49085C002152
:1035C00007FB041129442A4A515C0843711908EB8E
:1035D0000402C2EB021201EB0211244A5054681C8F
:1035E000C5B2BD42E2DB00251EE0701D284408EB99
:1035F0000401C1EB011100EB01101C49085C4FEA0A
:103600000A11102202FB041129441A4A515C084392
:10361000711D294408EB0402C2EB021201EB0211F6
:10362000124A5054681CC5B2102DDEDB601CC4B2B7
:103630005445B9DBACE7002414E00AFB07F202FBB7
:103640000BF207FB04220A4BD11808EB0402C2EB71
:10365000021206EB0212054BD0183A46FDF72FF87E
:10366000601CC4B25445E8DB00BF91E7C00D0020E8
:1036700072DA0008EEDC00082DE9F04704460D463A
:103680009C4602270823A8464FEAE57905EB5979BD
:10369000C9F3C7060A2A03DA02F1300808F0FF026C
:1036A000002064E0002157E0BCF1000F27D104EBBB
:1036B000010806EB0009C9EB091908EB0918DFF846
:1036C000B89019F80890A2F1200807FB03FA08FB4C
:1036D0000AF803FB00888844DFF8A0A01AF80880E5
:1036E00049EA080904EB010806EB000ACAEB0A1ACA
:1036F00008EB0A18DFF880A00AF8089028E004EB2D
:10370000010806EB0009C9EB091908EB0918DFF8F5
:10371000689019F80890A2F1200807FB03FA08FB4B
:103720000AF803FB00888844DFF850A01AF80880E4
:1037300069EA080909F0FF0804EB010906EB000A31
:10374000CAEB0A1A09EB0A19DFF82CA00AF809805B
:1037500001F1010808F0FF01994204DA04EB0108C5
:10376000B8F1EF0FA0DB00F1010808F0FF00B8424C
:1037700098DBBDE8F0870000C00D0020A6A8000877
:103780002DE9FF4F064688469B464FF0020A102758
:1037900040464FEAE87108EB5171C1F3C7090025B3
:1037A0004BE0002442E0BBF1000F1ED1029800F074
:1037B000F9FC0AFB07F1484307FB050020442149B7
:1037C000085C311909EB0502C2EB021201EB021190
:1037D0001D4A515C0843311909EB0502C2EB021284
:1037E00001EB0211184A50541EE0029800F0DAFC76
:1037F0000AFB07F1484307FB050020441149085C18
:10380000311909EB0502C2EB021201EB02110E4A5B
:10381000515C61EA0000311909EB0502C2EB0212AA
:1038200001EB0211084A5054601CC4B2BC4202DAD7
:103830003019EF28B7DB681CC5B25545B1DBBDE8D0
:10384000FF8F00002EDD0008C00D00202DE9F0479D
:1038500004460D469C4603270C23A8464FEAE5790B
:1038600005EB5979C9F3C7060A2A03DA02F13008D1
:1038700008F0FF02002064E0002157E0BCF1000FD7
:1038800027D104EB010806EB0009C9EB091908EB85
:103890000918DFF8B89019F80890A2F1200807FB82
:1038A00003FA08FB0AF803FB00888844DFF8A0A0AD
:1038B0001AF8088049EA080904EB010806EB000A37
:1038C000CAEB0A1A08EB0A18DFF880A00AF8089079
:1038D00028E004EB010806EB0009C9EB091908EB25
:1038E0000918DFF8689019F80890A2F1200807FB82
:1038F00003FA08FB0AF803FB00888844DFF850A0AD
:103900001AF8088069EA080909F0FF0804EB0109C0
:1039100006EB000ACAEB0A1A09EB0A19DFF82CA019
:103920000AF8098001F1010808F0FF01994204DA60
:1039300004EB0108B8F1EF0FA0DB00F1010808F07B
:10394000FF00B84298DBBDE8F0870000C00D002002
:1039500096AE00082DE9FF4F064688469B464FF07D
:10396000030A182740464FEAE87108EB5171C1F38A
:10397000C70900254BE0002442E0BBF1000F1ED137
:10398000029800F0ADFD0AFB07F1484307FB050074
:1039900020442149085C311909EB0502C2EB0212EF
:1039A00001EB02111D4A515C0843311909EB050274
:1039B000C2EB021201EB0211184A50541EE00298A9
:1039C00000F08EFD0AFB07F1484307FB0500204489
:1039D0001149085C311909EB0502C2EB021201EB37
:1039E00002110E4A515C61EA0000311909EB05022F
:1039F000C2EB021201EB0211084A5054601CC4B21F
:103A0000BC4202DA3019EF28B7DB681CC5B2554555
:103A1000B1DBBDE8FF8F0000CEE40008C00D002040
:103A20002DE9F04704460D469C4604271023A8467E
:103A30004FEAE57905EB5979C9F3C7060A2A03DA93
:103A400002F1300808F0FF02002064E0002157E096
:103A5000BCF1000F27D104EB010806EB0009C9EB0C
:103A6000091908EB0918DFF8B89019F80890A2F1C5
:103A7000200807FB03FA08FB0AF803FB00888844C8
:103A8000DFF8A0A01AF8088049EA080904EB010849
:103A900006EB000ACAEB0A1A08EB0A18DFF880A046
:103AA0000AF8089028E004EB010806EB0009C9EBCE
:103AB000091908EB0918DFF8689019F80890A2F1C5
:103AC000200807FB03FA08FB0AF803FB0088884478
:103AD000DFF850A01AF8088069EA080909F0FF0821
:103AE00004EB010906EB000ACAEB0A1A09EB0A19F2
:103AF000DFF82CA00AF8098001F1010808F0FF01A5
:103B0000994204DA04EB0108B8F1EF0FA0DB00F1F1
:103B1000010808F0FF00B84298DBBDE8F08700001C
:103B2000C00D0020F2BB00082DE9F04704460D4609
:103B30009C4606271823A8464FEAE57905EB5979F4
:103B4000C9F3C706202A00D10B22202A03DDA2F1E7
:103B5000300808F0FF02002060E0002153E0BCF1D3
:103B6000000F25D104EB010806EB0009C9EB091988
:103B700008EB0918DFF8AC9019F8089007FB03F878
:103B800008FB02F803FB00888844DFF89CA01AF8C1
:103B9000088049EA080904EB010806EB000ACAEBB1
:103BA0000A1A08EB0A18DFF87CA00AF8089026E049
:103BB00004EB010806EB0009C9EB091908EB091829
:103BC000DFF8609019F8089007FB03F808FB02F88B
:103BD00003FB00888844DFF850A01AF8088069EADF
:103BE000080909F0FF0804EB010906EB000ACAEB1B
:103BF0000A1A09EB0A19DFF82CA00AF8098001F16A
:103C0000010808F0FF01994204DA04EB0108B8F159
:103C1000EF0FA4DB00F1010808F0FF00B8429CDBC5
:103C2000BDE8F087C00D0020B2D300082DE9F041B7
:103C300007460D4690461E46002408E02819C1B2EA
:103C400000234246384600F007F8601CC4B2B44274
:103C5000F4DBBDE8F08100002DE9F04704461F4683
:103C60000D464FEAE17801EB5878C8F3C7034FEAF5
:103C7000E17801EB58784FEAE808A1EBC80808F0B2
:103C8000FF068D184FEAE57805EB58784FEAE8080B
:103C9000A5EBC80808F0FF0CFFB900201AE02518B2
:103CA000C3EB031805EB0815DFF8148118F805803D
:103CB0000125B54048EA050808F0FF0504EB0008B7
:103CC000C3EB031908EB0918DFF8F49009F8085062
:103CD000451CE8B29042E2DB6FE0304617E0C3EBF0
:103CE000031504EB0515DFF8D88018F805800125C9
:103CF000854048EA050808F0FF05C3EB031804EB0C
:103D00000818DFF8BC9009F80850451CE8B20828EC
:103D100001DA9042E3DB002017E01D186D1CC5EBB3
:103D2000051504EB0515DFF8988018F8055045F0E7
:103D3000FF081D186D1CC5EB051504EB0515DFF814
:103D4000809009F80580451CE8B2A2F1080808EB4C
:103D500006054FEAE57805EB58784FEAE808804514
:103D600001DD082AD9DC002025E08D184FEAE5782E
:103D700005EB58784FEAE808C8EB081804EB081878
:103D8000DFF83C9019F808804FF0010909FA00F9B2
:103D900048EA09088D184FEAE57905EB59794FEAA9
:103DA000E909C9EB091904EB0919DFF814A00AF8AD
:103DB0000980451CE8B26045D7DBBDE8F08700000C
:103DC000C00D0020F0B505460E4617461C460023E0
:103DD0003A4631462846FFF73FFF01232246314647
:103DE0002846FFF739FF3019C1B200233A4628466A
:103DF000FFF732FF611CCAB2E919C8B2012331468C
:103E0000FFF72AFFF0BD2DE9F04305460E461446A4
:103E10001F464FF002094FF0080809E014F8012B83
:103E20003B4631462846FFF727FC05EB0800C5B2A4
:103E300020780028F2D1BDE8F0832DE9F043054653
:103E40000F46144698464FF00209102619E02078D4
:103E500080280DDA2278434639462846FFF70CFCC5
:103E6000641C304606EBD07105EB6101CDB208E071
:103E70004346224639462846FFF782FCA41CA8196F
:103E8000C5B220780028E2D1BDE8F0832DE9F043E7
:103E900005460E4614461F464FF003094FF00C0826
:103EA00009E014F8012B3B4631462846FFF7CEFCCB
:103EB00005EB0800C5B220780028F2D1BDE8F083F8
:103EC0002DE9F04305460F46144698464FF0030986
:103ED000182619E0207880280DDA227843463946E2
:103EE0002846FFF7B3FC641C304606EBD07105EBA7
:103EF0006101CDB208E04346224639462846FFF725
:103F000029FDA41CA819C5B220780028E2D1BDE87B
:103F1000F0832DE9F04305460E4614461F464FF048
:103F200004094FF0100809E014F8012B3B46314614
:103F30002846FFF775FD05EB0800C5B2207800287C
:103F4000F2D1BDE8F0832DE9F04305460E46144654
:103F50001F464FF006094FF0180809E014F8012B2E
:103F60003B4631462846FFF7DFFD05EB0800C5B2AA
:103F700020780028F2D1BDE8F083000010B50121BF
:103F8000064801F09DFC00BF0221044801F028FC16
:103F90000028F9D0014801F08FFC10BD0024014039
:103FA0000148007870470000A903002010B50446BE
:103FB0000449204606F02EFB01D2012010BD00204E
:103FC000FCE700005CFF79442DE9F04F8BB0074619
:103FD0000D4600200A9080468146824618224249BA
:103FE00004A8FCF7B1FB41A2D2E900109268CDE928
:103FF000020201910B264049384606F03FFA04467A
:1040000006F0D4F980B20A90BDF81000BDF828106F
:10401000884204DD9DF804000BB0BDE8F08F701EEF
:1040200004A931F81000BDF82810884203DA701E88
:1040300001A9085CF0E7002450E004A830F814005F
:10404000BDF82810884247DC04A9601C31F8100034
:10405000BDF8281088423FDB04A9601C31F810002D
:1040600031F81410401A1FFA80F804A830F8140030
:10407000BDF82810081A1FFA80F9404606F0B6F974
:104080008346484606F0B2F95946009006F0CCF84F
:10409000824665B94FF07D51504606F0BBFA03D217
:1040A00001A9601C085CB7E701A8005DB4E74FF008
:1040B0007A51504606F0AEF902D201A8005DABE796
:1040C0004FF07D51504606F0A5FA03D201A9601CBD
:1040D000085CA1E728469FE7601CC4B2701EA0429E
:1040E000ABDC002098E700007CA80008000A141E42
:1040F00028323C46505A640000007A441CB50446FD
:1041000007226946002000F0B1FD9DF80000FEF78F
:1041100071FD20709DF80100FEF76CFD60709DF848
:104120000200FEF767FDA0709DF80400FEF762FD37
:10413000E0709DF80500FEF75DFD20719DF806001A
:10414000FEF758FD60719DF80300FEF753FDA07166
:1041500001201CBD10B540F2046005F033F90223C4
:1041600001220021014801F0FFFC10BD00100140B8
:104170003EB50446002000900190029000BF04E08C
:104180003E210DF80010411CC8B2A04201DA0A28F5
:10419000F6DB00236A4640213C20FFF777FEFFF75D
:1041A000D9F93EBD10B50146002248780B7840EAA7
:1041B00003224CF2C110131A824270D077DC4BF606
:1041C000E213A2EB03009A426BD03BDC4BF2FD33CF
:1041D000A2EB03009A427DD01DDC4BF2B313A2EB9D
:1041E00003009A4277D00CDCA2F52640A0F1C30070
:1041F000002871D0A0F6F11000286ED0F4286DD1FF
:104200001CE1B0F5867F6AD0A0F22F10002867D09D
:104210000728F4D150E140F2CB24031BA04275D013
:1042200007DCA52873D0E92872D0B0F5D47FE6D199
:104230002CE1ED2B6DD0B3F5FE7F6BD0B3F5447F51
:10424000DDD121E140F2FB44031BA04270D018DC19
:10425000B0F5397F6DD009DCA0F2C510002869D017
:10426000312868D0B0F58D7FC9D1BBE0A0F2023013
:1042700000286CD018286BD0A0F2CB100028BED13B
:10428000DEE040F20324181BA34278D00ADCCD2BD9
:1042900076D0F82B75D0B3F5FF7FB0D19CE0EDE080
:1042A00005E0E9E01A286DD0DF28A8D19CE040F6AF
:1042B000E734181BA34271D04BDC40F2F664A3EB49
:1042C0000400A3426CD026DC40F21934A3EB0400B6
:1042D000A34206E0F6E0CDE07CE0BBE0BEE08BE090
:1042E00093E06ED008DCA3F209137BB3212B69D0D5
:1042F000B3F5897F8DD1EDE0B0F5007F70D0A0F2ED
:104300001D2000286DD0EE2891D1D9E0B8E0D1E091
:10431000CEE09BE0DCE0B0F5FD7F6FD00CDC182830
:104320006DD01E286CD0A0F23110002888D168E032
:104330007DE053E07FE08BE0B0F5007F73D0A0F22A
:10434000462060B3B0F5E07F8ED1A3E04EE08EE072
:1043500082E040F20744031BA0426ED021DC40F211
:104360000D24A0EB0403A04257D00CDC0B2856D040
:104370003A283FD0A0F2131000286FD188E08FE0D8
:1043800080E0A1E04DE0B3F5887F44D0B3F58C7FA9
:104390006FD0A3F22913002B60D197E037E044E0FF
:1043A00050E040F21454181BA3422CD00BDCA3F2B3
:1043B000451070B3CF283CD0A0F2C13000284DD1B9
:1043C00074E015E088E015286CD0A0F60D500028A8
:1043D00044D169E0002010BD0120FCE70220FAE78B
:1043E00041E05BE00320F6E70420F4E70520F2E774
:1043F0000620F0E70720EEE70820ECE735E023E0B1
:104400002FE00920E7E70A20E5E70B20E3E70C208F
:10441000E1E724E007E00D20DDE70E20DBE70F20D9
:10442000D9E71020D7E71120D5E71220D3E71320D2
:10443000D1E71420CFE71520CDE73FE01620CAE7EB
:104440001720C8E71820C6E71920C4E71A20C2E7DA
:104450001B20C0E71C20BEE71D20BCE73EE01E205D
:10446000B9E71F20B7E72020B5E72120B3E72220D6
:10447000B1E711E02320AEE72420ACE72520AAE72E
:104480002620A8E72720A6E72820A4E72920A2E7DE
:104490002A20A0E72B209EE72C209CE72D209AE7DE
:1044A0002E2098E72F2096E7302094E7312092E7DE
:1044B000322090E733208EE734208CE735208AE7DE
:1044C000362088E7372086E7382084E7392082E7DE
:1044D0003A2080E73B207EE73C207CE700207AE71B
:1044E00010B50146002248780B7840EA03224CF2CE
:1044F000DB03D01A9A427DD062DC4BF2C863A2EB98
:1045000003009A4277D034DC4BF2BF23A2EB0300C6
:104510009A4271D019DC4BF2B313A2EB03009A421A
:104520006BD00DDCA2F52340A0F1BF00002874D0B1
:10453000B0F5417F72D0A0F6275000286FD102E17C
:104540000B286DD02D28F9D1F9E040F2E314031BBC
:10455000A0426ED006DCA0F20D1000286AD03128EF
:10456000ECD1C8E0442B77D0A3F20313002BE5D1A4
:10457000B0E040F23154031BA0426ED013DC40F295
:104580001A34A0EB0403A04268D006DCED2877D0F3
:10459000A0F217200028D1D1E9E0E32B71D0B3F5C8
:1045A000FB7FCBD194E0C82B7ED004DC012B6AD0FA
:1045B000BD2BC3D1DDE0CD2B74D0EB2BBED18FE072
:1045C00040F6D714031BA04269D034DC40F20A74D1
:1045D000A0EB0403A0426FD017DCB0F5047F6CD0D1
:1045E0000CDCE42862D0E62869D0A0F2EF100028A5
:1045F000A4D15DE054E08EE087E076E0A0F20130E7
:1046000000286FD0FE280AD17BE0EA2B5CD008DCC2
:10461000062B69D0D22B02D154E098E03CE073E045
:1046200083E0B3F5837F6ED0A3F20323002B6BD11D
:104630007DE064E089E040F20354181BA3427CD083
:1046400013DCB3F54C7F62D009DC322B68D0A3F2C7
:104650000133002B58D16EE04FE086E047E0A3F233
:1046600009435BB3E72B4FD15DE0B0F5E06F27D096
:104670000ADCB0F5887F54D0B0F5477F7BD168E085
:1046800024E05EE010E048E0A0F20E7058B3A0F61F
:104690000D5000286FD10DE0002010BD02E01DE09C
:1046A0000120FAE70220F8E70320F6E70420F4E708
:1046B0000520F2E70620F0E71BE054E00CE028E0DC
:1046C0000720EAE70820E8E70920E6E70A20E4E710
:1046D0000B20E2E70C20E0E70D20DEE70E20DCE710
:1046E0000F20DAE73DE024E035E01020D5E7112087
:1046F000D3E71220D1E71320CFE71420CDE7152010
:10470000CBE71620C9E72AE035E01720C5E71820D7
:10471000C3E71920C1E71A20BFE71B20BDE70CE063
:104720001BE01C20B9E71D20B7E71E20B5E71F20BE
:10473000B3E72020B1E72120AFE72220ADE7232017
:10474000ABE72420A9E72520A7E72620A5E7272017
:10475000A3E72820A1E729209FE72A209DE72B2017
:104760009BE72C2099E72D2097E72E2095E72F2017
:1047700093E7302091E700208FE700BFFEE70000BD
:1047800070B52948006805F031FE04464FF07E51AF
:1047900005F04AFD254908600A469169106805F050
:1047A0006DFE0446224905F035FF04D21F4800681B
:1047B0001E49486018E01D4A1168906905F05EFEC8
:1047C00005464FF07E5105F056FF0446174908682C
:1047D000214605F029FD154948600A46516950688F
:1047E00005F022FD11494860104AD169506805F072
:1047F00045FE0E49886048680E4905F015FD0446DF
:104800000A48C168204605F0A1FC0849C8608868CC
:10481000084905F009FD044604480169204605F0F1
:1048200095FC0249086170BD480000208803002003
:10483000EC51783F0000614570B505461323002216
:10484000EF21104600F02CF95C21002000F04CF91B
:10485000002405E0295D012000F046F9601C84B2C7
:10486000B4F5965FF6DB70BD10B501F0DBF901F031
:1048700009FA00F0FDF83021002000F035F96E2132
:10488000002000F031F93121002000F02DF9D7216E
:10489000002000F029F99F21012000F025F9E021F6
:1048A000002000F021F90021012000F01DF9142062
:1048B00000F0D2F8E321002000F016F9142000F0F7
:1048C000CBF8E121002000F00FF93021002000F0AA
:1048D0000BF99421002000F007F9AE21002000F030
:1048E00003F9322000F0B8F82021002000F0FCF895
:1048F0000B21012000F0F8F80C21002000F0F4F862
:104900008121002000F0F0F81421012000F0ECF8E3
:104910000521012000F0E8F83121002000F0E4F842
:104920003221002000F0E0F80021012000F0DCF846
:104930000121084600F0D8F80221012000F0D4F847
:104940005121002000F0D0F8FB21012000F0CCF82C
:104950003021002000F0C8F8F021002000F0C4F859
:104960001021012000F0C0F8CA21002000F0BCF89E
:104970000021012000F0B8F89F21012000F0B4F8D8
:104980000021012000F0B0F83121002000F0ACF847
:10499000F221002000F0A8F81E21012000F0A4F868
:1049A0002821012000F0A0F83221012000F09CF81D
:1049B000F021002000F098F81621012000F094F872
:1049C0001621012000F090F81621012000F08CF84B
:1049D0001621012000F088F83021002000F084F832
:1049E000BC21002000F080F80021012000F07CF8BC
:1049F000A621002000F078F83121002000F074F8A2
:104A00004021002000F070F8002000F008F8AF21ED
:104A1000002000F069F8642000F01EF810BD70B5A9
:104A200005460DB1FF2000E00020064613230022BA
:104A3000EF21104600F034F85C21002000F054F81B
:104A4000002405E03146012000F04EF8601C84B2DD
:104A5000B4F5965FF6DB70BD4FF47A7200FB02F19D
:104A600000E000BF0A1EA1F10101FAD17047000069
:104A700000B52020094908601420FFF7EDFF202031
:104A8000064908601420FFF7E7FF20200349091FAB
:104A90000860C820FFF7E0FF00BD0000140C0140D3
:104AA0002DE9F04104460F4615461E4630210020F0
:104AB00000F01AF81521002000F016F82146012018
:104AC00000F012F83946012000F00EF875210020A0
:104AD00000F00AF82946012000F006F831460120CE
:104AE00000F002F8BDE8F08170B505460C461DB92E
:104AF00040200949086003E040200749091F086079
:104B0000102005490860204604F0E2FC102002490C
:104B1000091F086070BD00001408014000F0010189
:104B200019B108210E4A516102E008210C4A1161B5
:104B300000F0020121B14FF48041094A516103E0C4
:104B40004FF48041064A116100F0040119B10421BB
:104B5000034A516102E00421014A116170470000DB
:104B60000010014010B50246002116480078401C94
:104B7000144B187012BBFFF713FA022802D141F050
:104B800002011DE0FFF70CFA01280BD10D48007857
:104B9000142390FBF3F403FB14000A2810DA41F00D
:104BA00002010DE007480078142390FBF3F403FBA7
:104BB00014000A2804DA41F0010101E041F0040187
:104BC000084610BDAE03002000BFFEE7704700009E
:104BD00010B5002807DA0A07140E054A00F00F0383
:104BE0001B1FD45403E00A07130E024A135410BDCE
:104BF00018ED00E000E400E04FF400500149486186
:104C0000704700000010014010B58020094908607D
:104C100000F012F840200749091F086000F00CF866
:104C200040200449086000F007F880200149091F6E
:104C3000086010BD140C014010B5042000F0F6FE11
:104C400010BD000010B5802007490860FFF7F4FF91
:104C5000402005490860FFF7EFFF40200249091D89
:104C60000860FFF7E9FF10BD100C014070B5064663
:104C70000C46154600F078F8642000F04BF800F080
:104C80009DF800B121E03107080E00F043F800F074
:104C900095F800B119E000F067F8652000F03AF8E7
:104CA00000F08CF800B110E009E000F011F804F811
:104CB000010B15B1FFF7A8FF01E0FFF7C3FF281EA6
:104CC000A5F10101CDB2F0D100BF00F065F870BDD3
:104CD00070B50024002516E06006040E40200C4943
:104CE0000860FFF7A9FF0A480838006800F0800054
:104CF00008B1601CC4B240200549091D0860FFF7D7
:104D00009BFF681CC5B2082DE6DB204670BD000085
:104D1000100C014070B50446002520E004F080002E
:104D200018B180200F49086003E080200D49091D5B
:104D30000860FFF781FF40200A490860FFF77CFF09
:104D400040200849091D0860072D02D18020091F55
:104D500008606006040EFFF76FFF681CC5B2082DDF
:104D6000DCDB70BD100C014010B5802009490860E3
:104D700040200860FFF760FF80200649091D086099
:104D8000FFF75AFF40200349091D0860FFF754FF51
:104D900010BD0000100C014010B5802006490860CD
:104DA0004020091F0860FFF747FF80200249091FC4
:104DB0000860FFF741FF10BD140C014010B58020C2
:104DC0000C490860FFF738FF40200A490860FFF7E8
:104DD00033FF08480838006800F0800008B101245B
:104DE00000E0002440200349091D0860FFF724FF6C
:104DF000204610BD100C014070B505460C46164605
:104E0000FFF7B2FF6420FFF785FFFFF7D7FF00B180
:104E100016E02907080EFFF77DFFFFF7CFFF00B16F
:104E20000EE007E014F8010BFFF774FFFFF7C6FF71
:104E300000B105E0301EA6F10101CEB2F2D100BFF3
:104E4000FFF7AAFF70BD000000EB80025100014A8D
:104E500011607047400800401CB504462078FDF7FB
:104E6000D3FE8DF800006078FDF7CEFE8DF80100CE
:104E7000A078FDF7C9FE8DF80200032269460020E4
:104E8000FFF7BAFF052000F0C5FDE078FDF7BCFE96
:104E90008DF804002079FDF7B7FE8DF805006079E4
:104EA000FDF7B2FE8DF80600032201A90420FFF7EA
:104EB000A3FF01201CBD10B504F08CFB10BD000049
:104EC00008B53048006840F001002E49086000BF76
:104ED0002C48006800F002000128F9D000BF2948E2
:104EE000406840F08000274948600020009002E0C0
:104EF0000098401C009000985028F9D32148406841
:104F000040F090001F4948600020009002E00098A7
:104F1000401C009000985028F9D300BF1948406801
:104F200020F0030017494860084600681649084009
:104F3000144908600846406814490840114948600F
:104F400008460068104908400E4908600846006895
:104F500020F480200860084640680D49084009494F
:104F600048600846006808490840064908604FF450
:104F70001F00886004F02AFB00214FF0006004F05D
:104F80005FF908BD00100240FFFFF6FE0C00FFE8CD
:104F9000FFFF00F71FB54FF4C06004F013FA40F2B2
:104FA0000B6004F00FFA4FF48053032204212048D1
:104FB00000F0DAFD1F4804F081FC0020ADF800008D
:104FC000ADF80200ADF804004FF6FF70029000202B
:104FD000ADF80C008DF80E006946164804F004FD8B
:104FE0007021144804F070FD0721124804F094FD6C
:104FF00000231A4619460F4804F0D3FC80210D48BF
:1050000004F07DFD00210B4804F055FC0121094806
:1050100004F066FD002211461A2004F0B1F80121C7
:10502000044804F059FD034804F0B6FC1FBD00001D
:1050300000080140002C01401FB54FF4C06004F08F
:10504000C1F94FF4E06004F0BDF9012303224821C7
:10505000234800F089FD4FF0804004F02FFC002031
:10506000ADF80000ADF80200ADF804004FF6FF7097
:1050700002900020ADF80C008DF80E0069464FF04C
:10508000804004F0B1FC70214FF0804004F01CFD22
:1050900007214FF0804004F03FFD00234FF4004211
:1050A0001946D00304F07DFC8021C80504F027FDDB
:1050B00000214FF0804004F0FEFB0121880704F03E
:1050C0000FFD002211461C2004F05AF80121880728
:1050D00004F002FD4FF0804004F05EFC1FBD0000B4
:1050E000000801401FB540F2047004F06BF9154848
:1050F00004F0E4FB3520ADF800000020ADF802001C
:10510000ADF8040040F2E73002900020ADF80C004A
:105110008DF80E0069460B4804F066FC094804F05F
:1051200061FA0121074804F05BFC0121054804F005
:10513000D3FC044804F030FC01220221362004F0A4
:105140001FF81FBD0010004010B50121064804F0F3
:10515000CAFC40B10121044804F0C2FC03480068C5
:10516000401C0249086010BD002C014008000020CE
:1051700010B50121880704F0B6FC40B10121880771
:1051800004F0AEFC02480068401C0149086010BDF4
:105190000C00002010B50121144804F0A4FC20B339
:1051A0000121124804F09CFC11480068401C104981
:1051B00008601048006810490968C1EB01410844C3
:1051C0000E4908604FF08040406A0D490968C1EB04
:1051D000014108440B49086000200749086008495C
:1051E0000860044908600907486210BD00100040CB
:1051F00004000020242C014008000020480000206A
:105200000C0000204C00002010B5002400F094FB9E
:105210000446092C4ED2DFE804F04D050E17202974
:10522000323B440030483149097800EB01104078A6
:105230002E4908703FE02C482C49097800EB0110FA
:1052400080782A49087036E027482849097800EB19
:105250000110C078254908702DE0234823490978BA
:1052600000EB011000792149087024E01E481F4915
:10527000097800EB011040791C4908701BE01A48BE
:105280001A49097800EB011080791849087012E07A
:1052900015481649097800EB0110C07913490870C8
:1052A00009E011481149097800EB0110007A0F4913
:1052B000087000E000BF00BF0C4800780F2803D042
:1052C0000B494878FFF7C0FD0748084A127800EB01
:1052D0000210C16820468847FEF73CF90348007871
:1052E0000449087010BD0000DC000020D800002038
:1052F0003E000020D900002010B500241E48007890
:10530000D8B901201C490870FDF7A8F91B4908709D
:10531000FDF7A4F919494870FDF7A0F917498870FD
:10532000FDF79CF91549C870FDF798F91349087104
:10533000FDF794F9114948711DE0FDF78FF9104907
:105340000978062291FBF2F302FB13110B4A505429
:105350000B480078401C0A490870002004E0074907
:10536000095C0C44411CC8B20628F8DB0620B4FBDB
:10537000F0F00449087010BDB6030020AF03002010
:10538000B50300205000002010B504462046FDF76C
:10539000D5FC0648407E40B1044AD18A9068FDF7AA
:1053A000BBFC00200149C882487610BDB80300202C
:1053B00010B5FFF7E5F9FEF713F810BD2DE9F04140
:1053C0000024002500260027174948681749096866
:1053D00004F02AFF804604F0E9FFC6B21249C8680B
:1053E0001349096804F020FF804604F0DFFFC7B2CC
:1053F000BE4201DD304600E038460E4908700846DE
:105400000078FDF7A9FB04462046FDF78BF9094813
:105410000078FFF7A7FB05462846FFF77FFBFDF75F
:1054200051FCBDE8F0810000880300205C000020F2
:1054300060000020A80300200148006870470000B9
:105440000400002010B5024800F004F810BD000070
:10545000D407002070B504463149206804F092FC5E
:10546000E0B1206804F000FCC5B2E08AE18988421E
:1054700005DAE18AA0684554E08A401CE0822849A8
:10548000206804F076FC40F20531206804F064FCEA
:105490004FF44171206804F05FFC00BF214920688F
:1054A00004F070FCC0B1208AA18A88420ADB40F275
:1054B0000731206804F043FC40F20631206804F014
:1054C0004BFC2CE0238A6268D15C206804F0D1FB9D
:1054D000208A401C208222E01349206804F052FCFC
:1054E00068B100202082A08220760F49206804F055
:1054F00040FC40F20631206804F021FC0FE00B492B
:10550000206804F03FFC50B1012060760749206814
:1055100004F02FFC4FF44171206804F010FC70BDC2
:105520000503050007030700060306000403040043
:1055300010B50248FFF78EFF10BD0000B803002031
:105540007047704700BFFEE7490050EAC12018BF0E
:1055500004204A0D18BF40F0010040F2FF72B2EB88
:10556000515F08BF40F00200012808BF05207047C6
:1055700040F2013200204FF0E04105F033B9000065
:10558000024A0020110705F02DB9000001FDFFFFC0
:1055900010B50446D1E9000100F002F8206010BD0A
:1055A000F8B504460D466A4600F090FA00987E3041
:1055B000009000281EDC002213462046294604F0F5
:1055C00097FC17D0002140F608004FF00000064677
:1055D0002046294604F046FC044640F6080006EA48
:1055E00000014FF0000034F0004004BF0220FCF73F
:1055F0006AF929E00098FF2828DB002108464FF0CF
:10560000000000F44006002213462046294604F01C
:105610003BFD8CBF002501250220FCF754F94FF01B
:10562000FF4446B1002D0CBF4FF400004FF4800042
:10563000B04218BF084C042108464FF00000002D6E
:1056400004BF84F00040F8BD2046F8BD204629463E
:10565000BDE8F84004F006BCFFFF7F7F10B50446AC
:105660000A46D4E90003194600F02CFBC4E9000106
:1056700010BD30380A2801D2012070470020704741
:10568000816841F00801816000BF816801F0080174
:105690000029FAD1816841F00401816000BF81686E
:1056A00001F004010029FAD1704730B5012902D078
:1056B00002291AD10CE0C36A23F47003C362C36ADF
:1056C000541E4FF4700505EA04542343C3620DE0F1
:1056D000836B23F440138363836B541E4FF4401594
:1056E00005EA04542343836300E000BF00BF30BDDC
:1056F00021B1826842F40062826003E0826822F491
:10570000006282607047000010B5044613482044D0
:1057100030B1B0F5806F0CD0B0F5C05F1BD111E097
:1057200040F2093003F06EFE40F2093003F05AFEF9
:1057300012E040F20A3003F065FE40F20A3003F056
:1057400051FE09E040F20F3003F05CFE40F20F30F2
:1057500003F048FE00E000BF00BF10BD00DCFEBF4C
:10576000816801F0010119B9816841F0010181608E
:10577000704772B101F001031BB1836843F48013D9
:10578000836001F0020393B1836843F400438360B4
:105790000DE001F001031BB1836823F480138360E3
:1057A00001F002031BB1836823F400438360704758
:1057B000012902D0022910D107E0836823F4602375
:1057C000836083681343836008E0836823F4E043C5
:1057D000836083681343836000E000BF00BF7047AD
:1057E0000246002013680B4003B1012070470000FF
:1057F0000549096821F47021034A116011460968BE
:10580000014311607047000004240140F0B51D46BB
:1058100006290CDA436B01EB81071F26BE40B34318
:1058200001EB810602FA06F63343436322E00C29BA
:105830000EDA036B8E1F06EB86071F26BE40B343AE
:105840008E1F06EB860602FA06F63343036311E069
:1058500010290FDAC36AA1F10C0606EB86071F2692
:10586000BE40B343A1F10C0606EB860602FA06F62B
:105870003343C3620A2A0CDA046902EB42070726A3
:10588000BE40B44302EB420605FA06F63443046117
:1058900011E0122A0FDAC468A2F10A0606EB4607E5
:1058A0000726BE40B443A2F10A0606EB460605FAF7
:1058B00006F63443C460F0BD0146C86C80B2704740
:1058C00001F001021AB1826842F48002826001F0A4
:1058D00002021AB1826842F4001282607047AAB1D3
:1058E00001F480731BB1436843F48073436001F497
:1058F00080631BB1436843F48063436001F002039B
:10590000CBB1836843F00203836014E001F4807339
:105910001BB1436823F48073436001F480631BB1BF
:10592000436823F48063436001F002031BB1836882
:1059300023F00203836070470B48807A0A4AD27AC8
:10594000904201D1002070470748807A064A115CD6
:105950001046807A401CC0B290720A2801DB0020F9
:1059600090720846EFE70000F00B002010B500240D
:1059700000BF37E01D4A02EBC40251681B4A52F8CF
:10598000340000F047F9A0B9194830F81400401C61
:10599000174921F81400084630F814000A281FDBC4
:1059A000611DC8B200F026F80020114921F814004A
:1059B00016E00F4830F8140002280DDB0C4830F8D0
:1059C00014000A2804DA611CC8B200F013F803E0DE
:1059D000611DC8B200F00EF80020054921F814003E
:1059E000601CC4B2042CC5DB10BD000018000020F0
:1059F000100000200649C97A054A50541146C97A58
:105A0000491CC9B2D1720A2901DB0021D172704749
:105A1000F00B002010B5044603E04FF4FA7000F0DC
:105A200005F8201EA4F10104F7D110BD014604E0E1
:105A3000002000E0401C1428FCD30A1EA1F1010143
:105A4000F6D1704730B587B005460C46002004906B
:105A5000059006900290039002A8FEF74FFB9DF878
:105A6000080000909DF809309DF80A200FA104A8B5
:105A7000FAF702FC04F11800C1B2002304AA284678
:105A8000FEF7C1F99DF80B0000909DF80C309DF8D1
:105A90000D200AA104A8FAF7EFFB002304AA21466F
:105AA0002846FEF7B0F907B030BD0000253032645B
:105AB0003A253032643A25303264000025303264B1
:105AC0002D253032642D25303264000010B5144687
:105AD00000222260114A21F000439342A8BF10BD6A
